:020000040800F2
:10000000C00500209D0100086F1A0008B7180008FD
:100010006D1A0008D10300086B1C000800000000E6
:10002000000000000000000000000000731A00083B
:100030005D04000800000000711A0008751A00082D
:10004000B7010008B7010008B7010008B7010008B0
:10005000B7010008B7010008B7010008B7010008A0
:10006000B7010008B7010008B7010008B701000890
:10007000B7010008B7010008B7010008B701000880
:10008000B7010008B7010008B7010008B701000870
:10009000B7010008B7010008B7010008B701000860
:1000A000B7010008B7010008B7010008B701000850
:1000B000211B0008B70100082D1B0008B70100082C
:1000C000B7010008B7010008B7010008B701000830
:1000D000B7010008B7010008B7010008B701000820
:1000E000B7010008B7010008B7010008B701000810
:1000F000B7010008B7010008B7010008B701000800
:10010000B7010008B7010008B7010008B7010008EF
:10011000B7010008B7010008B7010008B7010008DF
:10012000D5030008B7010008B7010008B7010008AF
:10013000B7010008B7010008B7010008B7010008BF
:10014000B7010008B7010008B7010008B7010008AF
:10015000B7010008B7010008B7010008B70100089F
:10016000B7010008B7010008B7010008B70100088F
:10017000B7010008B7010008B7010008000000003F
:10018000B7010008B7010008DFF80CD000F07AF8DA
:1001900000480047AD1C0008C00500200648804705
:1001A00006480047FEE7FEE7FEE7FEE7FEE7FEE75C
:1001B000FEE7FEE7FEE7FEE7111B000889010008E5
:1001C0002DE9F05F0546002092469B46884606468C
:1001D000814640241BE0284641464746224600F01F
:1001E00041F853465A46C01A914110D31146184659
:1001F000224600F028F82D1A67EB01084F462246E8
:100200000120002100F01FF817EB00094E41201ECD
:10021000A4F10104DFDC484631462A464346BDE8E6
:10022000F09FD2B201E000F8012B491EFBD27047CB
:100230000022F6E710B513460A4604461946FFF7B2
:10024000F0FF204610BD202A04DB203A00FA02F11C
:10025000002070479140C2F1200320FA03F31943B4
:1002600090407047202A04DB203A21FA02F0002156
:10027000704721FA02F3D040C2F1200291400843B6
:1002800019467047064C074D06E0E06840F0010350
:1002900094E8070098471034AC42F6D3FFF778FF94
:1002A000481D0008681D0008464910B54A6822F438
:1002B00040324A604A6843681A434A6001684A68A3
:1002C00022F480724A6001684A68036942EA0322A4
:1002D0004A6001684A6822F040724A6001684A68D0
:1002E00083681A434A6001688A6822F400628A605F
:1002F00001688A68C3681A438A60816A6FF0706215
:10030000D14201688A6822F070628A6001688A6856
:100310000CD0836A1A438A6001688A6822F04052CE
:100320008A6001688A68C36A1A4301E022F0405279
:100330008A6001688A6822F002028A6001688A681D
:10034000037E42EA43028A6090F820100029016887
:100350004A680FD042F400624A6001684A6822F499
:1003600060424A6001684A68174C436A04EB4333B1
:100370001A4301E022F400624A600168CA6A22F46A
:100380007002CA620168CA6A838B104C04EB035383
:100390001A43CA6201688A6822F400728A6001689E
:1003A0008A6890F8303042EA43228A6001688A689D
:1003B00022F480628A6001688A68406942EA80208B
:1003C000886010BD0023014000E0FFFF0000F0FF47
:1003D000FEE70000014800F039BA00007400002078
:1003E00001681823CAB2103AB2FBF3F2054B6FF35F
:1003F0000901032A9B5CC36500D9091D8165084674
:1004000070470000281D000810B5014600208B69C8
:100410008A6A4FF0C07453B1B3F5005F15D072B162
:10042000012A0CD0022A0AD0032A09D104E01AB109
:10043000012A06D0022A03D1C96AC90100D50120C8
:1004400010BDC96AA142FAD010BD002AF7D0012A16
:10045000F2D0022AF3D0032AF3D010BD704772B64F
:10046000FEE7000078B50024009490F83C20012AB3
:1004700019D0012280F83C200A6807230568092A60
:1004800013D9EE680A3A02EB420293409E43EE60B3
:100490000B788A680A3B03EB43039A400368DD68E4
:1004A0002A43DA6010E0022078BD2E6902EB420296
:1004B00093409E432E610B788A6803EB43039A4076
:1004C00003681D692A431A614A681F23072A13D249
:1004D00005686E6B521E02EB820293409E436E6370
:1004E0000B790A885B1E92B203EB83039A40036880
:1004F0005D6B2A435A6327E005680D2A12D22E6BE2
:10050000D21F02EB820293409E432E630B790A882E
:10051000DB1F92B203EB83039A4003681D6B2A43EF
:100520001A6311E0EE6A0D3A02EB820293409E4399
:10053000EE620B790A880D3B92B203EB83039A407B
:100540000368DD6A2A43DA62164B0568144A9D4245
:1005500006D10D68122D03D1556845F4800555600C
:1005600005689D4218D10B68102B01D0112B13D1B7
:10057000536843F400035360096810290CD10A49F9
:100580000A4A0968B1FBF2F101EB8101490000E080
:10059000491E00910029FBD180F83C40002078BD25
:1005A00000230140002001401400002040420F00C1
:1005B0000068C06C704770B504004FF0000503D0B0
:1005C000206C002610B107E0012070BD204600F02D
:1005D0001DF8666484F83C60206CC00610D4206C62
:1005E00020F4885040F0020020642046FFF75CFEB3
:1005F0006664206C20F0020040F00100206400E0FE
:10060000012584F83C60284670BD000070B586B0B6
:10061000064614216846FFF70BFE1D4930688842E4
:1006200033D11C480025016841F4807101600068E5
:1006300000F48070059017481438016841F00101FA
:1006400001600068694600F001000590802000907C
:100650000320CDE90105104800F032FA104C0F4894
:10066000C4E900050015A560C4E9035040006061BD
:100670008000C4E9060525622046656200F0B6F9EF
:1006800008B1FFF7ECFEB463A66306B070BD0000CE
:100690000020014044380240000002401064024043
:1006A000740000202DE9F041044600680D46816881
:1006B0004FF0000749050BD58068C00508D5206CB0
:1006C00040F02000206484F83C700120BDE8F081F7
:1006D00000F0F2FA064613E0681C11D025B100F0D4
:1006E000EBFA801BA8420BD920680068800707D46A
:1006F000206C40F00400206484F83C700320E5E79F
:10070000206800688007E7D521686FF01200086054
:10071000206C40F4007020642068816811F0405F14
:1007200013D1217E89B9C16A11F4700F02D080689B
:1007300040050AD4206C20F480702064206CC00432
:1007400003D4206C40F0010020640020BEE70000CC
:1007500018B50021009190F83C20012A07D0012211
:1007600080F83C2002689368DB0702D011E0022089
:1007700018BD936843F0010393602E4A2E4B126814
:10078000B2FBF3F202EB420200E0521E0092002A9A
:10079000FBD102689368DB0742D0036C40F201642E
:1007A000A34343F48073036453685B0505D5036C6E
:1007B00023F4005343F480530364036CDB0404D537
:1007C000436C23F00603436400E0416480F83C106E
:1007D0001A496FF02203136049680068CA06184975
:1007E00006D0884224D1816811F0405F13D01FE009
:1007F0008842F8D0134A904203D1D1F80423D2069C
:10080000F1D0114A904213D1D1F8041301F01F0125
:100810001029E8D30CE0816841F08041816007E055
:10082000016C41F010010164416C41F0010141642F
:10083000002018BD1400002040420F00002301409A
:100840000020014000210140002201402DE9F84331
:1008500004464FF00009CDF8009063484FF416515C
:10086000A56D0068B0FBF1F72E6894F85C100820C5
:1008700000FA01F131420FD021680A6852070BD506
:100880000A6822F004020A6094F85C108840A860AC
:10089000606D40F00100606594F85C104FF0010855
:1008A00008FA01F0304208D021684969090604D5E8
:1008B000A860606D40F00200606594F85C10042050
:1008C0008840304208D021680968890704D5A860AB
:1008D000606D40F00400606594F85C101020884062
:1008E000304218D021680968090714D5A86020682B
:1008F0000168490304D50068000308D5A16C07E02E
:100900000168C90503D4016821F008010160216C68
:1009100009B12046884794F85C1020208840304276
:1009200031D021680968C9062DD5A86094F8350032
:1009300005282068016806D0490347D500680003F0
:100940001DD4616C1CE021F0160101602068416932
:1009500021F080014161206C08B9A06C20B12068B1
:10096000016821F00801016094F85C103F20884084
:10097000A86084F8349084F83580216D1FE0E16B25
:1009800009B120468847606D00282BD0606DC007F4
:1009900014D0052084F835002068016821F0010199
:1009A00001600098401C0090B84203D8206800689D
:1009B000C007F6D184F8349084F83580E16C0029C2
:1009C00010D001B02046BDE8F04308470168C905D2
:1009D000D5D4016821F01001016084F8349084F8C6
:1009E0003580CCE7BDE8F883140000202DE9F04104
:1009F000044600F061F906465CB1002584F83450E5
:100A0000022084F835002068016821F001010160AE
:100A10000DE00120BDE8F08100F04EF9801B0528B3
:100A200005D920206065032084F83500F2E72068AE
:100A30000068C007F0D12268116820480140D4E95D
:100A400001031843D4E90336334318436369184359
:100A5000A3691843E3691843236A18430843616A8A
:100A6000042903D1D4E90B1319430843106020680B
:100A70004069666A20F0070130460E4301270428CA
:100A80000CD1A06A0643E06A40B12046FFF7BCFCE7
:100A900020B14020606584F83570BAE7206846616F
:100AA0002046FFF79DFC94F85C203F219140816037
:100AB000656584F835700020ACE700003F8010F0D9
:100AC0002DE9F84FDFF8B8A1002201250AF1040B47
:100AD00003264FF00F090BF1040E00BF0B6805FA57
:100AE00002F42340A3426FD10F7907F00307012FCF
:100AF00001D0022F16D187684FEA420806FA08FC97
:100B000027EA0C07D1F80CC00CFA08FC4CEA070CD9
:100B1000C0F808C04768A7430C79C4F30014944098
:100B20003C4344600C79E443A4070AD0C4684FEA0C
:100B3000420C06FA0CF7BC438F6807FA0CF7274300
:100B4000C7600C7904F00304022C12D1D40800EB26
:100B5000840CDCF820405707FF0E09FA07F824EA56
:100B60000804D1F8108008FA07F848EA0408CCF81D
:100B7000208004684FEA420C06FA0CF7BC430F7958
:100B800007F0030707FA0CF7274307604C68E400F7
:100B900070D53C4C276847F480472760246822F0D2
:100BA000030704F480440094374C07EB040CDCF892
:100BB000084897074FEA177809FA08F7BC43334FFC
:100BC000B84202D1002724E054E0314FB84201D1AD
:100BD00001271EE02F4FB84201D1022719E02E4F06
:100BE000B84201D1032714E02C4FB84201D10427A9
:100BF0000FE02B4FB84201D105270AE0294FB84238
:100C000001D1062705E0284FB84201D1072700E0AF
:100C1000082707FA08F72743CCF80878DAF80040E5
:100C20005746D1F804C09C435FEACC3C00D51C4336
:100C30003C60DBF800405F46D1F804C09C435FEAAB
:100C40008C3C00D51C433C60DEF800407746D1F870
:100C500004C09C435FEACC2C00D51C433C60084F89
:100C60000C373C68D1F804C09C435FEA8C2C00D55B
:100C70001C433C60521C102AFFF430AFBDE8F88FD3
:100C8000003C014044380240003001400000024076
:100C90000004024000080240000C02400010024024
:100CA0000014024000180240001C02400AB1816199
:100CB00070470904FBE700000148806870470000A6
:100CC0000800002002488168027811448160704762
:100CD000080000200B4810B5016841F40071016064
:100CE000016841F480610160016841F48071016034
:100CF000032000F089F8002000F006F800F03EF82C
:100D0000002010BD003C024010B5014688B0002212
:100D10001C2000F059F81C2000F048F8144800246A
:100D2000016841F001010160006805A900F00100BF
:100D30000690684600F014F900F032F90D494000C1
:100D4000B0FBF1F10C484FF08042491E026040F2C6
:100D5000E732C0E90324C0E9011400F0F7FB10B149
:100D6000012008B010BD044800F03CFCF9E7000089
:100D70004038024040420F00740100200A4808B584
:100D8000016841F480410160006800F480400090F7
:100D90000548001F016841F080510160006800F0C3
:100DA0008050009008BD000044380240002809DB54
:100DB00000F01F02012191404009800000F1E02075
:100DC000C0F8001170470000F0B40E4B1B680C46D1
:100DD000C3F30223C3F10705042D00D90425191D0F
:100DE000072901D2002300E0DB1E012606FA05F1E7
:100DF000491E214099409E40761E16403143F0BC6A
:100E000000F034BF0CED00E0064900F0070208686E
:100E10004FF6FF03184040EA0220034A10430860DF
:100E2000704700000CED00E00000FA052DE9F047E6
:100E30000E46050065D0DFF81481D8F80000F7B23F
:100E400000F00700B04207D288F80070D8F8000020
:100E500000F00700B04254D128683D4C810712D5FC
:100E6000400703D5206840F4E05020602878000750
:100E700003D5206840F4604020602068A96820F015
:100E8000F000084320602878C0072DD030496868FA
:100E90000839012812D0022813D0032811D009687C
:100EA000890700292DDA216821F00301014321601F
:100EB000FFF702FF814641F2883A0EE00968890394
:100EC000EFE709688901ECE7FFF7F6FEA0EB0901FF
:100ED000514502D90320BDE8F0872068696800F019
:100EE0000C00B0EB810FEFD1D8F80010404601F0B4
:100EF0000701B14207D90770006800F00700B0424F
:100F000001D00120E7E72878400705D52068E96887
:100F100020F4E050084320602878000706D52068B8
:100F2000296920F4604040EAC100206000F048F8E0
:100F30002168084AC1F30311515CC84006490860A2
:100F400006480068FFF7E0FE0020C4E7003C0240CE
:100F500008380240301D0008140000200C0000205A
:100F60000F2202600C4A136803F003034360136806
:100F700003F0F0038360136803F4E053C360126866
:100F80004FF4E05303EAD20202610448006800F023
:100F9000070008607047000008380240003C02402B
:100FA0000448054900680968044AC1F38221515C7C
:100FB000C84070471400002008380240401D000857
:100FC000154810B5006810F00C02144813D01449ED
:100FD000042A0FD0082A0ED10F4C241F2268236840
:100FE00002F03F025B0207D52068C0F38810A0FB27
:100FF000010106E0084610BD2168C1F38811A1FB7C
:1010000000010023FFF7DCF82168C1F30141491C0E
:101010004900B0FBF1F010BD083802400024F40094
:1010200040787D012DE9F84F04006ED02078DFF87C
:101030004C93C007A9F104054AD009F104000168E6
:10104000C1F38101012908D00068C0F381000228A2
:101050000AD1D9F80000400206D52868800337D5A8
:1010600060680028E1D033E06068B0F5803F10D0C0
:10107000B0F5A02F286810D020F4803028602868B0
:1010800020F4802028606068A8B1FFF715FE0646AE
:101090000DE0286840F48030F4E740F480202860B8
:1010A000F7E700BFFFF708FE801B642873D82868A5
:1010B0008003F7D50CE0FFF7FFFD064605E000BF13
:1010C000FFF7FAFD801B6428F0D828688003F7D466
:1010D0002078DFF8AC8280074FF0000A3ED5A748A1
:1010E000001D016811F00C0F08D00068C0F38100EA
:1010F00002280BD1D9F80000400207D428688007E5
:1011000016D5E068012800D112E033E1E068B8B1FB
:101110000120C8F80000FFF7CFFD064605E000BF3C
:10112000FFF7CAFD801B0228C0D828688007F7D5C2
:101130002868216920F0F80040EAC10028600DE02D
:10114000C8F800A0FFF7B8FD064604E0FFF7B4FDBD
:10115000801B02281FD828688007F7D42078000752
:1011600022D5864F87486169703771B101210160CE
:10117000FFF7A2FD064604E0FFF79EFD801B022854
:1011800009D838688007F7D50EE0C0F800A0FFF74F
:1011900093FD064605E082E0FFF78EFD801B0228E6
:1011A0007DD838688007F7D42078400768D5DFF805
:1011B000CCB100270BF13C0BDBF80000C0000BD4D6
:1011C000DBF8001041F08051CBF80010DBF8000094
:1011D000012700F0805000906B4E3068C00510D49D
:1011E000306840F480703060FFF766FD009005E0E5
:1011F000FFF762FD0099401A022850D83068C005F8
:10120000F6D55E4EA0686C3601280FD005283068F0
:1012100010D020F001003060306820F00400306011
:10122000A068B8B1FFF748FD00900FE0306840F0CB
:101230000100F4E740F004003060F7E7FFF73CFD01
:101240000099411A41F28830814266D8306880079F
:10125000F4D50EE0FFF730FD009007E0FFF72CFD1E
:101260000099411A41F28830814256D8306880078F
:10127000F4D42FB1DBF8001021F08051CBF800102E
:10128000A069C8B33D49091D0968C1F3810102295C
:101290004AD00228504607D0C8F8600000E03CE081
:1012A000FFF70AFD04463BE04746C8F86000FFF739
:1012B00003FD064605E000BFFFF7FEFC801B022889
:1012C0002BD828688001F7D4D4E907010843A16A24
:1012D0002E4A490802EB0141626A41EA8211084341
:1012E00094F82C1040EA0161C9F80010012038661A
:1012F000FFF7E2FC044606E03EE000BFFFF7DCFC3F
:10130000001B022809D828688001F7D534E000BF07
:10131000FFF7D2FC001B022802D90320BDE8F88F9A
:1013200028688001F4D427E00128F7D0D9F800001C
:10133000E26900F4800191421CD1226A00F03F0171
:10134000914217D147F6C071626A0140B1EB821F2A
:1013500010D1A26A4FF0FF3300F4403103EB520288
:10136000B1EB024F06D194F82C1000F07060B0EB96
:10137000016F01D00120D1E70020CFE704380240FF
:1013800000004742800E4742007000400000FFFF0F
:1013900070B5040009D0606A002540B1256165611F
:1013A000A56294F8510040B10CE0012070BD606866
:1013B000B0F5827FF4D0E561F2E784F85050204622
:1013C00000F044F8022084F851002068016821F000
:1013D00040010160A088218900F4827001F4044179
:1013E0000843A18901F400610843217C01F0020156
:1013F0000843217D01F001010843218B01F40071B4
:101400000843217F01F03801084394F8201001F0CF
:1014100080010843218D01F40051084321680860D0
:10142000A069042101EA104094F8241001F0100191
:101430000843216848602068C16921F40061C161E6
:101440006565012084F85100002070BD10B586B09C
:10145000044614216846FEF7EBFE144920688842D2
:1014600021D113480021026842F4804202600068E2
:1014700000F4804005900E481038026842F00202E5
:101480000260006800F0020005904FF46040009098
:101490000220CDE901010320039005200490694654
:1014A0000448FFF70DFB06B010BD000000380040F7
:1014B00040380240000402407047704770B590F811
:1014C0003C20012A32D0012480F83C40022280F8DE
:1014D0003D2003685A689D6822F070060A6832430E
:1014E0005A60134B02689A4214D0B2F1804F11D067
:1014F000104B9A420ED0104B9A420BD00F4B9A428F
:1015000008D00F4B9A4205D00E4B9A4202D00E4B98
:101510009A4204D1496825F080031943916080F80C
:101520003D40002180F83C10084670BD022070BD8F
:10153000000001400004004000080040000C004092
:1015400000040140004001400018004010B50400B4
:1015500003D094F83D0010B107E0012010BD002039
:1015600084F83C00204600F01FF8022084F83D007B
:10157000211D206800F0E0FA012084F8460084F87C
:101580003E0084F83F0084F8400084F8410084F86D
:10159000420084F8430084F8440084F8450084F84D
:1015A0003D00002010BD000008B500680B498842CE
:1015B00012D10B48016841F004010160006800226B
:1015C00000F00400009001211E20FFF7FDFBBDE8A4
:1015D00008401E20FFF7EABB08BD000000080040DD
:1015E0004038024090F83D10012901D00120704799
:1015F000022180F83D100168CA6842F00102CA6009
:1016000000681149884214D0B0F1804F11D00F49C1
:1016100088420ED00E4988420BD00E49884208D02D
:101620000D49884205D00D49884202D00C498842B4
:1016300004D1816801F00701062903D0016841F057
:1016400001010160002070470000014000040040DB
:1016500000080040000C0040000401400040014030
:101660000018004070B5044690F83C00012817D0DF
:10167000012584F83C50022084F83D0020688268EF
:1016800022F0770222F47F4282600868502830D02E
:101690000DDC20284DD005DC98B310283BD148E064
:1016A000022070BD302844D0402834D139E0602871
:1016B00028D0702806D0B0F5805F2CD0B0F5005F40
:1016C00029D10AE0CB68D1E90121206800F098FA1D
:1016D0002068816841F0770109E0CB68D1E90121F8
:1016E000206800F08DFA2068816841F480418160B3
:1016F00011E0CA684968206800F094FA5021206817
:1017000007E016E0CA684968206800F09CFA60218A
:10171000206800F07FFA84F83D50002084F83C00F7
:1017200070BDCA684968206800F07CFA40212068D2
:10173000EFE7226801461046EBE7704770B50446B4
:10174000006801694FF00005C943890715D4C168D5
:10175000C943890711D4E91E01610120207720685F
:1017600080698007204602D0FFF7E7FF04E000F021
:1017700098F8204600F096F8257720680169C9435B
:10178000490717D4C168C943490713D46FF004014E
:101790000161022020772068806910F4407F204694
:1017A00002D0FFF7CAFF04E000F07BF8204600F00B
:1017B00079F8257720680169C943090716D4C168FB
:1017C000C943090712D46FF0080101610420207792
:1017D0002068C0698007204602D0FFF7AEFF04E012
:1017E00000F05FF8204600F05DF825772068016979
:1017F000C943C90617D4C168C943C90613D46FF0D9
:1018000010010161082020772068C06910F4407F32
:10181000204602D0FFF791FF04E000F042F8204696
:1018200000F040F8257720680169C943C90708D14D
:10183000C168C943C90704D1891E0161204600F06F
:1018400032F820680169C943090609D4C168C9434F
:10185000090605D46FF0800101612046FFF72CFED8
:1018600020680169C943490609D4C168C9434906CA
:1018700005D46FF040010161204600F01BF820689C
:101880000169C94389060BD4C168C943890607D4D5
:101890006FF0200101612046BDE87040FFF70DBEEA
:1018A00070BD704770470068B0F1804F01D1FFF7FD
:1018B00009BA70477047FEE71FB50021154800912F
:1018C00001910291124A039102604FF48032C0E903
:1018D000012101240161047680F820100E4AC0E93C
:1018E0000A21C461C16080F830104461FEF763FED4
:1018F00008B1FEF7B4FD0720CDE900040290694667
:101900000448FEF7AFFD002801D0FEF7A8FD1FBD7B
:10191000002001402C0000200100000F094808B5FC
:10192000016841F4800101600068002200F4800039
:10193000009011463820FFF747FABDE808403820EC
:10194000FFF734BA3038024030B587B0142168460A
:10195000FEF76EFC1648016841F0800101600168E5
:1019600001F080010591016841F001010160016809
:1019700001F001010591016841F002010160006878
:101980000C4D00F002004FF48054059000222146D7
:101990002846FFF78BF901210220CDE90210CDE99D
:1019A000004169462846FFF78BF807B030BD0000BC
:1019B0003038024000040240104810B50E49016062
:1019C0004FF48271416000218160C1604FF4007268
:1019D0000161C0E905121822C0E907214162816254
:1019E0000A21C162FFF7D4FC002803D0BDE81040F3
:1019F000FEF735BD10BD000000380040D4000020C7
:101A000010B586B000241848009401940294039401
:101A1000049414490594016042F2CF01C0E9011415
:101A200042F20F71C0E9031480218161FFF78EFD3E
:101A300008B1FEF714FD4FF48050009069460A4843
:101A4000FFF710FE08B1FEF70AFD049404A906484A
:101A50000594FFF733FD002801D0FEF700FD06B026
:101A600010BD0000000800402C010020FEE7FEE74A
:101A7000704770477047000030B593B0302168461A
:101A8000FEF7D6FB14210CA8FEF7D2FB1E4800255A
:101A9000016841F080510160006800F080501190B1
:101AA0001A48016841F4804101600068022400F492
:101AB0008040119001200090000401908001CDE948
:101AC0000640192008904FF4A870CDE909040420BD
:101AD0000B906846FFF7A6FA08B172B6FEE70CA9AC
:101AE0000F2081E831004FF4A0500F904FF4805048
:101AF000109005210CA8FFF799F9002801D072B6C3
:101B0000FEE713B030BD00004038024000700040D6
:101B10000248016841F470010160704788ED00E0FF
:101B20000148FFF70BBE0000740100200148FFF7D9
:101B300005BE00002C010020F0B50268254C264DA2
:101B4000264E274F274B4FF0804CA04209D06045CE
:101B500007D0A84205D0B04203D0B84201D0984285
:101B600004D122F0700E4A6842EA0E02A0421BD055
:101B7000604519D0A84217D0B04215D0B84213D052
:101B8000984211D0184DA8420ED0184DA8420BD043
:101B9000174DA84208D0174DA84205D0164DA842AF
:101BA00002D0164DA84203D122F44075CA682A43D8
:101BB0004D6922F080022A4302608A68C2620A6884
:101BC0008262A04201D0984201D1096901630121DA
:101BD0004161F0BD000001400004004000080040E9
:101BE000000C00400004014000400140004401405E
:101BF0000048014000180040001C00400020004048
:101C000010B5846842EA032224F47F440A43224345
:101C1000826010BD826822F070020A4342F0070120
:101C20008160704710B5036A046A24F001040462FD
:101C3000846924F0F00444EA021423F00A020A43FF
:101C40008461026210BD10B5036A23F010030362C1
:101C50008369046A23F4704343EA023224F0A00348
:101C600043EA01118261016210BDFEE70907090E16
:101C7000002804DB00F1E02080F80014704700F039
:101C80000F0000F1E02080F8141D704702E008C842
:101C9000121F08C1002AFAD170477047002001E0E6
:101CA00001C1121F002AFBD170470000FFF712F894
:101CB000FFF7E2FEFFF748FEFFF730FEFFF77CFE7E
:101CC000FFF79EFEFFF7F8FD1448FEF741FD144DA7
:101CD000144C0A211148FEF7E5FC1048FEF768FC99
:101CE00080B200EE100A2880D4ED020AB8EE400A55
:101CF000C4ED030A84ED020A94ED001A30EE600A86
:101D000084ED011AD4ED040A20EE200A00EE810AC7
:101D100084ED000A85ED010ADBE700002C000020BD
:101D20000000002018000020000610160006101603
:101D3000000000000000000001020304060708097B
:101D40000000000001020304681D000800000020DC
:101D5000180000008C1C0008801D000818000020DE
:101D6000A80500009C1C0008000000000000000006
:101D70000100000010000000000000000024F4003A
:040000050800018965
:00000001FF
