:020000040800F2
:10000000581700209D0100083727000863240008C6
:10001000352700080D090008A52A00080000000087
:100020000000000000000000000000003B27000866
:10003000D909000800000000392700083D27000802
:10004000B7010008B7010008B7010008B7010008B0
:10005000B7010008B7010008B7010008B7010008A0
:10006000B7010008B7010008B7010008B701000890
:10007000B7010008B7010008B7010008B701000880
:10008000B7010008B7010008D9070008B701000848
:10009000B7010008B7010008B7010008B701000860
:1000A000B7010008B7010008B7010008B701000850
:1000B000E9270008B7010008F5270008B701000884
:1000C000B7010008B7010008B7010008B701000830
:1000D000B7010008B7010008B7010008B701000820
:1000E000B7010008B7010008B7010008B701000810
:1000F000B7010008B7010008B7010008B701000800
:10010000B7010008B7010008B7010008B7010008EF
:10011000B7010008B7010008B7010008B7010008DF
:1001200011090008B70100081D090008B7010008FF
:10013000B7010008B7010008B7010008B7010008BF
:10014000B7010008B7010008B7010008B7010008AF
:10015000B7010008B701000829090008B701000825
:10016000B7010008B7010008B7010008B70100088F
:10017000B7010008B7010008B7010008000000003F
:10018000B7010008B7010008DFF80CD000F05CFAF6
:10019000004800478534000858170020064880476B
:1001A00006480047FEE7FEE7FEE7FEE7FEE7FEE75C
:1001B000FEE7FEE7FEE7FEE7D92700088901000811
:1001C0002DE9F05F0546002092469B46884606468C
:1001D000814640241BE0284641464746224600F01F
:1001E0006AF853465A46C01A914110D31146184630
:1001F000224600F016F82D1A67EB01084F462246FA
:100200000120002100F00DF817EB00094E41201EDF
:10021000A4F10104DFDC484631462A464346BDE8E6
:10022000F09F202A04DB203A00FA02F100207047F8
:100230009140C2F1200320FA03F319439040704724
:10024000D2B201E000F8012B491EFBD27047002218
:10025000F6E710B513460A4604461946FFF7F0FFC5
:10026000204610BD00F0004230F000400AD0C10D21
:1002700001F56071C0F3160042EA0151C20840075F
:100280001143704700200146704730B50B460146C8
:1002900000202022012409E021FA02F59D4205D325
:1002A00003FA02F5491B04FA02F52844151EA2F1CF
:1002B0000102F1DC30BD202A04DB203A21FA02F0F1
:1002C0000021704721FA02F3D040C2F12002914090
:1002D0000843194670472DE9FE4F804681EA030026
:1002E000C00F0C46009021F0004123F00045B8EB10
:1002F0000200A94105D24046214690461C460B46C5
:10030000024623F00040104347D0270DC7F30A00F0
:10031000C3F30A510290401A019040286BDAC3F3EC
:10032000130040F4801B0098924620B10023D2EBCA
:10033000030A63EB0B0B01985946C0F1400250468B
:10034000FFF76FFF06460D4650465946019A00F0EA
:100350008DF910EB08006141002487EA115284EA0C
:10036000E7731A4340D0009A62B3019A012A4FEA18
:10037000075215DC001B61EB02014FF0004202EA5C
:100380000752CDE90042001C41F5801132462B4650
:1003900000F08DF903B0BDE8F08F40462146F9E743
:1003A000001B61EB0201001C41F5801300185B414A
:1003B0002018A2F5001747EB030140EAD570B619E3
:1003C0006D4111E06D084FEA360645EAC0754FEA07
:1003D0000752001B61EB0201001C41F58011490826
:1003E0004FEA30000019514132462B4603B0BDE8B8
:1003F000F04F00F04DB90098012240000023D0EBEF
:10040000020263EBE073009821464FEAE074B8EB18
:10041000000061EB0401E9E783F000435BE781F052
:10042000004158E72DE9FE4F81EA030404F000443F
:1004300021F0004100944FF0000B23F0004350EAFC
:1004400001045ED052EA03045BD0C3F30A54C1F343
:100450000A552C44A4F2F3340194A0FB0254C1F3D6
:10046000130141F48011C3F3130343F4801301FB20
:10047000024400FB034E840A970A44EA815447EA87
:100480008357A4FB076802958D0A05FB07854FEA91
:10049000932C04FB0C542705029D4FEA065847EAAB
:1004A0001637B5EB08056EEB070C870E920E47EA80
:1004B000811742EA8312A7FB0201B6EB0B0164EB42
:1004C00000042B0D43EA0C335E1844EB1C50DA4653
:1004D0005146E7FB0201C5F313044FEA0B3343EA2D
:1004E00014534FEA0432019C43EA0603A4F10C04BE
:1004F0000294009CCDE900B400F0D9F803B0BDE847
:10050000F08F00200146F9E72DE9F04D81EA030460
:1005100004F0004B21F0004514464FF0000A23F090
:10052000004150EA050220D054EA01021DD0C5F373
:100530000A570246C5F31303C1F31300C1F30A5669
:1005400040F4801543F48013A7EB0608101BD64631
:1005500008F2FD3873EB050002D308F1010801E051
:1005600092185B41B8F1000F03DA00200146BDE8A4
:10057000F08D00204FF48011064684460EE0171BD4
:1005800073EB050705D3121B63EB050306434CEA27
:10059000010C49084FEA300092185B4150EA01070C
:1005A000EDD152EA030012D082EA040083EA050189
:1005B000084305D0101BAB4106D20122002306E000
:1005C00000224FF0004302E06FF0010253101AEBDB
:1005D00006004CEB085110EB0A0041EB0B01BDE8A3
:1005E000F04D00F055B8C1F30A52C1F3130140F2C7
:1005F000FF3341F480119A4202DA0020014670472D
:1006000040F233439A42A2F2334202DC5242FFF7F5
:1006100052BEFFF706BE000030B5041E71F10004A3
:1006200004DB4FF00044404264EB0101141E73F1FF
:10063000000405DB1C464FF00043524263EB040309
:10064000994208BF904230BD064C074D06E0E06875
:1006500040F0010394E8070098471034AC42F6D309
:10066000FFF796FD70BD000890BD0008202A06DB4C
:10067000CB17203A41FA02F043EAE07306E041FA70
:1006800002F3D040C2F1200291400843194670475E
:1006900010B5141E73F1000408DA401C41F100018A
:1006A00092185B411A4301D120F0010010BD2DE9E1
:1006B000F04D92469B4611B1B1FA81F202E0B0FAD8
:1006C00080F220329046FFF7ACFD04460F4640EA28
:1006D0000A0041EA0B0153465A46084313D011461B
:1006E00053EA010019D0C8F140025046FFF7E3FD7C
:1006F00005460E46504659464246FFF792FD0843CE
:1007000005D0012004E020463946BDE8F08D0020E8
:10071000054346EAE0762C4337430A986305E40A2A
:10072000A0EB08000022FD0A44EA47540A3002D533
:1007300000200146E9E7010510196941DDE9084596
:1007400000196941BDE8F04DA2E710B50146806B84
:10075000026C12F0500F05D0026CD20626D500F0C4
:1007600004FA10BD016C41F40071016401688A68EB
:1007700012F0405F17D1027EAAB9CA6A12F4700F54
:1007800002D08A6852050ED44A6822F020024A60DC
:10079000016C21F480710164016CC90403D4016C03
:1007A00041F00101016400F0C1F910BD806BC26C21
:1007B000BDE810400846104710B5806B4021016429
:1007C000416C41F00401416400F0CFF910BD10B557
:1007D000806B00F0C9F910BD014800F0C7B90000F6
:1007E00034040020464910B54A6822F440324A6079
:1007F0004A6843681A434A6001684A6822F4807272
:100800004A6001684A68036942EA03224A60016853
:100810004A6822F040724A6001684A6883681A4355
:100820004A6001688A6822F400628A6001688A6806
:10083000C3681A438A60816A6FF07062D1420168AE
:100840008A6822F070628A6001688A680CD0836AC4
:100850001A438A6001688A6822F040528A600168FF
:100860008A68C36A1A4301E022F040528A60016834
:100870008A6822F002028A6001688A68037E42EA7E
:1008800043028A6090F82010002901684A680FD05E
:1008900042F400624A6001684A6822F460424A6099
:1008A00001684A68174C436A04EB43331A4301E07A
:1008B00022F400624A600168CA6A22F47002CA62C5
:1008C0000168CA6A838B104C04EB03531A43CA6253
:1008D00001688A6822F400728A6001688A6890F868
:1008E000303042EA43228A6001688A6822F48062DA
:1008F0008A6001688A68406942EA8020886010BD89
:100900000023014000E0FFFF0000F0FFFEE70000D1
:10091000014800F0EFBB00007C040020014800F01B
:10092000E9BB00004C060020014800F0E3BB0000DA
:10093000AC06002001681823CAB2103AB2FBF3F2E9
:10094000054B6FF30901032A9B5CC36500D9091DA0
:1009500081650846704700005035000810B5014613
:1009600000208B698A6A4FF0C07453B1B3F5005F01
:1009700015D072B1012A0CD0022A0AD0032A09D15B
:1009800004E01AB1012A06D0022A03D1C96AC901BA
:1009900000D5012010BDC96AA142FAD010BD002ABD
:1009A000F7D0012AF2D0022AF3D0032AF3D010BDE7
:1009B00030B50468256825F48025256004686360E7
:1009C0008368402B036803D099600068C26030BD23
:1009D0009A600068C16030BD704772B6FEE770472C
:1009E00078B50024009490F83C20012A19D0012207
:1009F00080F83C200A6807230568092A13D9EE68A5
:100A00000A3A02EB420293409E43EE600B788A68FA
:100A10000A3B03EB43039A400368DD682A43DA602C
:100A200010E0022078BD2E6902EB420293409E4303
:100A30002E610B788A6803EB43039A4003681D69B3
:100A40002A431A614A681F23072A13D205686E6B6E
:100A5000521E02EB820293409E436E630B790A881A
:100A60005B1E92B203EB83039A4003685D6B2A43DB
:100A70005A6327E005680D2A12D22E6BD21F02EBB3
:100A8000820293409E432E630B790A88DB1F92B249
:100A900003EB83039A4003681D6B2A431A6311E03A
:100AA000EE6A0D3A02EB820293409E43EE620B79AE
:100AB0000A880D3B92B203EB83039A400368DD6A18
:100AC0002A43DA62164B0568144A9D4206D10D6826
:100AD000122D03D1556845F48005556005689D4287
:100AE00018D10B68102B01D0112B13D1536843F48C
:100AF00000035360096810290CD10A490A4A0968A1
:100B0000B1FBF2F101EB8101490000E0491E0091C7
:100B10000029FBD180F83C40002078BD0023014033
:100B2000002001402000002040420F0010B50C4C76
:100B3000A068E06000F04CFD00EB4001C1EBC0108C
:100B40004FF08041496A01EBC000A060E168401AA3
:100B5000206101202070BDE81040024800F04CBA2E
:100B600000000020340400207047704770B5044630
:100B7000006801684268C1F34001C2F3401251B3FA
:100B80004AB3216CC90603D4216C41F4007121647D
:100B9000816811F0405F17D1217EA9B9C16A11F4B3
:100BA000700F02D0816849050ED4416821F0200100
:100BB0004160206C20F480702064206CC00403D459
:100BC000206C40F0010020642046FFF7AFFF216851
:100BD0006FF012000860206801684268C1F380016C
:100BE000C2F3C01289B382B3216CC90603D4216C4D
:100BF00041F400512164816811F4401F1ED1816BC2
:100C000011F4401F02D08168490517D44168490595
:100C100014D4816811F0405F10D1217E71B9416810
:100C200021F080014160206C20F480502064206C11
:100C3000C00503D4206C40F0010020642046FFF77B
:100C4000CEFE21686FF00C000860206801684268E1
:100C500011F0010FC2F380120ED06AB10068C00714
:100C60000AD0206C40F480302064204600F046F822
:100C700021686FF001000860206801684268C1F3D4
:100C80004011C2F3806200290DD0002A0BD0616CA4
:100C900041F0020161646FF0200505602046FFF716
:100CA00064FF2068056070BD70B504004FF000055A
:100CB00003D0206C002610B107E0012070BD204653
:100CC00000F01EF8666484F83C60206CC00610D406
:100CD000206C20F4885040F0020020642046FFF78A
:100CE00081FD6664206C20F0020040F00100206469
:100CF00000E0012584F83C60284670BD7047000084
:100D000070B586B0064614216846FFF7A0FA21495F
:100D1000306888423CD120480025016841F4807148
:100D20000160006800F4807005901B481438016869
:100D300041F0010101600068694600F00100059082
:100D4000802000900320CDE90105144800F044FB09
:100D5000144C1348C4E900050015A560C4E903500C
:100D6000800060618000A0618011C4E90705204611
:100D7000656200F08FFA08B1FFF72FFEB46300221E
:100D800011461220A66300F0ABFC122000F09AFC82
:100D900006B070BD0020014044380240000002400F
:100DA000106402407C04002018B50021009190F8E6
:100DB0003C20012A07D0012280F83C200268936879
:100DC000DB0702D011E0022018BD936843F0010355
:100DD00093602E4A2E4B1268B2FBF3F202EB4202F2
:100DE00000E0521E0092002AFBD102689368DB07E4
:100DF00042D0036C40F20164A34343F48073036464
:100E000053685B0505D5036C23F4005343F480530A
:100E10000364036CDB0404D5436C23F006034364D2
:100E200000E0416480F83C101A496FF0220313601F
:100E300049680068CA06184906D0884224D18168EA
:100E400011F0405F13D01FE08842F8D0134A90425F
:100E500003D1D1F80423D206F1D0114A904213D124
:100E6000D1F8041301F01F011029E8D30CE08168C8
:100E700041F08041816007E0016C41F010010164A4
:100E8000416C41F001014164002018BD20000020A8
:100E900040420F000023014000200140002101409A
:100EA00000220140F8B5044600200E46009094F858
:100EB0003C10012907D0012184F83C1021688B687F
:100EC000DB0702D011E00220F8BD8B6843F001037C
:100ED0008B604049404B0968B1FBF3F101EB4101E4
:100EE00000E0491E00910029FBD121688B68DB05D9
:100EF00003D58B6823F480738B6021688B68DB07D4
:100F00005DD0236C40F20165AB4343F480732364EE
:100F10004968490505D5216C21F4005141F48051FF
:100F20002164216CC90404D5616C21F0060161645F
:100F300000E0606484F83C00A16B2948274DC86339
:100F4000A16B28480864A16B2748C86421686FF02A
:100F5000220008602068416841F08061416020689B
:100F6000816841F4807181602168134632464C31BA
:100F7000A06B00F0F9F968681C49C006206806D02B
:100F8000884224D1816811F0405F13D01FE088426D
:100F9000F8D0174A904203D1D1F80423D206F1D0F9
:100FA000144A904213D1D1F8041301F01F01102903
:100FB000E8D30CE0816841F08041816007E0206C5B
:100FC00040F010002064606C40F00100606400207C
:100FD000F8BD00002000002040420F000023014027
:100FE0004B070008CF070008B907000800200140A0
:100FF000002101400022014010B50446002094F871
:101000003C1001290CD0012184F83C1021688A6829
:1010100022F001028A6021688A68D20702D01DE0AE
:10102000022010BD8A6822F480728A60A16B91F858
:101030003520022A07D1084600F014F818B1216CB7
:1010400041F04001216421684A6822F080624A60D0
:10105000216C21F4885141F001012164002184F8C0
:101060003C1010BD2DE9F0410446876D00F0B0FA48
:10107000064694F835000025022806D080206065D9
:1010800084F834500120BDE8F0812068016821F027
:10109000160101602068416921F080014161206CE6
:1010A00008B9A06C20B12068016821F00801016036
:1010B0002068016821F0010101600BE000F088FA6E
:1010C000801B052806D92020606504F8345F0320C2
:1010D0006070D8E720680068C007EFD194F85C1012
:1010E0003F208840B86004F8345F01206070002021
:1010F000C9E700002DE9F84304464FF00009CDF898
:10110000009063484FF41651A56D0068B0FBF1F7ED
:101110002E6894F85C10082000FA01F131420FD0DB
:1011200021680A6852070BD50A6822F004020A6097
:1011300094F85C108840A860606D40F00100606524
:1011400094F85C104FF0010808FA01F0304208D022
:1011500021684969090604D5A860606D40F0020065
:10116000606594F85C1004208840304208D0216803
:101170000968890704D5A860606D40F004006065C7
:1011800094F85C1010208840304218D0216809681B
:10119000090714D5A86020680168490304D50068D0
:1011A000000308D5A16C07E00168C90503D40168F4
:1011B00021F008010160216C09B12046884794F8AC
:1011C0005C1020208840304231D021680968C9066F
:1011D0002DD5A86094F8350005282068016806D050
:1011E000490347D5006800031DD4616C1CE021F061
:1011F000160101602068416921F080014161206C85
:1012000008B9A06C20B12068016821F008010160D4
:1012100094F85C103F208840A86084F8349084F8EB
:101220003580216D1FE0E16B09B120468847606D74
:1012300000282BD0606DC00714D0052084F835003D
:101240002068016821F0010101600098401C0090B5
:10125000B84203D820680068C007F6D184F83490FB
:1012600084F83580E16C002910D001B02046BDE83B
:10127000F04308470168C905D5D4016821F0100181
:10128000016084F8349084F83580CCE7BDE8F883B9
:10129000200000202DE9F041044600F099F90646AF
:1012A0005CB1002584F83450022084F835002068B1
:1012B000016821F0010101600DE00120BDE8F0812D
:1012C00000F086F9801B052805D9202060650320E1
:1012D00084F83500F2E720680068C007F0D1226882
:1012E000116820480140D4E901031843D4E90336CA
:1012F0003343184363691843A3691843E3691843E8
:10130000236A18430843616A042903D1D4E90B1303
:1013100019430843106020684069666A20F007019D
:1013200030460E43012704280CD1A06A0643E06A28
:1013300040B12046FFF712FB20B14020606584F8E1
:101340003570BAE7206846612046FFF7F3FA94F853
:101350005C203F2191408160656584F835700020F4
:10136000ACE700003F8010F02DE9F0410446866DA7
:1013700090F83400002501280DD0012084F83400B5
:1013800094F835700020012F07D084F8340002252E
:101390002846BDE8F0810220FBE7022784F835707B
:1013A00060652046FFF704FB94F85C103F208840FE
:1013B000B0602068016841F016010160206C20B126
:1013C0002068016841F0080101602068016841F06F
:1013D00001010160DCE700002DE9F84FDFF8B8A15A
:1013E000002201250AF1040B03264FF00F090BF12F
:1013F000040E00BF0B6805FA02F42340A3426FD12C
:101400000F7907F00307012F01D0022F16D187684B
:101410004FEA420806FA08FC27EA0C07D1F80CC08C
:101420000CFA08FC4CEA070CC0F808C04768A74350
:101430000C79C4F3001494403C4344600C79E443B9
:10144000A4070AD0C4684FEA420C06FA0CF7BC4362
:101450008F6807FA0CF72743C7600C7904F0030480
:10146000022C12D1D40800EB840CDCF82040570782
:10147000FF0E09FA07F824EA0804D1F8108008FAE8
:1014800007F848EA0408CCF8208004684FEA420CC8
:1014900006FA0CF7BC430F7907F0030707FA0CF7BD
:1014A000274307604C68E40070D53C4C276847F43C
:1014B00080472760246822F0030704F480440094E6
:1014C000374C07EB040CDCF8084897074FEA17780D
:1014D00009FA08F7BC43334FB84202D1002724E091
:1014E00054E0314FB84201D101271EE02F4FB842DE
:1014F00001D1022719E02E4FB84201D1032714E091
:101500002C4FB84201D104270FE02B4FB84201D134
:1015100005270AE0294FB84201D1062705E0284FE8
:10152000B84201D1072700E0082707FA08F7274348
:10153000CCF80878DAF800405746D1F804C09C434C
:101540005FEACC3C00D51C433C60DBF800405F46C2
:10155000D1F804C09C435FEA8C3C00D51C433C603E
:10156000DEF800407746D1F804C09C435FEACC2CFB
:1015700000D51C433C60084F0C373C68D1F804C0D0
:101580009C435FEA8C2C00D51C433C60521C102A03
:10159000FFF430AFBDE8F88F003C01404438024012
:1015A00000300140000002400004024000080240F8
:1015B000000C0240001002400014024000180240DB
:1015C000001C02400AB1816170470904FBE700007A
:1015D00001488068704700001400002002488168BC
:1015E0000278114481607047140000200B4810B548
:1015F000016841F400710160016841F4806101609B
:10160000016841F480710160032000F089F8002036
:1016100000F006F800F03EF8002010BD003C02404B
:1016200010B5014688B000221C2000F059F81C209B
:1016300000F048F814480024016841F001010160FD
:10164000006805A900F001000690684600F014F952
:1016500000F032F90D494000B0FBF1F10C484FF0B9
:101660008042491E026040F2E732C0E90324C0E92B
:10167000011400F007FC10B1012008B010BD0448AF
:1016800000F058FCF9E700004038024040420F00EB
:101690000C0700200A4808B5016841F48041016048
:1016A000006800F4804000900548001F016841F088
:1016B00080510160006800F08050009008BD00007B
:1016C00044380240002809DB00F01F02012191404C
:1016D0004009800000F1E020C0F8001170470000D0
:1016E000F0B40E4B1B680C46C3F30223C3F107058D
:1016F000042D00D90425191D072901D2002300E07B
:10170000DB1E012606FA05F1491E214099409E4044
:10171000761E16403143F0BC01F0D6B90CED00E066
:10172000064900F0070208684FF6FF03184040EA38
:101730000220034A10430860704700000CED00E0EF
:101740000000FA052DE9F0470E46050065D0DFF8E8
:101750001481D8F80000F7B200F00700B04207D2B9
:1017600088F80070D8F8000000F00700B04254D1AB
:1017700028683D4C810712D5400703D5206840F406
:10178000E05020602878000703D5206840F46040CE
:1017900020602068A96820F0F000084320602878C5
:1017A000C0072DD0304968680839012812D00228B6
:1017B00013D0032811D00968890700292DDA216880
:1017C00021F0030101432160FFF702FF814641F24E
:1017D000883A0EE009688903EFE709688901ECE7B8
:1017E000FFF7F6FEA0EB0901514502D90320BDE841
:1017F000F0872068696800F00C00B0EB810FEFD132
:10180000D8F80010404601F00701B14207D907702F
:10181000006800F00700B04201D00120E7E7287817
:10182000400705D52068E96820F4E05008432060AF
:101830002878000706D52068296920F4604040EA2E
:10184000C100206000F058F82168084AC1F3031174
:10185000515CC8400649086006480068FFF7E0FE92
:101860000020C4E7003C0240083802405835000818
:1018700020000020180000200F2202600C4A13688C
:1018800003F003034360136803F0F00383601368FD
:1018900003F4E053C36012684FF4E05303EAD2024A
:1018A00002610448006800F007000860704700000B
:1018B00008380240003C02400448054900680968B5
:1018C000044AC1F38221515CC840704720000020C7
:1018D000083802406835000804480549006809686E
:1018E000044AC1F34231515CC840704720000020D7
:1018F0000838024068350008154810B5006810F037
:101900000C02144813D01449042A0FD0082A0ED10F
:101910000F4C241F2268236802F03F025B0207D5A8
:101920002068C0F38810A0FB010106E0084610BD46
:101930002168C1F38811A1FB00010023FEF740FCE0
:101940002168C1F30141491C4900B0FBF1F010BD11
:10195000083802400024F40040787D012DE9F84F5A
:1019600004006ED02078DFF84C93C007A9F104057D
:101970004AD009F104000168C1F38101012908D0AE
:101980000068C0F3810002280AD1D9F800004002A3
:1019900006D52868800337D560680028E1D033E099
:1019A0006068B0F5803F10D0B0F5A02F286810D047
:1019B00020F480302860286820F480202860606847
:1019C000A8B1FFF705FE06460DE0286840F4803018
:1019D000F4E740F480202860F7E700BFFFF7F8FD48
:1019E000801B642873D828688003F7D50CE0FFF7C4
:1019F000EFFD064605E000BFFFF7EAFD801B642807
:101A0000F0D828688003F7D42078DFF8AC8280070C
:101A10004FF0000A3ED5A748001D016811F00C0FD9
:101A200008D00068C0F3810002280BD1D9F800006B
:101A3000400207D42868800716D5E068012800D145
:101A400012E033E1E068B8B10120C8F80000FFF708
:101A5000BFFD064605E000BFFFF7BAFD801B022868
:101A6000C0D828688007F7D52868216920F0F800D9
:101A700040EAC10028600DE0C8F800A0FFF7A8FD0B
:101A8000064604E0FFF7A4FD801B02281FD8286843
:101A90008007F7D42078000722D5864F87486169F0
:101AA000703771B101210160FFF792FD064604E035
:101AB000FFF78EFD801B022809D838688007F7D50C
:101AC0000EE0C0F800A0FFF783FD064605E082E0C7
:101AD000FFF77EFD801B02287DD838688007F7D489
:101AE0002078400768D5DFF8CCB100270BF13C0B1C
:101AF000DBF80000C0000BD4DBF8001041F080518F
:101B0000CBF80010DBF80000012700F080500090B7
:101B10006B4E3068C00510D4306840F4807030607F
:101B2000FFF756FD009005E0FFF752FD0099401ABF
:101B3000022850D83068C005F6D55E4EA0686C36D5
:101B400001280FD00528306810D020F00100306047
:101B5000306820F004003060A068B8B1FFF738FDAD
:101B600000900FE0306840F00100F4E740F004001E
:101B70003060F7E7FFF72CFD0099411A41F28830F9
:101B8000814266D830688007F4D50EE0FFF720FD6B
:101B9000009007E0FFF71CFD0099411A41F28830E0
:101BA000814256D830688007F4D42FB1DBF800109A
:101BB00021F08051CBF80010A069C8B33D49091D40
:101BC0000968C1F3810102294AD00228504607D092
:101BD000C8F8600000E03CE0FFF7FAFC04463BE098
:101BE0004746C8F86000FFF7F3FC064605E000BF73
:101BF000FFF7EEFC801B02282BD828688001F7D461
:101C0000D4E907010843A16A2E4A490802EB0141C1
:101C1000626A41EA8211084394F82C1040EA01619B
:101C2000C9F8001001203866FFF7D2FC044606E030
:101C30003EE000BFFFF7CCFC001B022809D8286853
:101C40008001F7D534E000BFFFF7C2FC001B02287B
:101C500002D90320BDE8F88F28688001F4D427E07A
:101C60000128F7D0D9F80000E26900F48001914220
:101C70001CD1226A00F03F01914217D147F6C07192
:101C8000626A0140B1EB821F10D1A26A4FF0FF33AC
:101C900000F4403103EB5202B1EB024F06D194F84D
:101CA0002C1000F07060B0EB016F01D00120D1E783
:101CB0000020CFE70438024000004742800E474230
:101CC000007000400000FFFF70B5040009D0606A9A
:101CD000002540B125616561A56294F8510040B1CD
:101CE0000CE0012070BD6068B0F5827FF4D0E56142
:101CF000F2E784F85050204600F044F8022084F8BF
:101D000051002068016821F040010160A08821890C
:101D100000F4827001F404410843A18901F40061D8
:101D20000843217C01F002010843217D01F00101FB
:101D30000843218B01F400710843217F01F0380131
:101D4000084394F8201001F080010843218D01F42C
:101D50000051084321680860A069042101EA10408D
:101D600094F8241001F010010843216848602068AD
:101D7000C16921F40061C1616565012084F85100E9
:101D8000002070BD10B586B0044614216846FEF7E9
:101D90005EFA14492068884221D113480021026864
:101DA00042F480420260006800F4804005900E48D2
:101DB0001038026842F002020260006800F002007F
:101DC00005904FF4604000900220CDE9010103200E
:101DD00003900520049069460448FFF7FDFA06B019
:101DE00010BD0000003800404038024000040240AE
:101DF0007047704770B590F83C20012A32D001241A
:101E000080F83C40022280F83D2003685A689D68B3
:101E100022F070060A6832435A60134B02689A42F5
:101E200014D0B2F1804F11D0104B9A420ED0104B0B
:101E30009A420BD00F4B9A4208D00F4B9A4205D0D2
:101E40000E4B9A4202D00E4B9A4204D1496825F0BB
:101E500080031943916080F83D40002180F83C10D8
:101E6000084670BD022070BD000001400004004023
:101E700000080040000C0040000401400040014008
:101E80000018004010B5040003D094F83D0010B1D4
:101E900007E0012010BD002084F83C00204600F03F
:101EA0001FF8022084F83D00211D206800F0A8FCE6
:101EB000012084F8460084F83E0084F83F0084F84E
:101EC000400084F8410084F8420084F8430084F81C
:101ED000440084F8450084F83D00002010BD000057
:101EE00008B5114A01681148914208D1016841F0D2
:101EF00002010160006800F00200009008BD0C4A79
:101F00009142FBD1016841F00401016000680022A8
:101F100000F00400009001211E20FFF7E1FBBDE866
:101F200008401E20FFF7CEBB0004004040380240AE
:101F30000008004090F83D10012901D001207047B1
:101F4000022180F83D100168CA6842F00102CA60AF
:101F500000681149884214D0B0F1804F11D00F4968
:101F600088420ED00E4988420BD00E49884208D0D4
:101F70000D49884205D00D49884202D00C4988425B
:101F800004D1816801F00701062903D0016841F0FE
:101F90000101016000207047000001400004004082
:101FA00000080040000C00400004014000400140D7
:101FB0000018004070B5044690F83C00012817D086
:101FC000012584F83C50022084F83D002068826896
:101FD00022F0770222F47F4282600868502830D0D5
:101FE0000DDC20284DD005DC98B310283BD148E00B
:101FF000022070BD302844D0402834D139E0602818
:1020000028D0702806D0B0F5805F2CD0B0F5005FE6
:1020100029D10AE0CB68D1E90121206800F054FC05
:102020002068816841F0770109E0CB68D1E901219E
:10203000206800F049FC2068816841F4804181609B
:1020400011E0CA684968206800F050FC50212068FF
:1020500007E016E0CA684968206800F058FC602173
:10206000206800F03BFC84F83D50002084F83C00E0
:1020700070BDCA684968206800F038FC40212068BB
:10208000EFE7226801461046EBE7704770B504465B
:10209000006801694FF00005C943890715D4C1687C
:1020A000C943890711D4E91E016101202077206806
:1020B00080698007204602D0FFF7E7FF04E000F0C8
:1020C00098F8204600F096F8257720680169C94302
:1020D000490717D4C168C943490713D46FF00401F5
:1020E0000161022020772068806910F4407F20463B
:1020F00002D0FFF7CAFF04E000F07BF8204600F0B2
:1021000079F8257720680169C943090716D4C168A1
:10211000C943090712D46FF0080101610420207738
:102120002068C0698007204602D0FFF7AEFF04E0B8
:1021300000F05FF8204600F05DF82577206801691F
:10214000C943C90617D4C168C943C90613D46FF07F
:1021500010010161082020772068C06910F4407FD9
:10216000204602D0FFF791FF04E000F042F820463D
:1021700000F040F8257720680169C943C90708D1F4
:10218000C168C943C90704D1891E0161204600F016
:1021900032F820680169C943090609D4C168C943F6
:1021A000090605D46FF0800101612046FFF720FE8B
:1021B00020680169C943490609D4C168C943490671
:1021C00005D46FF040010161204600F01BF8206843
:1021D0000169C94389060BD4C168C943890607D47C
:1021E0006FF0200101612046BDE87040FFF701BE9D
:1021F00070BD704770470068B0F1804F01D1FFF7A4
:10220000EDB97047704770B5040004D094F83D00F4
:10221000002510B106E0012070BD84F83C50204636
:1022200000F022F8242084F83D002068C16821F4E1
:102230000051C160204600F07DFB2068016921F457
:10224000904101612068416921F02A0141612068C3
:10225000C16841F40051C1602564202084F83D002C
:1022600084F83E00002070BD2DE9F04186B006469E
:1022700014216846FDF7EBFF454A316845480225C1
:1022800003270024914232D1424910310A6842F4B6
:1022900080120A60096801F480110591016841F01B
:1022A00004010160016801F004010591016841F039
:1022B000080101600068012400F008000590E802B0
:1022C000CDE90005CDE90247082669460496324863
:1022D000FFF782F80420CDE90005CDE90247694601
:1022E00004962E48FFF778F806B0BDE8F0812C4A36
:1022F0009142F9D1274914310A6842F010020A606C
:10230000096801F010010591016841F001010160C7
:102310000068029400F0010005904FF4C060CDE920
:1023200000050720CDE9037069461E48FFF754F801
:102330001E4D1D484FF000682860C5E9018407154F
:10234000C5E9034780156C61C5E906402C62284643
:102350006C62FEF79FFF08B1FEF73FFBB563AE630B
:10236000124D114860357830E5E80208402091C5EB
:102370000E4845F814496030AC61EC612C626C6227
:10238000FEF788FF08B1FEF728FB7563AE63ABE785
:10239000005000403038024000080240000C02406B
:1023A0000010014000000240406402404C06002042
:1023B0002DE9F843044690F83D001F4616460D46A9
:1023C00020284CD1C5B1BEB194F83C00012846D0BC
:1023D000012084F83C004FF00008C4F84080212020
:1023E00084F83D00FFF7F4F8A6848146E684A068EF
:1023F000B0F5805F03D004E00120BDE8F8832069D8
:1024000028B12E465FF0000584F83C800EE00026DF
:10241000FAE78021204600F013FBA0B9AEB116F810
:10242000010B21684860E08C401EE084E08C4B4644
:102430004FF0000200970028EBD14FF040012046FA
:1024400000F0FEFA30B10320D7E735F8020BC0F3F5
:102450000800E6E7202084F83D000020CDE70220B8
:10246000CBE7FEE71FB500211648009101910291CC
:10247000134A039102604FF48032C0E901210161E7
:10248000017680F820101203C26201245210C46148
:102490008262C16080F830404461FEF705FC08B1FB
:1024A000FEF79BFA0720CDE9000402906946054833
:1024B000FEF796FA002801D0FEF78FFA1FBD000044
:1024C0000020014034040020114808B5016841F49F
:1024D000800101600068002200F480000090114635
:1024E0003820FFF7FDF83820FFF7ECF800221146FE
:1024F0003A20FFF7F5F83A20FFF7E4F800221146FA
:102500004620FFF7EDF8BDE808404620FFF7DAB8AF
:102510003038024030B587B014216846FDF797FE89
:102520001E48016841F080010160016801F08001EE
:102530000591016841F001010160016801F00101AC
:102540000591016841F002010160016801F002019A
:102550000591016841F004010160016801F0040186
:102560000591016841F00801016000680C4D00F020
:1025700008004FF480540590002221462846FFF7BA
:1025800021F801210220CDE90210CDE90041694680
:102590002846FEF721FF07B030BD0000303802406A
:1025A00000040240104810B50E4901604FF48271DA
:1025B000416000218160C1604FF400720161C0E997
:1025C00005121822C0E90721416281620A21C16215
:1025D000FFF77AFB002803D0BDE81040FEF7FDB9F5
:1025E00010BD000000380040DC04002010B586B0AB
:1025F000002418480094019402940394049414490C
:10260000059401605321C0E901146321C0E903145A
:1026100080218161FFF736FC08B1FEF7DEF94FF447
:102620008050009069460B48FFF7C4FC08B1FEF7E4
:10263000D4F92020CDE9040404A90648FFF7DAFB09
:1026400008B1FEF7CAF90348FFF774FC06B010BDE5
:10265000000400403405002010B586B0002418485E
:102660000094019402940394049414490594016025
:1026700042F2CF01C0E9011441F26F71C0E90314C5
:1026800080218161FFF7FEFB08B1FEF7A6F94FF448
:102690008050009069460A48FFF78CFC08B1FEF7AD
:1026A0009CF9049404A906480594FFF7A3FB0028AD
:1026B00001D0FEF792F906B010BD000000080040FE
:1026C0007C0500200C4810B50A4901604FF4E13147
:1026D0004160002181600C22C160C0E90412816167
:1026E000C161FFF790FD002803D0BDE81040FEF760
:1026F00074B910BD00500040C40500200C4810B54E
:102700000A4901604FF4E1314160002181600C22EF
:10271000C160C0E904128161C161FFF774FD002846
:1027200003D0BDE81040FEF758B910BD00100140BD
:1027300008060020FEE7FEE770477047704700007C
:1027400030B593B030216846FDF781FD14210CA807
:10275000FDF77DFD1E480025016841F080510160B4
:10276000006800F0805011901A48016841F48041DF
:1027700001600068022400F4804011900120009064
:10278000000401908001CDE90640192008904FF423
:10279000A870CDE9090404200B906846FFF7DEF825
:1027A00008B172B6FEE70CA90F2081E831004FF4A2
:1027B000A0500F904FF48050109005210CA8FEF708
:1027C000C1FF002801D072B6FEE713B030BD000093
:1027D00040380240007000400248016841F4700136
:1027E0000160704788ED00E00148FFF74FBC000032
:1027F0000C0700200148FFF749BC00007C050020C1
:10280000F0B50268254C264D264E274F274B4FF03A
:10281000804CA04209D0604507D0A84205D0B04204
:1028200003D0B84201D0984204D122F0700E4A6819
:1028300042EA0E02A0421BD0604519D0A84217D030
:10284000B04215D0B84213D0984211D0184DA842CA
:102850000ED0184DA8420BD0174DA84208D0174DE6
:10286000A84205D0164DA84202D0164DA84203D169
:1028700022F44075CA682A434D6922F080022A4337
:1028800002608A68C2620A688262A04201D09842ED
:1028900001D10969016301214161F0BD00000140DE
:1028A0000004004000080040000C0040000401400B
:1028B0000040014000440140004801400018004031
:1028C000001C00400020004010B5846842EA03224A
:1028D00024F47F440A432243826010BD826822F0C0
:1028E00070020A4342F007018160704710B5036A25
:1028F000046A24F001040462846924F0F00444EAC8
:10290000021423F00A020A438461026210BD10B56A
:10291000036A23F0100303628369046A23F470439B
:1029200043EA023224F0A00343EA0111826101620A
:1029300010BD000070B5044600680169E26821F42A
:102940004051114301612169A068E269084361694E
:10295000114308432168CA6849F20C639A43024351
:10296000CA6020684169A26921F440711143416144
:1029700031492068884202D03049884202D1FEF7AE
:10298000ABFF01E0FEF798FFE269002319216425FF
:102990003226B2F5004F626828D0A0FB0101930FE8
:1029A0009200FDF70DFC0146B0FBF5F06FF0180248
:1029B000504301EB800006EB0010B0FBF5F000F097
:1029C000F002B1FBF5F002EB0012B1FBF5F06FF095
:1029D0001803584301EB800006EB0010B0FBF5F044
:1029E00000F00F0021681044886070BDA0FB010159
:1029F00092185B41FDF7E4FB0146B0FBF5F00201E4
:102A0000B1FBF5F06FF01803584301EB800006EBC3
:102A1000C000B0FBF5F000F0F80002EB4002B1FBA3
:102A2000F5F0584301EB800006EBC000B0FBF5F079
:102A300000F00700D6E7000000100140001401403C
:102A40002DE9F041984617460E460446069D1DE0C6
:102A5000681C1BD02DB1FEF7BBFDA0EB0800A842FF
:102A600014D92068C16821F4D071C160206841691F
:102A700021F001014161202084F83D0084F83E00EE
:102A8000002084F83C000320BDE8F0812068006845
:102A900036EA000004D00020B842D9D00020F3E785
:102AA0000120F9E7FEE700000FB4054B10B503A9BC
:102AB000044A029800F0EAF810BC5DF814FB00002C
:102AC0006D340008240000200907090E002804DBEB
:102AD00000F1E02080F80014704700F00F0000F1D2
:102AE000E02080F8141D704702E008C8121F08C1DA
:102AF000002AFAD170477047002001E001C1121F7F
:102B0000002AFBD1704700002DE9FF5F82B0002151
:102B1000DDE90430020DDDF840B0034318D044F67F
:102B20001050A2F2FF3242431514119801281FD011
:102B3000A5EB0B00401C5FEA000A4FF000064E4F69
:102B4000DFF83891B046504615D5CAF1000413E0BD
:102B5000119801244AA3012801D16FEA0B010298C0
:102B6000119AC0E90031C0E9024206B0BDE8F09F09
:102B7000CBF10000DFE704460021404A491842EB50
:102B80000450CDE9001012E0E00707D032463B4682
:102B900040464946FDF746FC8046894632463B465C
:102BA00010461946FDF73EFC06460F466410002C01
:102BB000EAD1DDE90401DDE90023BAF1000F06DA0C
:102BC000FDF730FC42464B46FDF72CFC05E0FDF7D7
:102BD0009BFC42464B46FDF797FC04460E460022FE
:102BE000284BFDF719FD03D84FF0FF30014607E0F1
:102BF0000022254B20463146FDF76DFBFDF7F3FC27
:102C0000102409E0002C0ADB0A220023FDF7D8FA81
:102C1000039B30321A55641E50EA0102F2D1641C43
:102C2000039AC4F111031444119A012A03D001221A
:102C300008430DD10AE0084304D000204FF0110BE7
:102C4000119072E7A3EB0B056D1E0DE05B4504DDF3
:102C50004FF0000205F1010504E003DA4FF0000235
:102C6000A5F10105002AECD002981199C0E90231C2
:102C7000C0E9004579E70000000014400000F03F83
:102C8000300000000000F0430000E03F2DE9FF4F5E
:102C900095B09B468946064600250FE2252877D148
:102CA00000242746F84A0121059400E0044316F861
:102CB000013F203B01FA03F01042F7D130782A2877
:102CC00011D06FF02F033078A0F13002092A16D806
:102CD000059A44F0020402EB820203EB4202104424
:102CE000761C0590EFE759F8042B0592002A03DAC9
:102CF000504244F40054059044F00204761C3078AD
:102D00002E2816D116F8010F44F004042A280DD0FD
:102D10006FF02F023078A0F13003092B09D807EBB0
:102D2000870302EB4303C718761CF3E759F8047BCB
:102D3000761C30786C280FD006DC4C2817D0682819
:102D40000DD06A2814D104E0742810D07A280FD14D
:102D50000DE044F400140AE044F4801401E044F46B
:102D600040147278824202D104F58014761C761CDD
:102D7000307866280BD013DC582877D009DC00287F
:102D800075D04528F6D04628F4D047281AD19DE1C1
:102D900018E0632835D0642879D0652812D195E1F0
:102DA000702873D008DC6728F1D069286FD06E28AE
:102DB0000DD06F2806D1B5E073282CD0752875D0BA
:102DC000782874D05A46179990476D1C75E1C4F362
:102DD0000250022809D003280DD0D9F80010042889
:102DE0000DD00D6009F1040967E1D9F80010EA1768
:102DF000C1E90052F6E7D9F800100D80F2E70D7036
:102E0000F0E719F8041B8DF8001000208DF8010080
:102E1000EA46012003E059F804AB4FF0FF306107A8
:102E20004FF0000102D40DE008F101018846B942DB
:102E30000FDA8045F8DB1AF808100029F4D108E011
:102E400008F1010188468142FADB1AF808100029CE
:102E5000F6D105985B46A0EB080721463846179A3D
:102E600000F094FA284400EB080507E04DE029E162
:102E70000DE01AF8010B5A4617999047B8F101086E
:102E8000F7D25B4621463846179A13E142E00A2200
:102E90000092C4F302524FF0000A022A08D059F8F7
:102EA00004CB032A4FEAEC710AD00DE029E02AE0B6
:102EB00009F1070121F00702F2E802C1914609E099
:102EC0000FFA8CFC4FEAEC71042A03D14FFA8CFC08
:102ED0004FEAEC71002907DA0A460021DCF1000C08
:102EE00061EB02012D2202E0220504D52B228DF890
:102EF0000420012203E0E20701D02022F7E79046F8
:102F000059E00A2102E010220DE010214FF0000AE2
:102F100000910BE010224FF0000A44F0040408274F
:102F2000009203E008224FF0000A0092C4F302521C
:102F3000022A05D059F804CB0021032A08D009E061
:102F400009F1070121F00702F2E802C1914605E00C
:102F50001FFA8CFC042A01D10CF0FF0C4FF0000882
:102F6000220728D5702806D0009B83F0100353EA6F
:102F70000A0305D00EE040228DF80420012208E06B
:102F80005CEA010206D030228DF804208DF805009D
:102F900002229046009B83F0080353EA0A030AD1F9
:102FA0005CEA010201D1620705D530228DF80420C8
:102FB0004FF001087F1E582804D034A003900EA8BB
:102FC00002900DE036A0F9E753466046009AFDF7FF
:102FD000F7F884460398825C0298401E02900270C3
:102FE0005CEA0100F0D1029806A9081A00F1200A53
:102FF000600702D524F4803400E00127574502DD44
:10300000A7EB0A0000E0002000EB0A010090059801
:103010004144401A0590E00306D45B462146179AC6
:10302000059800F0B3F90544002706E001A85A46C8
:10303000C05D179990476D1C7F1C4745F6DBE00388
:103040000CD55B462146179A059800F09FF9054478
:1030500004E030205A46179990476D1C0099481E8D
:1030600000900029F5DC08E0029802995A460078A1
:10307000491C0291179990476D1CBAF10001AAF101
:10308000010AF1DC65E1000009280100303132332A
:103090003435363738396162636465660000000094
:1030A000303132333435363738394142434445467E
:1030B0000000000000F058F90544761C3078002824
:1030C0007FF4ECAD19B02846BDE8F08F620700D45C
:1030D000062709F1070222F0070CFCE80223E1466B
:1030E00003F000485FEA080C02D00FF2702C0DE0EC
:1030F0005FEA045C02D50FF2682C07E05FEAC47C4B
:1031000002D00FF2602C01E0AFF2700C4FF0FF38EC
:1031100023F00043CDF850C065280CD006DC4528CC
:1031200009D046281DD047283DD13DE0662818D05B
:1031300067287ED138E00021112F01DB112000E04B
:10314000781CCDE9000106A90EA8FFF7DDFCDDE93A
:103150000F010E9A03910021009207F1010A0491D8
:103160004DE04FF000400097CDE9011006A90EA8F0
:10317000FFF7CAFCDDE90F0203920E9B11990022B2
:10318000DDF80CA00093049211B9791C00EB010A40
:10319000B7EB0A0004D4C0F1FF3007F1010A049034
:1031A000AAEB0700019044E0012F00DA012700217B
:1031B000112F01DD112000E03846CDE9000106A9FC
:1031C0000EA8FFF7A1FCDDE90F010E9A0391002183
:1031D00004910092BA4621070CD40399514500DAB4
:1031E0008A46BAF1010F05DD009AAAF10101515C8E
:1031F000302908D0B84202DA10F1040F06DA0121B2
:10320000CDE9011015E0AAF10101E9E7002805DC8C
:10321000049901440491AAEB000102E0411C5145CC
:1032200000DD8A460499401A401C01904FF000408E
:103230000290200704D40198504501DBCDF80480AA
:1032400000208DF84F0002980DF14F07B0F1004FAC
:1032500025D02B200E9002984FF0020800280CDA9F
:10326000404202902D200E9007E00A210298FDF7BF
:103270000CF83031029007F8011DB8F10001A8F1F7
:103280000108F2DC02980028EFD1791E0E98087030
:10329000307800F0200040F0450007F8020D12A839
:1032A000C01B00F107081498007800B1012000EB62
:1032B0000A01019801EBE07105984144401A401E53
:1032C0000590E00306D45B462146179A059800F066
:1032D0005DF805441498007818B15A46179990473C
:1032E0006D1CE00324D55B462146179A059800F033
:1032F0004DF805441CE00498002807DBDDE90301D4
:10330000884203DD0098405C179901E0179930204E
:103310005A469047049805F10105401C0490019815
:10332000401E019004D12E205A46179990476D1CDB
:10333000BAF10001AAF1010ADDDC05E017F8010B82
:103340005A46179990476D1CB8F10001A8F1010881
:10335000F4DC5B462146179A0598ABE62D00000089
:103360002B000000200000002DE9F041044600255C
:103370001E461746880404D405E039462020B0478D
:103380006D1C641EF9D52846BDE8F0812DE9F04199
:10339000044600251E469046C80301D5302700E0AC
:1033A0002027880404D505E041463846B0476D1C07
:1033B000641EF9D52846BDE8F081000030B50180D3
:1033C000224D4560827000244FF48072C370914298
:1033D00022D004DC102931D0402906D125E0B1F5F6
:1033E000806F0ED0B1F5805F03D04FF0FF342046E0
:1033F00030BD01218181C18115499FED160A81608F
:1034000007E004218181C18111499FED130A891DC3
:10341000816080ED040AEAE710218181C1810C49B5
:103420009FED0E0A1E318160F3E740218181C18149
:1034300007499FED0B0A7E318160EAE78281C281F4
:1034400008499FED090A8160E3E70000703D00082C
:1034500070350008000080390000803A0000803B91
:103460000000803C6E3700080000803D13B54FF629
:10347000FF73012269460248FEF79AFF00981CBDBF
:10348000C405002086B0FEF7B1F8FFF759F9FFF741
:1034900041F8FFF719F8FFF785F8FFF7DDF8FEF7B9
:1034A000E1FFFFF72BF9FFF70DF9FFF79FF822482F
:1034B000FDF77AFC4FF480794A4620491E48FDF713
:1034C000F1FC0123002202216846FFF777FF1C4D23
:1034D0004FF000081B4EA5F8028028780128FCD187
:1034E000FEF776F8154F0024C6F8000057F82400C0
:1034F00000EE100AB8EE400A10EE100AFCF7B2FE19
:1035000041EC100B10A053EC102BFFF7CDFA641C0C
:10351000A4B2FF2CEAD90DA0FFF7C6FAFEF758F8BF
:1035200031684A46401AB06085F800800349024875
:10353000FDF7B8FCD1E7000034040020280000208B
:10354000000000202804002025660A0030300A0010
:103550000006101600061016000000000000000013
:103560000102030406070809000000000102030429
:1035700000040002000600010005000300078000AF
:10358000800480028006800180058003800740005F
:103590004004400240064001400540034007C0008F
:1035A000C004C002C006C001C005C003C00720009F
:1035B0002004200220062001200520032007A0006F
:1035C000A004A002A006A001A005A003A00760001F
:1035D0006004600260066001600560036007E0004F
:1035E000E004E002E006E001E005E003E00710008F
:1035F00010041002100610011005100310079000AF
:10360000900490029006900190059003900750005E
:103610005004500250065001500550035007D0008E
:10362000D004D002D006D001D005D003D00730009E
:103630003004300230063001300530033007B0006E
:10364000B004B002B006B001B005B003B00770001E
:103650007004700270067001700570037007F0004E
:10366000F004F002F006F001F005F003F0070800A6
:10367000080408020806080108050803080788006E
:10368000880488028806880188058803880748001E
:103690004804480248064801480548034807C8004E
:1036A000C804C802C806C801C805C803C80728005E
:1036B0002804280228062801280528032807A8002E
:1036C000A804A802A806A801A805A803A8076800DE
:1036D0006804680268066801680568036807E8000E
:1036E000E804E802E806E801E805E803E80718004E
:1036F000180418021806180118051803180798006E
:10370000980498029806980198059803980758001D
:103710005804580258065801580558035807D8004D
:10372000D804D802D806D801D805D803D80738005D
:103730003804380238063801380538033807B8002D
:10374000B804B802B806B801B805B803B8077800DD
:103750007804780278067801780578037807F8000D
:10376000F804F802F806F801F805F803F807040071
:10377000040404020406040104050403040784008D
:10378000840484028406840184058403840744003D
:103790004404440244064401440544034407C4006D
:1037A000C404C402C406C401C405C403C40724007D
:1037B0002404240224062401240524032407A4004D
:1037C000A404A402A406A401A405A403A4076400FD
:1037D0006404640264066401640564036407E4002D
:1037E000E404E402E406E401E405E403E40714006D
:1037F000140414021406140114051403140794008D
:10380000940494029406940194059403940754003C
:103810005404540254065401540554035407D4006C
:10382000D404D402D406D401D405D403D40734007C
:103830003404340234063401340534033407B4004C
:10384000B404B402B406B401B405B403B4077400FC
:103850007404740274067401740574037407F4002C
:10386000F404F402F406F401F405F403F4070C0084
:103870000C040C020C060C010C050C030C078C004C
:103880008C048C028C068C018C058C038C074C00FC
:103890004C044C024C064C014C054C034C07CC002C
:1038A000CC04CC02CC06CC01CC05CC03CC072C003C
:1038B0002C042C022C062C012C052C032C07AC000C
:1038C000AC04AC02AC06AC01AC05AC03AC076C00BC
:1038D0006C046C026C066C016C056C036C07EC00EC
:1038E000EC04EC02EC06EC01EC05EC03EC071C002C
:1038F0001C041C021C061C011C051C031C079C004C
:103900009C049C029C069C019C059C039C075C00FB
:103910005C045C025C065C015C055C035C07DC002B
:10392000DC04DC02DC06DC01DC05DC03DC073C003B
:103930003C043C023C063C013C053C033C07BC000B
:10394000BC04BC02BC06BC01BC05BC03BC077C00BB
:103950007C047C027C067C017C057C037C07FC00EB
:10396000FC04FC02FC06FC01FC05FC03FC07020055
:10397000020402020206020102050203020782009B
:10398000820482028206820182058203820742004B
:103990004204420242064201420542034207C2007B
:1039A000C204C202C206C201C205C203C20722008B
:1039B0002204220222062201220522032207A2005B
:1039C000A204A202A206A201A205A203A20762000B
:1039D0006204620262066201620562036207E2003B
:1039E000E204E202E206E201E205E203E20712007B
:1039F000120412021206120112051203120792009B
:103A0000920492029206920192059203920752004A
:103A10005204520252065201520552035207D2007A
:103A2000D204D202D206D201D205D203D20732008A
:103A30003204320232063201320532033207B2005A
:103A4000B204B202B206B201B205B203B20772000A
:103A50007204720272067201720572037207F2003A
:103A6000F204F202F206F201F205F203F2070A0092
:103A70000A040A020A060A010A050A030A078A005A
:103A80008A048A028A068A018A058A038A074A000A
:103A90004A044A024A064A014A054A034A07CA003A
:103AA000CA04CA02CA06CA01CA05CA03CA072A004A
:103AB0002A042A022A062A012A052A032A07AA001A
:103AC000AA04AA02AA06AA01AA05AA03AA076A00CA
:103AD0006A046A026A066A016A056A036A07EA00FA
:103AE000EA04EA02EA06EA01EA05EA03EA071A003A
:103AF0001A041A021A061A011A051A031A079A005A
:103B00009A049A029A069A019A059A039A075A0009
:103B10005A045A025A065A015A055A035A07DA0039
:103B2000DA04DA02DA06DA01DA05DA03DA073A0049
:103B30003A043A023A063A013A053A033A07BA0019
:103B4000BA04BA02BA06BA01BA05BA03BA077A00C9
:103B50007A047A027A067A017A057A037A07FA00F9
:103B6000FA04FA02FA06FA01FA05FA03FA0706005D
:103B70000604060206060601060506030607860079
:103B80008604860286068601860586038607460029
:103B90004604460246064601460546034607C60059
:103BA000C604C602C606C601C605C603C607260069
:103BB0002604260226062601260526032607A60039
:103BC000A604A602A606A601A605A603A6076600E9
:103BD0006604660266066601660566036607E60019
:103BE000E604E602E606E601E605E603E607160059
:103BF0001604160216061601160516031607960079
:103C00009604960296069601960596039607560028
:103C10005604560256065601560556035607D60058
:103C2000D604D602D606D601D605D603D607360068
:103C30003604360236063601360536033607B60038
:103C4000B604B602B606B601B605B603B6077600E8
:103C50007604760276067601760576037607F60018
:103C6000F604F602F606F601F605F603F6070E0070
:103C70000E040E020E060E010E050E030E078E0038
:103C80008E048E028E068E018E058E038E074E00E8
:103C90004E044E024E064E014E054E034E07CE0018
:103CA000CE04CE02CE06CE01CE05CE03CE072E0028
:103CB0002E042E022E062E012E052E032E07AE00F8
:103CC000AE04AE02AE06AE01AE05AE03AE076E00A8
:103CD0006E046E026E066E016E056E036E07EE00D8
:103CE000EE04EE02EE06EE01EE05EE03EE071E0018
:103CF0001E041E021E061E011E051E031E079E0038
:103D00009E049E029E069E019E059E039E075E00E7
:103D10005E045E025E065E015E055E035E07DE0017
:103D2000DE04DE02DE06DE01DE05DE03DE073E0027
:103D30003E043E023E063E013E053E033E07BE00F7
:103D4000BE04BE02BE06BE01BE05BE03BE077E00A7
:103D50007E047E027E067E017E057E037E07FE00D7
:103D6000FE04FE02FE06FE01FE05FE03FE07010044
:103D70000000803F00000000ECFF7F3FD40FC93AF5
:103D8000B1FF7F3FC70F493B4EFF7F3FC1CB963B03
:103D9000C4FE7F3F890FC93B13FE7F3F3053FB3B7F
:103DA00039FD7F3F59CB163C39FC7F3F02ED2F3C5C
:103DB00011FB7F3F900E493CC1F97F3F0030623CD0
:103DC0004AF87F3F4B517B3CACF67F3F38398A3C09
:103DD000E6F47F3FB6C9963CF8F27F3F1C5AA33CFD
:103DE000E3F07F3F69EAAF3CA7EE7F3F9B7ABC3CA4
:103DF00043EC7F3FB00AC93CB8E97F3FA69AD53C67
:103E000005E77F3F7B2AE23C2BE47F3F2DBAEE3C67
:103E100029E17F3FB949FB3C00DE7F3F90EC033D49
:103E2000AFDA7F3F2F340A3D37D77F3FB87B103D55
:103E300098D37F3F2CC3163DD1CF7F3F880A1D3DCD
:103E4000E2CB7F3FCC51233DCCC77F3FF698293D45
:103E50008FC37F3F07E02F3D2ABF7F3FFC26363DC3
:103E60009EBA7F3FD56D3C3DEAB57F3F91B4423D60
:103E70000FB17F3F2FFB483D0DAC7F3FAF414F3D22
:103E8000E3A67F3F0E88553D91A17F3F4CCE5B3D21
:103E9000189C7F3F6814623D78967F3F625A683D68
:103EA000B1907F3F38A06E3DC28A7F3FE9E5743D07
:103EB000AB847F3F742B7B3D6D7E7F3F6CB8803D34
:103EC00008787F3F0ADB833D7B717F3F94FD863D11
:103ED000C76A7F3F0A208A3DEC637F3F6A428D3D7F
:103EE000E95C7F3FB464903DBF557F3FE786933DDB
:103EF0006D4E7F3F05A9963DF4467F3F0ACB993D25
:103F0000543F7F3FF9EC9C3D8D377F3FCF0EA03D66
:103F10009D2F7F3F8C30A33D87277F3F3052A63DAA
:103F2000491F7F3FBA73A93DE4167F3F2B95AC3DF7
:103F3000580E7F3F80B6AF3DA4057F3FBBD7B23D53
:103F4000C9FC7E3FDAF8B53DC7F37E3FDD19B93DC8
:103F50009DEA7E3FC33ABC3D4CE17E3F8D5BBF3D59
:103F6000D4D77E3F397CC23D34CE7E3FC69CC53D12
:103F70006DC47E3F36BDC83D7FBA7E3F86DDCB3DFA
:103F800069B07E3FB7FDCE3D2DA67E3FC81DD23D18
:103F9000C99B7E3FB93DD53D3D917E3F895DD83D72
:103FA0008B867E3F377DDB3DB17B7E3FC49CDE3D13
:103FB000B0707E3F2EBCE13D88657E3F76DBE43D00
:103FC000385A7E3F9AFAE73DC14E7E3F9A19EB3D43
:103FD00023437E3F7638EE3D5E377E3F2E57F13DE0
:103FE000722B7E3FC075F43D5E1F7E3F2C94F73DE3
:103FF00024137E3F73B2FA3DC2067E3F92D0FD3D50
:1040000038FA7D3F4577003E88ED7D3F2E06023E23
:10401000B1E07D3F0295033EB2D37D3FC223053E12
:104020008CC67D3F6EB2063E40B97D3F0541083EDD
:10403000CCAB7D3F86CF093E309E7D3FF35D0B3E8E
:104040006E907D3F4AEC0C3E85827D3F8B7A0E3E22
:1040500074747D3FB708103E3D667D3FCC96113E9F
:10406000DE577D3FCA24133E59497D3FB2B2143E0C
:10407000AC3A7D3F8340163ED82B7D3F3DCE173E68
:10408000DD1C7D3FE05B193EBC0D7D3F6BE91A3EB8
:1040900073FE7C3FDE761C3E03EF7C3F38041E3E01
:1040A0006CDF7C3F7B911F3EAECF7C3FA51E213E47
:1040B000C9BF7C3FB6AB223EBDAF7C3FAD38243E8E
:1040C0008A9F7C3F8CC5253E318F7C3F5152273ED5
:1040D000B07E7C3FFCDE283E086E7C3F8D6B2A3E26
:1040E0003A5D7C3F04F82B3E444C7C3F61842D3E7E
:1040F000283B7C3FA2102F3EE5297C3FC99C303EE7
:104100007A187C3FD428323EE9067C3FC4B4333E63
:1041100031F57B3F9840353E53E37B3F50CC363EF4
:104120004DD17B3FEC57383E20BF7B3F6CE3393E9F
:10413000CDAC7B3FCF6E3B3E539A7B3F15FA3C3E66
:10414000B2877B3F3E853E3EEA747B3F4910403E4E
:10415000FC617B3F379B413EE74E7B3F0726433E5A
:10416000AB3B7B3FB9B0443E48287B3F4D3B463E8E
:10417000BE147B3FC2C5473E0E017B3F1850493EEF
:1041800037ED7A3F4FDA4A3E3AD97A3F67644C3E80
:1041900016C57A3F60EE4D3ECBB07A3F38784F3E41
:1041A000599C7A3FF101513EC1877A3F898B523E3B
:1041B00002737A3F0115543E1C5E7A3F589E553E6D
:1041C00010497A3F8F27573EDD337A3FA4B0583EDF
:1041D000841E7A3F97395A3E04097A3F6AC25B3E91
:1041E0005EF3793F1A4B5D3E91DD793FA8D35E3E89
:1041F0009DC7793F135C603E83B1793F5CE4613ECB
:10420000439B793F836C633EDC84793F86F4643E54
:104210004E6E793F667C663E9A57793F2204683E2F
:10422000C040793FBA8B693EBF29793F2F136B3E5F
:104230009812793F7F9A6C3E4AFB783FAB216E3EE5
:10424000D6E3783FB2A86F3E3BCC783F942F713EC7
:104250007BB4783F51B6723E939C783FE83C743E05
:104260008684783F5AC3753E526C783FA649773EA4
:10427000F853783FCCCF783E773B783FCB557A3EAA
:10428000D122783FA4DB7B3E040A783F56617D3E15
:1042900010F1773FE1E67E3EF7D7773F2236803E4A
:1042A000B7BE773FC0F8803E51A5773F4ABB813EFD
:1042B000C58B773FC07D823E1372773F2240833E9D
:1042C0003A58773F7002843E3C3E773FAAC4843E12
:1042D0001724773FCE86853ECC09773FDF48863E60
:1042E0005BEF763FDA0A873EC4D4763FC1CC873E87
:1042F00007BA763F938E883E249F763F5050893E82
:104300001B84763FF8118A3EEC68763F8AD38A3E5A
:10431000974D763F07958B3E1B32763F6E568C3E0F
:104320007A16763FC0178D3EB3FA753FFCD88D3EA6
:10433000C6DE753F229A8E3EB3C2753F325B8F3E1A
:104340007BA6753F2C1C903E1C8A753F10DD903E6D
:10435000976D753FDD9D913EED50753F945E923EA9
:104360001D34753F351F933E2717753FBFDF933EC2
:104370000BFA743F31A0943EC9DC743F8D60953ECA
:1043800062BF743FD220963ED5A1743F00E1963EB5
:104390002284743F17A1973E4966743F1661983E88
:1043A0004B48743FFE20993E272A743FCEE0993E49
:1043B000DD0B743F86A09A3E6EED733F27609B3EF7
:1043C000D9CE733FAF1F9C3E1FB0733F20DF9C3E92
:1043D0003F91733F789E9D3E3972733FB85D9E3E1C
:1043E0000E53733FDF1C9F3EBE33733FEEDB9F3E99
:1043F0004714733FE59AA03EACF4723FC259A13E08
:10440000EBD4723F8718A23E04B5723F33D7A23E69
:10441000F894723FC595A33EC774723F3F54A43EC3
:104420007054723F9F12A53EF433723FE5D0A53E13
:104430005213723F128FA63E8CF2713F254DA73E5C
:104440009FD1713F1F0BA83E8EB0713FFEC8A83EA2
:10445000578F713FC486A93EFB6D713F6F44AA3EE2
:104460007A4C713F0102AB3ED42A713F77BFAB3E1D
:104470000809713FD47CAC3E17E7703F153AAD3E5A
:1044800002C5703F3CF7AD3EC6A2703F49B4AE3E98
:104490006680703F3A71AF3EE15D703F102EB03ED6
:1044A000373B703FCBEAB03E6718703F6BA7B13E19
:1044B00073F56F3FEF63B23E5AD26F3F5820B33E61
:1044C0001BAF6F3FA5DCB33EB88B6F3FD698B43EB1
:1044D00030686F3FEC54B53E83446F3FE610B63E04
:1044E000B0206F3FC3CCB63EBAFC6E3F8488B73E67
:1044F0009ED86E3F2A44B83E5DB46E3FB2FFB83ED0
:10450000F88F6E3F1EBBB93E6D6B6E3F6E76BA3E46
:10451000BE466E3FA031BB3EEB216E3FB6ECBB3ECC
:10452000F2FC6D3FAFA7BC3ED5D76D3F8B62BD3E61
:1045300093B26D3F4A1DBE3E2D8D6D3FEBD7BE3E03
:10454000A1676D3F6F92BF3EF2416D3FD54CC03EBB
:104550001D1C6D3F1E07C13E24F66C3F48C1C13E85
:1045600007D06C3F557BC23EC5A96C3F4435C33E66
:104570005E836C3F15EFC33ED45C6C3FC8A8C43E5D
:1045800024366C3F5C62C53E500F6C3FD21BC63E6A
:1045900058E86B3F29D5C63E3BC16B3F628EC73E94
:1045A000FB996B3F7C47C83E95726B3F7700C93ED5
:1045B0000C4B6B3F53B9C93E5E236B3F1072CA3E32
:1045C0008CFB6A3FAE2ACB3E95D36A3F2CE3CB3EB1
:1045D0007BAB6A3F8B9BCC3E3C836A3FCA53CD3E4C
:1045E000D95A6A3FEA0BCE3E52326A3FEAC3CE3E08
:1045F000A7096A3FCA7BCF3ED7E0693F8A33D03EE6
:10460000E4B7693F2AEBD03ECC8E693FAAA2D13EE7
:104610009165693F095AD23E323C693F4811D33E09
:10462000AE12693F67C8D33E07E9683F647FD43E56
:104630003CBF683F4136D53E4C95683FFDECD53ECA
:10464000396B683F99A3D63E0341683F135AD73E62
:10465000A816683F6B10D83E2AEC673FA3C6D83E29
:1046600087C1673FB97CD93EC196673FAD32DA3E1C
:10467000D86B673F80E8DA3ECA40673F319EDB3E39
:104680009915673FC153DC3E45EA663F2E09DD3E82
:10469000CCBE663F79BEDD3E3093663FA273DE3E00
:1046A0007167663FA928DF3E8E3B663F8DDDDF3EAA
:1046B000880F663F4F92E03E5EE3653FEE46E13E87
:1046C00010B7653F6AFBE13EA08A653FC4AFE23E9A
:1046D0000B5E653FFA63E33E5431653F0E18E43EDE
:1046E0007904653FFECBE43E7BD7643FCB7FE53E5C
:1046F00059AA643F7533E63E147D643FFBE6E63E0F
:10470000AC4F643F5D9AE73E2122643F9C4DE83EFA
:1047100073F4633FB700E93EA1C6633FAEB3E93E21
:10472000AC98633F8166EA3E956A633F3019EB3E81
:104730005A3C633FBBCBEB3EFC0D633F217EEC3E1E
:104740007BDF623F6330ED3ED7B0623F80E2ED3EFB
:104750001082623F7994EE3E2653623F4C46EF3E14
:104760001A24623FFBF7EF3EEAF4613F85A9F03E71
:1047700098C5613FEA5AF13E2296613F290CF23E0C
:104780008A66613F43BDF23ED036613F386EF33EEC
:10479000F206613F071FF43EF2D6603FB1CFF43E10
:1047A000CFA6603F3580F53E8976603F9330F63E78
:1047B0002146603FCBE0F63E9615603FDC90F73E29
:1047C000E9E45F3FC840F83E19B45F3F8EF0F83E21
:1047D00027835F3F2DA0F93E12525F3FA54FFA3E5F
:1047E000DB205F3FF7FEFA3E81EF5E3F22AEFB3EED
:1047F00005BE5E3F275DFC3E678C5E3F040CFD3EC0
:10480000A65A5E3FBBBAFD3EC3285E3F4A69FE3EE4
:10481000BEF65D3FB217FF3E97C45D3FF3C5FF3E56
:104820004D925D3F063A003FE15F5D3FFF90003FE4
:10483000532D5D3FE4E7003FA3FA5C3FB53E013FE7
:10484000D1C75C3F7395013FDD945C3F1CEC013F99
:10485000C7615C3FB142023F8E2E5C3F3299023FFE
:1048600034FB5B3F9FEF023FB8C75B3FF845033F18
:104870001A945B3F3D9C033F5A605B3F6DF2033FE0
:10488000792C5B3F8948043F75F85A3F919E043F5D
:1048900050C45A3F84F4043F09905A3F624A053F8E
:1048A000A05B5A3F2CA0053F16275A3FE2F5053F73
:1048B0006AF2593F824B063F9CBD593F0EA1063F0D
:1048C000AD88593F86F6063F9C53593FE84B073F5A
:1048D0006A1E593F36A1073F17E9583F6FF6073F59
:1048E000A1B3583F924B083F0B7E583FA1A0083F11
:1048F0005348583F9BF5083F7912583F7F4A093F7C
:104900007FDC573F4E9F093F63A6573F09F4093F9D
:104910002670573FAD480A3FC739573F3D9D0A3F74
:104920004803573FB7F10A3FA7CC563F1C460B3F01
:10493000E595563F6B9A0B3F025F563FA5EE0B3F46
:10494000FE27563FC9420C3FD9F0553FD7960C3F42
:1049500093B9553FD0EA0C3F2C82553FB33E0D3FF3
:10496000A44A553F81920D3FFB12553F38E60D3F5B
:1049700031DB543FDA390E3F47A3543F658D0E3F7C
:104980003B6B543FDBE00E3F0F33543F3B340F3F54
:10499000C3FA533F84870F3F55C2533FB8DA0F3FE6
:1049A000C789533FD52D103F1851533FDC80103F2E
:1049B0004918533FCDD3103F59DF523FA726113F2F
:1049C00049A6523F6B79113F186D523F19CC113FE8
:1049D000C633523FB01E123F54FA513F3071123F5E
:1049E000C2C0513F9AC3123F1087513FEE15133F8B
:1049F0003D4D513F2A68133F4A13513F50BA133F70
:104A000037D9503F5F0C143F039F503F585E143F0F
:104A1000AF64503F39B0143F3B2A503F0402153F6A
:104A2000A8EF4F3FB753153FF4B44F3F54A5153F80
:104A30001F7A4F3FD9F6153F2B3F4F3F4748163F50
:104A400017044F3F9F99163FE4C84E3FDFEA163FD9
:104A5000908D4E3F073C173F1C524E3F188D173F1D
:104A600089164E3F12DE173FD5DA4D3FF52E183F1F
:104A7000029F4D3FC07F183F10634D3F73D0183FDA
:104A8000FD264D3F0F21193FCBEA4C3F9471193F52
:104A900079AE4C3F00C2193F08724C3F55121A3F85
:104AA00078354C3F93621A3FC7F84B3FB8B21A3F74
:104AB000F8BB4B3FC6021B3F097F4B3FBB521B3F1E
:104AC000FA414B3F99A21B3FCC044B3F5FF21B3F87
:104AD0007FC74A3F0C421C3F138A4A3FA2911C3FAA
:104AE000874C4A3F1FE11C3FDC0E4A3F84301D3F8C
:104AF00012D1493FD17F1D3F2993493F06CF1D3F2A
:104B00002155493F221E1E3FFA16493F266D1E3F82
:104B1000B3D8483F12BC1E3F4E9A483FE50A1F3F9C
:104B2000CA5B483F9F591F3F271D483F41A81F3F71
:104B300065DE473FCBF61F3F849F473F3B45203F05
:104B40008560473F9393203F6721473FD2E1203F55
:104B50002AE2463FF92F213FCEA2463F067E213F63
:104B60005463463FFBCB213FBB23463FD719223F2F
:104B700003E4453F9967223F2DA4453F43B5223FBB
:104B80003964453FD302233F2624453F4B50233F02
:104B9000F5E3443FA99D233FA5A3443FEEEA233F0D
:104BA0003763443F1A38243FAB22443F2C85243FCF
:104BB00000E2433F25D2243F38A1433F041F253F55
:104BC0005160433FCB6B253F4C1F433F77B8253F98
:104BD00029DE423F0A05263FE89C423F8451263F9A
:104BE000895B423FE39D263F0B1A423F2AEA263F5C
:104BF00070D8413F5636273FB796413F6882273FDE
:104C0000E154413F61CE273FEC12413F401A283F1B
:104C1000DAD0403F0566283FA98E403FB0B1283F1B
:104C20005C4C403F41FD283FF009403FB848293FD8
:104C300067C73F3F1594293FC0843F3F57DF293F57
:104C4000FC413F3F802A2A3F1BFF3E3F8E752A3F93
:104C50001BBC3E3F82C02A3FFF783E3F5B0B2B3F91
:104C6000C5353E3F1B562B3F6EF23D3FBFA02B3F4D
:104C7000F9AE3D3F4AEB2B3F676B3D3FB9352C3FCB
:104C8000B8273D3F0F802C3FECE33C3F49CA2C3F07
:104C900003A03C3F69142D3FFC5B3C3F6F5E2D3F02
:104CA000D9173C3F59A82D3F98D33B3F29F22D3FC0
:104CB0003B8F3B3FDE3B2E3FC14A3B3F78852E3F3B
:104CC00029063B3FF7CE2E3F75C13A3F5B182F3F79
:104CD000A47C3A3FA5612F3FB7373A3FD3AA2F3F75
:104CE000ACF2393FE6F32F3F85AD393FDE3C303F34
:104CF0004268393FBB85303FE122393F7CCE303FAF
:104D000065DD383F2217313FCB97383FAD5F313FEC
:104D10001652383F1DA8313F430C383F71F0313FE8
:104D200055C6373FAA38323F4A80373FC780323FA7
:104D3000233A373FC9C8323FDFF3363FAF10333F26
:104D40007FAD363F7A58333F0467363F29A0333F63
:104D50006C20363FBCE7333FB8D9353F342F343F62
:104D6000E792353F8F76343FFB4B353FCFBD343F25
:104D7000F304353FF304353FCFBD343FFB4B353FA4
:104D80008F76343FE792353F342F343FB8D9353FE3
:104D9000BCE7333F6C20363F29A0333F0467363FE2
:104DA0007A58333F7FAD363FAF10333FDFF3363FA6
:104DB000C9C8323F233A373FC780323F4A80373F26
:104DC000AA38323F55C6373F71F0313F430C383F68
:104DD0001DA8313F1652383FAD5F313FCB97383F6A
:104DE0002217313F65DD383F7CCE303FE122393F2D
:104DF000BB85303F4268393FDE3C303F85AD393FAF
:104E0000E6F32F3FACF2393FD3AA2F3FB7373A3FF3
:104E1000A5612F3FA47C3A3F5B182F3F75C13A3FF5
:104E2000F7CE2E3F29063B3F78852E3FC14A3B3FB8
:104E3000DE3B2E3F3B8F3B3F29F22D3F98D33B3F3C
:104E400059A82D3FD9173C3F6F5E2D3FFC5B3C3F7F
:104E500069142D3F03A03C3F49CA2C3FECE33C3F83
:104E60000F802C3FB8273D3FB9352C3F676B3D3F46
:104E70004AEB2B3FF9AE3D3FBFA02B3F6EF23D3FCB
:104E80001B562B3FC5353E3F5B0B2B3FFF783E3F0C
:104E900082C02A3F1BBC3E3F8E752A3F1BFF3E3F10
:104EA000802A2A3FFC413F3F57DF293FC0843F3FD4
:104EB0001594293F67C73F3FB848293FF009403F55
:104EC00041FD283F5C4C403FB0B1283FA98E403F98
:104ED0000566283FDAD0403F401A283FEC12413F98
:104EE00061CE273FE154413F6882273FB796413F5B
:104EF0005636273F70D8413F2AEA263F0B1A423FD9
:104F0000E39D263F895B423F8451263FE89C423F18
:104F10000A05263F29DE423F77B8253F4C1F433F15
:104F2000CB6B253F5160433F041F253F38A1433FD2
:104F300025D2243F00E2433F2C85243FAB22443F4F
:104F40001A38243F3763443FEEEA233FA5A3443F8A
:104F5000A99D233FF5E3443F4B50233F2624453F83
:104F6000D302233F3964453F43B5223F2DA4453F3B
:104F70009967223F03E4453FD719223FBB23463FB1
:104F8000FBCB213F5463463F067E213FCEA2463FE6
:104F9000F92F213F2AE2463FD2E1203F6721473FD8
:104FA0009393203F8560473F3B45203F849F473F89
:104FB000CBF61F3F65DE473F41A81F3F271D483FF7
:104FC0009F591F3FCA5B483FE50A1F3F4E9A483F23
:104FD00012BC1E3FB3D8483F266D1E3FFA16493F0C
:104FE000221E1E3F2155493F06CF1D3F2993493FB1
:104FF000D17F1D3F12D1493F84301D3FDC0E4A3F17
:105000001FE11C3F874C4A3FA2911C3F138A4A3F35
:105010000C421C3F7FC74A3F5FF21B3FCC044B3F13
:1050200099A21B3FFA414B3FBB521B3F097F4B3FAD
:10503000C6021B3FF8BB4B3FB8B21A3FC7F84B3F05
:1050400093621A3F78354C3F55121A3F08724C3F15
:1050500000C2193F79AE4C3F9471193FCBEA4C3FE7
:105060000F21193FFD264D3F73D0183F10634D3F70
:10507000C07F183F029F4D3FF52E183FD5DA4D3FB8
:1050800012DE173F89164E3F188D173F1C524E3FB8
:10509000073C173F908D4E3FDFEA163FE4C84E3F76
:1050A0009F99163F17044F3F4748163F2B3F4F3FEE
:1050B000D9F6153F1F7A4F3F54A5153FF4B44F3F23
:1050C000B753153FA8EF4F3F0402153F3B2A503F0F
:1050D00039B0143FAF64503F585E143F039F503FB8
:1050E0005F0C143F37D9503F50BA133F4A13513F1A
:1050F0002A68133F3D4D513FEE15133F1087513F36
:105100009AC3123FC2C0513F3071123F54FA513F0F
:10511000B01E123FC633523F19CC113F186D523F9B
:105120006B79113F49A6523FA726113F59DF523FE5
:10513000CDD3103F4918533FDC80103F1851533FE7
:10514000D52D103FC789533FB8DA0F3F55C2533FA3
:1051500084870F3FC3FA533F3B340F3F0F33543F15
:10516000DBE00E3F3B6B543F658D0E3F47A3543F42
:10517000DA390E3F31DB543F38E60D3FFB12553F25
:1051800081920D3FA44A553FB33E0D3F2C82553FBF
:10519000D0EA0C3F93B9553FD7960C3FD9F0553F15
:1051A000C9420C3FFE27563FA5EE0B3F025F563F1C
:1051B0006B9A0B3FE595563F1C460B3FA7CC563FDD
:1051C000B7F10A3F4803573F3D9D0A3FC739573F54
:1051D000AD480A3F2670573F09F4093F63A6573F81
:1051E0004E9F093F7FDC573F7F4A093F7912583F66
:1051F0009BF5083F5348583FA1A0083F0B7E583FFE
:10520000924B083FA1B3583F6FF6073F17E9583F4D
:1052100036A1073F6A1E593FE84B073F9C53593F51
:1052200086F6063FAD88593F0EA1063F9CBD593F0B
:10523000824B063F6AF2593FE2F5053F16275A3F77
:105240002CA0053FA05B5A3F624A053F09905A3F98
:1052500084F4043F50C45A3F919E043F75F85A3F6E
:105260008948043F792C5B3F6DF2033F5A605B3FF6
:105270003D9C033F1A945B3FF845033FB8C75B3F33
:105280009FEF023F34FB5B3F3299023F8E2E5C3F23
:10529000B142023FC7615C3F1CEC013FDD945C3FC3
:1052A0007395013FD1C75C3FB53E013FA3FA5C3F18
:1052B000E4E7003F532D5D3FFF90003FE15F5D3F1E
:1052C000063A003F4D925D3FF3C5FF3E97C45D3FF8
:1052D000B217FF3EBEF65D3F4A69FE3EC3285E3F01
:1052E000BBBAFD3EA65A5E3F040CFD3E678C5E3F96
:1052F000275DFC3E05BE5E3F22AEFB3E81EF5E3F7A
:10530000F7FEFA3EDB205F3FA54FFA3E12525F3FA9
:105310002DA0F93E27835F3F8EF0F83E19B45F3F22
:10532000C840F83EE9E45F3FDC90F73E9615603FE9
:10533000CBE0F63E2146603F9330F63E8976603FF3
:105340003580F53ECFA6603FB1CFF43EF2D6603F48
:10535000071FF43EF206613F386EF33ED036613FE0
:1053600043BDF23E8A66613F290CF23E2296613FC0
:10537000EA5AF13E98C5613F85A9F03EEAF4613FE3
:10538000FBF7EF3E1A24623F4C46EF3E2653623F46
:105390007994EE3E1082623F80E2ED3ED7B0623FEC
:1053A0006330ED3E7BDF623F217EEC3EFC0D633FD0
:1053B000BBCBEB3E5A3C633F3019EB3E956A633FF3
:1053C0008166EA3EAC98633FAEB3E93EA1C6633F57
:1053D000B700E93E73F4633F9C4DE83E2122643FF1
:1053E0005D9AE73EAC4F643FFBE6E63E147D643FCA
:1053F0007533E63E59AA643FCB7FE53E7BD7643FD9
:10540000FECBE43E7904653F0E18E43E5431653F1F
:10541000FA63E33E0B5E653FC4AFE23EA08A653FA0
:105420006AFBE13E10B7653FEE46E13E5EE3653F55
:105430004F92E03E880F663F8DDDDF3E8E3B663F3C
:10544000A928DF3E7167663FA273DE3E3093663F58
:1054500079BEDD3ECCBE663F2E09DD3E45EA663FA5
:10546000C153DC3E9915673F319EDB3ECA40673F22
:1054700080E8DA3ED86B673FAD32DA3EC196673FCF
:10548000B97CD93E87C1673FA3C6D83E2AEC673FA7
:105490006B10D83EA816683F135AD73E0341683FA9
:1054A00099A3D63E396B683FFDECD53E4C95683FDD
:1054B0004136D53E3CBF683F647FD43E07E9683F34
:1054C00067C8D33EAE12693F4811D33E323C693FB4
:1054D000095AD23E9165693FAAA2D13ECC8E693F5E
:1054E0002AEBD03EE4B7693F8A33D03ED7E0693F2C
:1054F000CA7BCF3EA7096A3FEAC3CE3E52326A3F1B
:10550000EA0BCE3ED95A6A3FCA53CD3E3C836A3F2E
:105510008B9BCC3E7BAB6A3F2CE3CB3E95D36A3F63
:10552000AE2ACB3E8CFB6A3F1072CA3E5E236B3FB5
:1055300053B9C93E0C4B6B3F7700C93E95726B3F28
:105540007C47C83EFB996B3F628EC73E3BC16B3FB9
:1055500029D5C63E58E86B3FD21BC63E500F6C3F64
:105560005C62C53E24366C3FC8A8C43ED45C6C3F28
:1055700015EFC33E5E836C3F4435C33EC5A96C3F07
:10558000557BC23E07D06C3F48C1C13E24F66C3FFC
:105590001E07C13E1D1C6D3FD54CC03EF2416D3F04
:1055A0006F92BF3EA1676D3FEBD7BE3E2D8D6D3F25
:1055B0004A1DBE3E93B26D3F8B62BD3ED5D76D3F57
:1055C000AFA7BC3EF2FC6D3FB6ECBB3EEB216E3F9D
:1055D000A031BB3EBE466E3F6E76BA3E6D6B6E3FEF
:1055E0001EBBB93EF88F6E3FB2FFB83E5DB46E3F52
:1055F0002A44B83E9ED86E3F8488B73EBAFC6E3FC0
:10560000C3CCB63EB0206F3FE610B63E83446F3F3A
:10561000EC54B53E30686F3FD698B43EB88B6F3FC0
:10562000A5DCB33E1BAF6F3F5820B33E5AD26F3F4D
:10563000EF63B23E73F56F3F6BA7B13E6718703FE3
:10564000CBEAB03E373B703F102EB03EE15D703F7D
:105650003A71AF3E6680703F49B4AE3EC6A2703F1D
:105660003CF7AD3E02C5703F153AAD3E17E7703FBF
:10567000D47CAC3E0809713F77BFAB3ED42A713F62
:105680000102AB3E7A4C713F6F44AA3EFB6D713F05
:10569000C486A93E578F713FFEC8A83E8EB0713FA9
:1056A0001F0BA83E9FD1713F254DA73E8CF2713F45
:1056B000128FA63E5213723FE5D0A53EF433723FDF
:1056C0009F12A53E7054723F3F54A43EC774723F70
:1056D000C595A33EF894723F33D7A23E04B5723FFE
:1056E0008718A23EEBD4723FC259A13EACF4723F80
:1056F000E59AA03E4714733FEEDB9F3EBE33733FF7
:10570000DF1C9F3E0E53733FB85D9E3E3972733F60
:10571000789E9D3E3F91733F20DF9C3E1FB0733FBC
:10572000AF1F9C3ED9CE733F27609B3E6EED733F0B
:1057300086A09A3EDD0B743FCEE0993E272A743F47
:10574000FE20993E4B48743F1661983E4966743F6F
:1057500017A1973E2284743F00E1963ED5A1743F85
:10576000D220963E62BF743F8D60953EC9DC743F87
:1057700031A0943E0BFA743FBFDF933E2717753F6D
:10578000351F933E1D34753F945E923EED50753F3C
:10579000DD9D913E976D753F10DD903E1C8A753FF3
:1057A0002C1C903E7BA6753F325B8F3EB3C2753F8B
:1057B000229A8E3EC6DE753FFCD88D3EB3FA753F09
:1057C000C0178D3E7A16763F6E568C3E1B32763F62
:1057D00007958B3E974D763F8AD38A3EEC68763F9D
:1057E000F8118A3E1B84763F5050893E249F763FB5
:1057F000938E883E07BA763FC1CC873EC4D4763FAD
:10580000DA0A873E5BEF763FDF48863ECC09773F7A
:10581000CE86853E1724773FAAC4843E3C3E773F20
:105820007002843E3A58773F2240833E1372773F9E
:10583000C07D823EC58B773F4ABB813E51A5773FF5
:10584000C0F8803EB7BE773F2236803EF7D7773F1D
:10585000E1E67E3E10F1773F56617D3E040A783FD7
:10586000A4DB7B3ED122783FCB557A3E773B783F15
:10587000CCCF783EF853783FA649773E526C783FBC
:105880005AC3753E8684783FE83C743E939C783FCB
:1058900051B6723E7BB4783F942F713E3BCC783F3B
:1058A000B2A86F3ED6E3783FAB216E3E4AFB783F0D
:1058B0007F9A6C3E9812793F2F136B3EBF29793F38
:1058C000BA8B693EC040793F2204683E9A57793FBF
:1058D000667C663E4E6E793F86F4643EDC84793F9A
:1058E000836C633E439B793F5CE4613E83B1793FC7
:1058F000135C603E9DC7793FA8D35E3E91DD793F42
:105900001A4B5D3E5EF3793F6AC25B3E04097A3F03
:1059100097395A3E841E7A3FA4B0583EDD337A3F11
:105920008F27573E10497A3F589E553E1C5E7A3F5E
:105930000115543E02737A3F898B523EC1877A3FEC
:10594000F101513E599C7A3F38784F3ECBB07A3FB7
:1059500060EE4D3E16C57A3F67644C3E3AD97A3FB9
:105960004FDA4A3E37ED7A3F1850493E0E017B3FF1
:10597000C2C5473EBE147B3F4D3B463E48287B3F59
:10598000B9B0443EAB3B7B3F0726433EE74E7B3FEF
:10599000379B413EFC617B3F4910403EEA747B3FB0
:1059A0003E853E3EB2877B3F15FA3C3E539A7B3F95
:1059B000CF6E3B3ECDAC7B3F6CE3393E20BF7B3F9F
:1059C000EC57383E4DD17B3F50CC363E53E37B3FC6
:1059D0009840353E31F57B3FC4B4333EE9067C3F09
:1059E000D428323E7A187C3FC99C303EE5297C3F62
:1059F000A2102F3E283B7C3F61842D3E444C7C3FCF
:105A000004F82B3E3A5D7C3F8D6B2A3E086E7C3F4E
:105A1000FCDE283EB07E7C3F5152273E318F7C3FDA
:105A20008CC5253E8A9F7C3FAD38243EBDAF7C3F70
:105A3000B6AB223EC9BF7C3FA51E213EAECF7C3F08
:105A40007B911F3E6CDF7C3F38041E3E03EF7C3FA2
:105A5000DE761C3E73FE7C3F6BE91A3EBC0D7D3F3B
:105A6000E05B193EDD1C7D3F3DCE173ED82B7D3FD0
:105A70008340163EAC3A7D3FB2B2143E59497D3F59
:105A8000CA24133EDE577D3FCC96113E3D667D3FD6
:105A9000B708103E74747D3F8B7A0E3E85827D3F41
:105AA0004AEC0C3E6E907D3FF35D0B3E309E7D3F99
:105AB00086CF093ECCAB7D3F0541083E40B97D3FD6
:105AC0006EB2063E8CC67D3FC223053EB2D37D3FFB
:105AD0000295033EB1E07D3F2E06023E88ED7D3FFC
