:020000040800F2
:10000000C87900205D0200086D58000839490008D1
:10001000E9550008BD120008A968000800000000AA
:100020000000000000000000000000009D0100082A
:10003000471E000800000000F9010008095F0008E1
:1000400077020008770200087702000877020008AC
:10005000770200087702000877020008770200089C
:10006000770200087702000877020008451A0008A6
:10007000511A00085D1A0008691A00087702000882
:10008000751A000877020008770200087702000856
:10009000E9120008770200087702000877020008DA
:1000A000770200087702000877020008770200084C
:1000B000E15F00087702000811600008770200087D
:1000C000770200087702000877020008770200082C
:1000D0007702000869660008D56600082D670008E9
:1000E000770200087702000877020008770200080C
:1000F000770200087702000877020008811A0008DA
:1001000077020008770200087702000877020008EB
:10011000B5630008C1630008770200087702000891
:1001200077020008770200088D1A0008770200089D
:1001300077020008770200087702000877020008BB
:1001400049130008770200087702000877020008C8
:100150007702000877020008991A00087702000861
:10016000770200087702000877020008770200088B
:1001700077020008770200087702000800000000FC
:100180007702000877020008DFF80CD000F048FC86
:100190000048004771A30008C87900202C4B19685B
:1001A0000868B0E8F04F80F30988BFF36F8F4FF015
:1001B000000080F3118870470000000008480068C4
:1001C000006880F308884FF0000080F3148862B65E
:1001D00061B6BFF34F8FBFF36F8F00DF00BF00BF6B
:1001E00008ED00E0DFF80C00016841F470010160E7
:1001F000704700BF88ED00E0EFF30980BFF36F8F19
:10020000134B1A681EF0100F08BF20ED108A20E96A
:10021000F04F106009B44FF0500080F31188BFF325
:100220004F8FBFF36F8F0DF0ADFB4FF0000080F3E9
:10023000118809BC19680868B0E8F04F1EF0100F6B
:1002400008BFB0EC108A80F30988BFF36F8F704746
:10025000B0210020EFF3058070470000064880477A
:1002600006480047FEE7FEE7FEE7FEE7FEE7FEE79B
:10027000FEE7FEE7FEE7FEE7D15F00088901000820
:100280009FED1A1AF5EE000A40EE010ABDEEE00AF3
:10029000F5EEC00A10EE100AF1EE10FA38BF401E5B
:1002A00000EE100A1349F7EE001AB8EEC00A30EE5D
:1002B000C00ADFED0F0A20EE200AFCEEC00A10EEA5
:1002C000900AC0F3080000EE900A01EB8000F8EEFF
:1002D000600A90ED011A70EE600A90ED000A71EE6E
:1002E000E01A21EE800A00EE810A704783F9223E6F
:1002F0000000004424040108DFED190AB5EEC00A2D
:1003000060EE200ABDEEE01A11EE100AF1EE10FACE
:1003100038BF401E00EE100A1349F7EE001AB8EE7F
:10032000C00A30EEC00ADFED0F0A60EE200ABCEE14
:10033000E00A10EE100AC0F3080000EE100A01EB0C
:100340008000B8EE400A90ED011A70EEC00A90ED00
:10035000000A71EEE01A21EE800A00EE810A704771
:1003600083F9223E0000004424040108DFED3C0A2A
:1003700020EE200AFDEEC00AB5EEC00A10EE902A6B
:10038000F1EE10FA38BF521E00EE902ADFF8D8C006
:10039000B0EE084AF8EEE00A30EE600ADFED310A0E
:1003A00060EE200ABCEEE00A10EE102AC2F308024A
:1003B00000EE102A02F180030CEB8202B8EE400A34
:1003C000C3F308030CEB830330EEC00AD2ED000A3E
:1003D00093ED002A93ED011AF1EE601AD2ED010AB5
:1003E00071EE422AF1EE603ADFED200A31EEA31AF7
:1003F00021EE203AB0EE001A41EE213A01EE623AC7
:1004000062EE842A43EEE02A40EE032A60EE222ABE
:1004100041EEA02A00EE222A81ED002AD3ED001A37
:1004200093ED013AD2ED002A92ED012A71EE833A62
:1004300001EE213A32EE622A63EEA03A41EE423AF0
:1004400022EE042A03EE602A00EE232A20EE021A8E
:1004500001EEA01A40EE012AC0ED002A704700000C
:10046000610B363B0000004424040108DB0F493CCB
:100470002DE9F05F0546002092469B4688460646D9
:10048000814640241BE0284641464746224600F06C
:1004900011FA53465A46C01A914110D311461846D4
:1004A000224600F0F8F92D1A67EB01084F46224664
:1004B0000120002100F0EFF917EB00094E41201E4A
:1004C000A4F10104DFDC484631462A464346BDE834
:1004D000F09F40EA01039B0703D009E008C9121FFF
:1004E00008C0042AFAD203E011F8013B00F8013BEE
:1004F000521EF9D27047D2B201E000F8012B491E1A
:10050000FBD270470022F6E710B513460A460446B0
:100510001946FFF7F0FF204610BD421C10F8011BE2
:100520000029FBD1801A70472DE9FE4F804681EAF1
:100530000300C00F0C46009021F0004123F000455D
:10054000B8EB0200A94105D24046214690461C4620
:100550000B46024623F00040104347D0270DC7F357
:100560000A00C3F30A510290401A019040286BDA46
:10057000C3F3130040F4801B0098924620B100237F
:10058000D2EB030A63EB0B0B01985946C0F1400212
:10059000504600F080F906460D4650465946019AED
:1005A00000F098F910EB08006141002487EA11522D
:1005B00084EAE7731A4340D0009A62B3019A012A91
:1005C0004FEA075215DC001B61EB02014FF00042BD
:1005D00002EA0752CDE90042001C41F58011324683
:1005E0002B4600F0CFF903B0BDE8F08F404621461E
:1005F000F9E7001B61EB0201001C41F580130018B4
:100600005B412018A2F5001747EB030140EAD570C3
:10061000B6196D4111E06D084FEA360645EAC0751E
:100620004FEA0752001B61EB0201001C41F58011EB
:1006300049084FEA30000019514132462B4603B0B9
:10064000BDE8F04F00F08FB9009801224000002370
:10065000D0EB020263EBE073009821464FEAE074AE
:10066000B8EB000061EB0401E9E783F000435BE7CE
:1006700081F0004158E72DE9FE4F81EA030404F0C0
:10068000004421F0004100944FF0000B23F00043A0
:1006900050EA01045ED052EA03045BD0C3F30A546B
:1006A000C1F30A552C44A4F2F3340194A0FB025484
:1006B000C1F3130141F48011C3F3130343F4801316
:1006C00001FB024400FB034E840A970A44EA81546A
:1006D00047EA8357A4FB076802958D0A05FB078547
:1006E0004FEA932C04FB0C542705029D4FEA065851
:1006F00047EA1637B5EB08056EEB070C870E920E2E
:1007000047EA811742EA8312A7FB0201B6EB0B010D
:1007100064EB00042B0D43EA0C335E1844EB1C50D1
:10072000DA465146E7FB0201C5F313044FEA0B33E7
:1007300043EA14534FEA0432019C43EA0603A4F14E
:100740000C040294009CCDE900B400F01BF903B046
:10075000BDE8F08F00200146F9E72DE9F04D81EA70
:10076000030404F0004B21F0004514464FF0000A4A
:1007700023F0004150EA050220D054EA01021DD0C6
:10078000C5F30A570246C5F31303C1F31300C1F3BF
:100790000A5640F4801543F48013A7EB0608101B9B
:1007A000D64608F2FD3873EB050002D308F10108C4
:1007B00001E092185B41B8F1000F03DA0020014616
:1007C000BDE8F08D00204FF48011064684460EE00F
:1007D000171B73EB050705D3121B63EB05030643D9
:1007E0004CEA010C49084FEA300092185B4150EA8C
:1007F0000107EDD152EA030012D082EA040083EA35
:100800000501084305D0101BAB4106D2012200238D
:1008100006E000224FF0004302E06FF001025310A7
:100820001AEB06004CEB085110EB0A0041EB0B01F0
:10083000BDE8F04D00F097B800F0004230F0004005
:100840000AD0C10D01F56071C0F3160042EA0151F2
:10085000C20840071143704700200146704701F06D
:10086000004330B421F0004150EA010206D00A0DE5
:10087000A2F56072C1F31301002A02DC30BC002033
:100880007047440F44EAC104C100E01830BC00EBDB
:10089000C25000F031B8202A04DB203A00FA02F1FD
:1008A000002070479140C2F1200320FA03F319435E
:1008B00090407047202A04DB203A21FA02F0002100
:1008C000704721FA02F3D040C2F120029140084360
:1008D00019467047202A06DBCB17203A41FA02F06E
:1008E00043EAE07306E041FA02F3D040C2F120028D
:1008F00091400843194670470029A8BF7047401C23
:10090000490008BF20F00100704710B4B0FA80FC25
:1009100000FA0CF050EA010404BF10BC704749B162
:10092000CCF1200421FA04F411FA0CF118BF0121D2
:1009300021430843A3EB0C01CB1D4FEA00614FEAB2
:10094000102042BF002010BC704700EBC350104481
:100950000029A4BF10BC7047401C490008BF20F00C
:10096000010010BC704710B5141E73F1000408DAC2
:10097000401C41F1000192185B411A4301D120F063
:10098000010010BD2DE9F04D92469B4611B1B1FA20
:1009900081F202E0B0FA80F220329046FFF77BFF4E
:1009A00004460F4640EA0A0041EA0B0153465A4604
:1009B000084313D0114653EA010019D0C8F1400290
:1009C0005046FFF777FF05460E46504659464246C9
:1009D000FFF761FF084305D0012004E020463946B7
:1009E000BDE8F08D0020054346EAE0762C4337430E
:1009F0000A986305E40AA0EB08000022FD0A44EA15
:100A000047540A3002D500200146E9E701051019D4
:100A10006941DDE9084500196941BDE8F04DA2E7EB
:100A2000064C074D06E0E06840F0010394E807003B
:100A300098471034AC42F6D3FFF7AAFBA40D010887
:100A4000C40D01082DE9F04D00231A461B1A8A41F6
:100A500003DB00200146BDE8F08DC1F30A52C1F36B
:100A6000130141F480154FF0000BD10702D100189B
:100A70006D41521E0027044640F2FF11384601EB3B
:100A8000620A3E468046024600204FF48011FFF77E
:100A900011FFC2197141BB1846EB0100B4EB030C06
:100AA00075EB000C04D3E41A65EB000517460E46FF
:100AB000241908F101006D4180463428E3DDF9195D
:100AC00046EB0600091BA84103D24FF0FF32134644
:100AD00001E0002213461BEB070046EB0A51BDE87C
:100AE000F04DFFF740BF70B58C1810F8015B15F0A2
:100AF000070301D110F8013B2A1106D110F8012B90
:100B000003E010F8016B01F8016B5B1EF9D12B07B4
:100B100005D40023521E0DD401F8013BFAE710F86A
:100B2000013BCB1A921C03E013F8015B01F8015B57
:100B3000521EF9D5A142D8D3002070BD464910B548
:100B40004A6822F440324A604A6843681A434A605D
:100B500001684A6822F480724A6001684A68036941
:100B600042EA03224A6001684A6822F040724A6001
:100B700001684A6883681A434A6001688A6822F4F7
:100B800000628A6001688A68C3681A438A60816A61
:100B90006FF07062D14201688A6822F070628A60E8
:100BA00001688A680CD0836A1A438A6001688A687F
:100BB00022F040528A6001688A68C36A1A4301E0E1
:100BC00022F040528A6001688A6822F002028A603C
:100BD00001688A68037E42EA43028A6090F8201026
:100BE000002901684A680FD042F400624A60016837
:100BF0004A6822F460424A6001684A68174C436AB6
:100C000004EB43331A4301E022F400624A600168B6
:100C1000CA6A22F47002CA620168CA6A838B104CE5
:100C200004EB03531A43CA6201688A6822F4007213
:100C30008A6001688A6890F8303042EA43228A600C
:100C400001688A6822F480628A6001688A68406963
:100C500042EA8020886010BD0023014000E0FFFFD1
:100C60000000F0FF144800B5807F022822D101F077
:100C700039FAF8B11149886890ED320AB5EEC00A28
:100C8000F1EE10FA01DCB1EE400A10EE102A0C4829
:100C900082420FDA896991ED320AB5EEC00AF1EEAF
:100CA00010FA01DCB1EE400A10EE101A814201DAAE
:100CB000012000BD002000BD30000020541900209C
:100CC0000000A04110B501F0ABFA04F041FF012093
:100CD00010BD000030B50C4605000CD0022C0AD91E
:100CE0000548A11E0288284601F0EAFA291901F8F0
:100CF000020D000A487030BD7821002030B50C4646
:100D000005000AD0022C08D9601E81B2FF222846B5
:100D100001F0ECFA291901F8010C30BD2DE9F04180
:100D200016462DED0C8B0F468046B3F90030DDE9F9
:100D3000151000EE103ADDE91352B8EEC01AFE4C61
:100D4000DDF848C084ED0E1ABCF9003000EE103A10
:100D5000B8EEC00A84ED0F0AB5F90030032593FB05
:100D6000F5F31BB203EB430300EE103AB8EEC00AF2
:100D700084ED100AB2F9002000EE102AB8EEC00A85
:100D800084ED110AB1F9001000EE901AF8EEE01AA5
:100D9000C4ED121AB0F9000020EE210A00EE900A0C
:100DA000F8EEE00AC4ED130A20EE200AB5EEC00A00
:100DB000F1EE10FA7DD0E14D297B9FEDE18AFDEE49
:100DC000C10AB0EE480A10EE900A00B209F0A2FA89
:100DD00084ED0E0AD4ED0F0A297BB0EE480AFDEE31
:100DE000E00A10EE900A00B209F094FA84ED0F0ABE
:100DF000D4ED100A297BB0EE480AFDEEE00A10EEB1
:100E0000900A00B209F086FA94ED0E1ADFEDCD0AD1
:100E100021EE201A20EE200A84ED0E1A94ED0F1A0E
:100E200021EE201A84ED0F1A84ED100AD4ED110A78
:100E3000297BB0EE000AFDEEE00A10EE900A00B247
:100E400009F07CFA84ED110AD4ED120A297BB0EE88
:100E5000000AFDEEE00A10EE900A00B209F06EFA08
:100E600084ED120AD4ED130A297BB0EE000AFDEEE0
:100E7000E00A10EE900A00B209F060FA84ED130A5D
:100E8000B0EE401A94ED110A60EE000A94ED120AD9
:100E900040EE000A41EE010AB0EE600A09F0ECF8FB
:100EA00084ED070AD4ED110A20EE805A84ED115A20
:100EB00000E077E1D4ED120AB0EE008A60EE803AED
:100EC000C4ED123AD4ED130A60EE802AC4ED132A61
:100ED00094ED040AD4ED060AD4ED031A94ED051A34
:100EE00020EE202A01EEC12A22EE084A21EE802AB5
:100EF00084ED084A01EE202A62EE084A21EEA12A7A
:100F0000C4ED094A00EE402A01EE412A00EEA02A73
:100F100084ED0A2A23EE823A02EEE43A62EE842A53
:100F200045EE422A25EE242A84ED0B3A03EEC42A2C
:100F3000C4ED0C2A84ED0D2A94ED144AD4ED013A47
:100F400003EE234A84ED144AD4ED155A42EEA35A17
:100F5000C4ED155A94ED165A02EE235A84ED165A32
:100F6000D4ED0E3AD4ED004A44EE833A33EE843A9F
:100F700084ED0E3AD4ED0F3A44EEA23A73EEA53A60
:100F8000C4ED0F3AD4ED102A61EEA35A44EE822A42
:100F900020EE432A61EE834A01EE632A72EE852A2F
:100FA000B0EE615AC4ED102A41EE224AC4ED171A80
:100FB00084ED180A00EEE22A84ED191AC4ED1A0A2B
:100FC00094ED024A40EEE34A40EE625A02EE045AC1
:100FD000B0EE402A04EE842A84ED035A84ED042AFC
:100FE00061EEA21A40EE835AF0EE414A40EE231A17
:100FF00025EE050A45EE844A02EE020A41EE431A46
:10100000C4ED054A04EEA40A41EE840AC4ED060AC2
:1010100000EEA00A09F030F884ED070AD4ED030AC7
:1010200020EE80BA84ED03BAD4ED040A20EE809A53
:1010300084ED049AD4ED050A60EE809AC4ED059A19
:10104000D4ED060A60EE808A2BEE0B0AC4ED068A08
:1010500009EE490A09EEE90A08EEA80A10EE100A9C
:10106000FFF7EAFB29EE880A6BEE080A41EC1A0B3F
:1010700020EE280A00EE890A10EE100AFFF7DCFBCA
:1010800041EC100BB0EE4A1AF0EE6A1A06F01CF8AA
:101090009FED2D9B51EC100B53EC192BFFF7EBFA46
:1010A000FFF7DDFB94ED040AD4ED060A94ED051A72
:1010B00020EE080A08EE900A20EE200AD4ED030A7A
:1010C00060EE880A00EEC10A10EE100AFFF7B4FBCA
:1010D00041EC100B05F0DCFC9FED1D1B51EC100BDF
:1010E00053EC112BFFF7C7FAFFF7B9FB94ED03DAC6
:1010F000D4ED04AA94ED05AA2DEE0D0AD4ED06BA9E
:101100000BEE100A0AEEAA0A0AEE4A0A0BEEEB0AE6
:1011100010EE100AFFF790FB2AEE8A0A41EC1C0B36
:101120000DEE2B0A20EE080A10EE100AFFF784FBE2
:1011300041EC100B10E0000004050020D82700202F
:101140000000FA44728A8E3C0000006066A64C40A3
:101150000000006066A64CC0B0EE4C1AF0EE6C1AAF
:1011600005F0B2FF53EC192B51EC100BFFF783FA8B
:10117000FFF775FBDFED0E0A9FED0E0A01EE100A78
:1011800078EEA01A61EE801AC7ED001A7BEE201AE5
:1011900071EE200A61EE801A20EE800AC8ED001A76
:1011A00086ED000A0020BDEC0C8BBDE8F08100004C
:1011B00000003443440BB6412DE9F0478046914688
:1011C0000F46122003F098FE0446132003F094FE0D
:1011D00044EA0026142003F08FFE0446152003F095
:1011E0008BFE44EA0025162003F086FE04461720F5
:1011F00003F082FEA8F8006044EA00203D80A9F8D0
:101200000000BDE8F0872DE9FE4F1546DDE90C9A98
:101210000E4607460C221C466946104603F092FE15
:10122000BDF80080BDF802C0BDF80430BDF806204E
:10123000BDF80810BDF80A00A4F80080A9F800C0A5
:10124000AAF800303A8031802880BDE8FE8F000087
:1012500038B5194807F07AF806F0ECFC164806F0A5
:10126000ADFC044606F0E6FC24BB01208DF800002E
:101270000146114A684607F0F7F806F0DBFC0E4815
:1012800004F01AFD00208DF800000B4A0121684689
:1012900007F0EAF806F0CEFC074804F0E3FC022071
:1012A0008DF80000044A0121684607F0DDF8044685
:1012B00006F0C0FC204638BDD8270020FEE700001D
:1012C00000B58BB0684600F05FF86946054801F04C
:1012D00001FA0221034801F087F9024801F012FDEA
:1012E0000BB000BD3C310020014801F0EEBA000017
:1012F0003C3100200A460146014800F07FB800005A
:101300003C31002070B50C46054603F093FD0348C0
:10131000214682692846BDE870401047300300200E
:1013200000B58BB0684600F02FF86946054801F01B
:10133000D1F90221034801F057F9024801F0E2FC1B
:101340000BB000BD64310020014801F0BEBA0000BE
:10135000643100200A460146014800F04FB8000001
:101360006431002070B50C46054605F08DFA214623
:10137000284603F08DFD0348214682692846BDE8D2
:1013800070401047300300200021016041608160FF
:10139000C160016101224161C0E90612C0E9082172
:1013A0007047000010B5124A016891420DD1114BEF
:1013B00000211C46A3F11C0201F013FA0D4821463E
:1013C0001C380068FFF79EFF10BD0B4A9142FBD10D
:1013D000084B002124331C46A3F11C0201F001FA42
:1013E0000448214608300068FFF7BCFF10BD00002C
:1013F00000640040042E00200068004038B50B4611
:10140000164C0168A14201D1154904E0154CA142D6
:1014100022D1134920310B6000238B60CB6008235D
:101420000B6113881B0A0B7613784B7653881B0AC3
:101430008B769378CB7693881B0A0B7713794B774F
:10144000D3881B0A8B779279CA776B4601F1180211
:1014500001F0DCF8002800D0012038BD0064004015
:10146000302E0020006800401CB50022009201923E
:10147000027B6B462DF81210017831B1012903D19E
:1014800080681946FFF766FF1CBD80681946FFF7A4
:1014900031FF1CBD70B50B46302822D1124D188883
:1014A0006E4240BA00B2DFED0F0AB3EE0E0A2A46D2
:1014B000314608F0F7FD0D4CFBEE040A2A4684ED98
:1014C000000A5888B3EE040A40BA00B2314608F068
:1014D000E9FD84ED010A9888054940BA2081002081
:1014E000088170BD000000000083FFFFCC270020B2
:1014F000300300202DE9F05F0CACDDE90AC794E869
:10150000400CDDF83C900446002500BF11F8058032
:1015100004F805806D1CEDB2032DF7D314F8031FFA
:101520000F3062F3020141F038012170218863F32A
:101530008911218061786CF385016170B4F8011024
:1015400067F38E11A4F80110618866F3CF116180F2
:10155000A2886AF30902A280B4F805206BF38C021A
:10156000A4F80520E28869F34F12E28021894EF247
:1015700003026FF309012181B4F809101140A4F8A6
:101580000910A17A1C2201F01F016181054904465E
:10159000FEF79FFF324620461099BDE8F05FFEF748
:1015A00098BF00004801002010B504F04DF9134821
:1015B000C07A08B900F05CFE00F070FE05F00CFA8D
:1015C000B5EEC00AF1EE10FA02DD05F005FA03E00F
:1015D00005F002FAB1EE400A0948B1EE041A80683B
:1015E000D0ED2F0A70EE810AB4EEE00AF1EE10FAA7
:1015F00001D2012010BD022010BD000030000020EB
:101600005419002005F05AB970B51A4CA5201A4D8E
:1016100004F8010B512020800020A07005F5807097
:1016200050F84F1F29600079287105212846FFF7DF
:1016300065FB40F20130A080104A40F20310E080C8
:10164000507A2081508A6081D2E905010BF078FB45
:1016500034F8042B2146681D921CFEF73AFF5A21EC
:101660002846FFF737FB2846BDE870405A21FFF7B0
:10167000C9BF00007F230020302200200C01002081
:1016800070B51A4CA5201A4D04F8010B512020808A
:101690000020A07005F5C07050F8291F296000795E
:1016A000287105212846FFF729FB40F20130A08070
:1016B00040F20310E0800F48417A2181418A618124
:1016C00090ED0C0A08F0CAF934F8042B2146681D85
:1016D000921CFEF7FEFE5A212846FFF7FBFA284629
:1016E000BDE870405A21FFF78DBF0000D9230020CC
:1016F000302200200C01002070B51B4CA5201B4E91
:1017000004F8010B242020800020A07006F58070D2
:1017100050F8221F31600079307105213046FFF703
:10172000EDFA40F20130A080114D4FF48170E0805D
:10173000687A2081688A608128790BF041FE287AD6
:1017400008F080FF34F8042B2146701D921CFEF730
:10175000C0FE2D213046FFF7BDFA3046BDE870408F
:101760002D21FFF74FBF0000522300203022002020
:101770000C01002070B5194CA520184D04F8010B80
:10178000332020800020A070E63D05F1800050F855
:10179000661F29600079287105212846FFF7AEFAF7
:1017A00040F20130A0804FF48870E0800C48417A0C
:1017B0002181408A608100F0CBFB34F8042B214664
:1017C000681D921CFEF785FE3C212846FFF782FA31
:1017D0002846BDE870403C21FFF714BF16230020C7
:1017E0000C01002010B52D482D4C0178A1704178D6
:1017F000E17081782171C17861718179E1714179FC
:10180000A171007A2072274800680088A0F5D050A6
:101810007D3800EE100AB8EEC00A03F0CBFADFED17
:10182000220A9FED221A224820EE200ADFED211A1B
:1018300040EE410A9FED201AC4ED0C0A4068D0ED3D
:10184000000A1E48C4ED0A0A80EEA10A20EE010A31
:10185000BCEEC00AB8EE400A84ED0D0A90F84710BD
:101860006172B0F8B600608210EE900A14498842A6
:1018700001DDC4ED0A1A10EE100A1249884202DD99
:10188000B0EE410A06E010EE100AB0F17E5F01DA18
:10189000B7EE000A84ED0D0A10BD0000F82200200A
:1018A0000C010020541900200000B443000000394E
:1018B000300300200000C4410000C8422004002082
:1018C0000000C4410000C84270B51B4CA5201B4D50
:1018D00004F8010B152020800020A07005F5007091
:1018E00050F85D1F29600079287105212846FFF70F
:1018F00005FA40F20130A080114940F20110E08069
:10190000487A2081488A6081D1ED0D0A91ED0A0A5A
:101910000BF0C8FD34F8042B2146681D921CFEF71D
:10192000D8FD1E212846FFF7D5F92846BDE87040AE
:101930001E21FFF767BE00008D240020302200200A
:101940000C01002010B500F0E1FCBDE8104004F0EF
:1019500041BF10B5044601704078884203D06170E1
:101960000020207102E02079012804D0204600F0F8
:1019700015F8207110BD2046BDE81040AFF300807F
:1019800000780121044A022803D0012800D1917077
:101990007047D170704700003000002010B5044639
:1019A000022020712078022805D0012806D00120CD
:1019B0002071C0B210BD04F066F8F9E703F02CF90D
:1019C000F6E70000064900208870C8704872087267
:1019D00088728874C8744874C873024988817047D3
:1019E000300000200C02002010B50C4C94F82200AE
:1019F000002812D00A480068407D00280DD0207CC5
:101A000000280AD1A07B002807D1A26B032104F192
:101A10000C009047002084F8220010BD3000002008
:101A200050020020064800684078022805D00328AC
:101A300003D0052801D00020704702207047000025
:101A400004040020014801F051BA0000F0330020E6
:101A5000014801F04BBA000030360020014801F087
:101A600045BA000090330020014801F03FBA000061
:101A7000D0350020014801F039BA0000703500204F
:101A8000014801F033BA000050340020014801F051
:101A90002DBA0000B0340020014801F027BA000040
:101AA000103500202DE9F04F85680024099E802D17
:101AB00018D0894DC563894D456490F83450012D87
:101AC00015D0012580F8345090F83550012D10D0F4
:101AD000002180F834100224002180F834102046C0
:101AE000BDE8F08F4FF4807141650120F8E70220D6
:101AF000F6E7022580F835500025456505682F6812
:101B000047F480272F6005682B6103685E60836857
:101B1000402B03682AD099600168CA60714D704EED
:101B2000704FDFF8BC81DFF8B891DFF8B8A1DFF8BB
:101B3000B4B1EA14DFF8A8E101681836303793022F
:101B4000A9F148090AF1600A0BF1180BAEF1300E49
:101B50004FF0006C41452DD9A94205D0494503D02D
:101B6000514501D0B14205D1202220E09A6002689F
:101B7000D160D3E759451AD0714518D0594D783501
:101B8000A94214D0564D3035A94210D0B9420BD0DD
:101B9000534A183A914207D0524A9032914203D0A8
:101BA0004F4A4832914201D11A4600E062464C4900
:101BB0004C392EE0DFF82C8108F1A80841452AD9DC
:101BC000A94205D0494503D0514501D0B14201D1C8
:101BD00020221CE059451AD0714518D0414D783566
:101BE000A94214D03E4D3035A94210D0B9420BD095
:101BF0003B4A183A914207D03A4A9032914203D078
:101C0000374A4832914201D11A4600E062463449CF
:101C100050390A605AE0DFF8CC8008F148084145A5
:101C20002AD9A94205D0494503D0514501D0B14236
:101C300001D120221CE059451AD0714518D0294DF8
:101C40007835A94214D0264D3035A94210D0B9427A
:101C50000BD0234A183A914207D0224A903291423F
:101C600003D01F4A4832914201D11A4600E0624631
:101C70001C491039CA6029E0A94205D0494503D062
:101C8000514501D0B14201D120221CE059451AD062
:101C9000714518D0134D7835A94214D0104D303508
:101CA000A94210D0B9420BD00D4A183A914207D040
:101CB0000C4A9032914203D0094A4832914201D1F4
:101CC0001A4600E06246074910398A6001680A68CE
:101CD00042F001020A60FFE6758A00088D8A00085A
:101CE000586402401060024001681823CAB2103ADA
:101CF000B2FBF3F2054B6FF30901032A9B5CC3654A
:101D000000D9091D81650846704700001C040108C0
:101D100010B5014600208B698A6A4FF0C07453B138
:101D2000B3F5005F15D072B1012A0CD0022A0AD097
:101D3000032A09D104E01AB1012A06D0022A03D1EC
:101D4000C96AC90100D5012010BDC96AA142FAD0F3
:101D500010BD002AF7D0012AF2D0022AF3D0032ABC
:101D6000F3D010BD30B50468256825F480252560C2
:101D7000046863608368402B036803D0996000683F
:101D8000C26030BD9A600068C16030BD70B590F827
:101D900034500024012D0CD0012580F8345090F8E7
:101DA00035600025012E06D080F8345002242046EC
:101DB00070BD022070BD022680F83560456505685B
:101DC0002E6826F480262E6005686B608368402BA1
:101DD000036808D099600168CA600068016841F032
:101DE00001010160E3E79A600268D160F5E710B590
:101DF00004F07CFCFFF764FAFFF792FA03F0B4FDFD
:101E000004F0BEFC04F09EFCBDE8104004F038BCB9
:101E100001680A68D20604D5C968C90601D50BF065
:101E200087BB704770EE601AF5EEC01AF1EE10FA3B
:101E300001DC70EEC01AF4EEC11AF1EE10FA01D214
:101E4000B0EE600A70477047F0B5404890F8471010
:101E50000A2945D20122A0F89C200222A0F89E2047
:101E60000322A0F8A0200422A0F8A2200522A0F8B6
:101E7000A42040F201170622A0F8A6207E1C07220B
:101E8000A0F8A820751C6C1CA0F8AA70A0F8AC6083
:101E9000631CA0F8AE50A0F8B0405A1CA0F8B230B5
:101EA000A0F8B42001290CD002290DD003290ED0AE
:101EB00004290FD0052910D0062901D1A0F8B62099
:101EC000F0BDA0F8B670F0BDA0F8B660F0BDA0F807
:101ED000B650F0BDA0F8B640F0BDA0F8B630F0BDE9
:101EE0006522A0F89C206622A0F89E206722A0F818
:101EF000A0206822A0F8A2206922A0F8A42040F225
:101F000065176A22A0F8A6207E1C6B22A0F8A820E4
:101F1000751C6C1CA0F8AA70A0F8AC60631CA0F83B
:101F2000AE50A0F8B0405A1CA0F8B230A0F8B420CF
:101F30006529C6D06629C7D06729C8D06829C9D005
:101F40006929CAD06A29B9D0F0BD00002004002058
:101F50002DE9F0432B4C01250A26A07ADFF8A88052
:101F600087B00827F8B140F27629012834D002283A
:101F700016D104F19600FEF7D0FA4FF4D76300971C
:101F8000CDE9035304F19602CDE90592CDE9016054
:101F9000002301221DA14046FFF7ACFA0020A072E9
:101FA00007B0BDE8F08317485A30FEF7B6FA4FF491
:101FB000347240F2D7331349CDE904325A310691D5
:101FC000CDE90205CDE900760023012210A14046AB
:101FD000FFF790FAA572E3E70A487830FEF79DFA1A
:101FE00032230097CDE90353064A00237832CDE926
:101FF0000592CDE90160012206A14046FFF77AFA79
:102000000220CCE70C01002023230020434C3700A2
:10201000434C3200434C340072B6FEE710B500F07A
:10202000FFF800F003F8012010BD00000448C17C57
:1020300021B1012901D10021C17470470121FBE7C1
:10204000300000202DE9F04F0024DDE90C65DDE9CA
:102050000A97DDE9108ADDF838E0DDF824B000BF2A
:1020600011F804C000F804C0641CE4B2032CF7D3D8
:1020700010F8031F62F3020163F3C50101700288C7
:102080006BF389120280427869F385024270B0F8DE
:10209000011067F38E11A0F80110418866F3CF118B
:1020A0004180818865F309018180B0F805206EF3D5
:1020B0008C02A0F80520C2880F9961F34F12C280EC
:1020C000018968F309010181B0F809206AF38C02E3
:1020D000A0F809204289129961F34F124281BDE8AC
:1020E000F08F000004480068017BC01C11B9007A21
:1020F000002800D00120704704040020194882689D
:1021000092ED020AB5EEC00AF1EE10FA01DCB1EE72
:10211000400A10EE103A14498B421FDA92ED000A81
:10212000B5EEC00AF1EE10FA18D0827BB2B982691E
:1021300092ED020AB5EEC00AF1EE10FA01DCB1EE42
:10214000400A10EE103A8B4208DA92ED000AB5EE22
:10215000C00AF1EE10FA01D0807F08B1002070476C
:10216000012070473421002000002F4410B50446A0
:1021700001704078884203D061700020207202E034
:10218000207A012805D0204600F022F8207201288C
:1021900004D12046BDE8104000F002B810BD000098
:1021A000007807280CD00121084A012809D0062808
:1021B00006D0032804D0042805D0022800D1D1730A
:1021C00070479174704751747047000030000020D0
:1021D00010B50446022020722078012207280AD078
:1021E00003280DD004280ED006280FD0012810D0C7
:1021F000022811D001E000F013F82272207A10BDFD
:1022000003F0BCFC0AE003F0C2FC07E0FFF706FFA6
:1022100004E002F0E5FD01E0FEF754FD2072EDE779
:102220000248002181744174704700003000002092
:1022300010B500F033F8BDE8104000F007B810B555
:1022400000F02CF8BDE8104000F012B806489FEDF1
:10225000050A806980ED300A9FED040A80ED500A7E
:102260007047000000F07F45541900200070D545EC
:102270000848006890ED010A0748816981ED300A3D
:102280000069008800EE100AB8EE400A81ED500A9D
:1022900070470000D80200205419002010B50648ED
:1022A00002F078FC0548006890ED000A024880685A
:1022B00080ED300A10BD000054190020D802002023
:1022C00010B558B1084C491E0BD310F8013B5340D0
:1022D000DBB234F8133083EA1222F4E74FF6FF70D2
:1022E00010BD104610BD0000D000010810B5064C0E
:1022F00004E000BF10F8013B5340E25C491E89B284
:10230000F8D2104610BD0000D0FF00082DE9F041C2
:102310002F4D01262F4CA87C002710B1012802D098
:1023200002E0667000E06770E87C012804D1FFF7E6
:10233000E5FE08B1267002E0E87C00B92770A87AB3
:102340004FF00208012805D0A770E87B01280CD0C7
:10235000F8B11FE095F82700022804D00328F4D133
:1023600084F80280F1E7A670EFE795F8210010B13C
:102370000320E0700EE004F043FB022804D0FFF7D6
:1023800051FB022802D005E0E67003E084F80380E8
:1023900000E0E770287A012803D0687A012802D08B
:1023A00002E0277200E02672FEF75CFC08B126719D
:1023B00000E0277195F82600012804D0022804D0F7
:1023C0006772BDE8F0816672FBE784F80980F8E780
:1023D00030000020F822002010B503F035FAFFF796
:1023E0002EFF012010BD000078B50024009490F865
:1023F0003C20012A19D0012280F83C200A680723DA
:102400000568092A13D9EE680A3A02EB42029340A2
:102410009E43EE600B788A680A3B03EB43039A40C5
:102420000368DD682A43DA6010E0022078BD2E6977
:1024300002EB420293409E432E610B788A6803EBC5
:1024400043039A4003681D692A431A614A681F239F
:10245000072A13D205686E6B521E02EB820293406C
:102460009E436E630B790A885B1E92B203EB830373
:102470009A4003685D6B2A435A6327E005680D2A7A
:1024800012D22E6BD21F02EB820293409E432E6328
:102490000B790A88DB1F92B203EB83039A4003682F
:1024A0001D6B2A431A6311E0EE6A0D3A02EB8202B9
:1024B00093409E43EE620B790A880D3B92B203EB88
:1024C00083039A400368DD6A2A43DA62164B056883
:1024D000144A9D4206D10D68122D03D1556845F46A
:1024E0008005556005689D4218D10B68102B01D0FE
:1024F000112B13D1536843F400035360096810296A
:102500000CD10A490A4A0968B1FBF2F101EB8101D9
:10251000490000E0491E00910029FBD180F83C40B1
:10252000002078BD0023014000200140AC210020A4
:1025300040420F0070B504004FF0000503D0206C3E
:10254000002610B107E0012070BD204600F01CF805
:10255000666484F83C60206CC00610D4206C20F4C3
:10256000885040F0020020642046FEF7E7FA6664D7
:10257000206C20F0020040F00100206400E0012502
:1025800084F83C60284670BD10B586B0044614211E
:102590006846FDF7B7FF1149206888421CD11048F2
:1025A0000021026842F480720260006800F48070CA
:1025B00005900B481438026842F00402026000687B
:1025C00000F004000590012000900320CDE90101F6
:1025D0006946044800F0FCFD06B010BD0020014033
:1025E000443802400008024090F82020012A07D019
:1025F000022A05D0416A41F48021416201207047DE
:10260000006842690A43426100207047F0B590F8C3
:1026100020500468A468012D05D0022D03D0416A22
:1026200041F4802153E014F0406F01D1E5004BD517
:10263000C4F30164022C03D9416A41F4000146E06D
:102640000125A5401D608D684FF4C0739DB1CE6813
:1026500035434E6845EAC605066803EB0417F55195
:102660004FF4C275076805EB04150E697E51097DAC
:10267000012905D009E00E88CD6845EA4655EBE70B
:1026800001684E5946F480764E511179D2F80550C2
:102690004FF4C67641EA0525016806EB04168D5114
:1026A0001178D2F801204FF4C47541EA0221026882
:1026B00005EB04155151006803EB0411425842F038
:1026C000010242500020F0BD416A41F40011416214
:1026D0000120F0BD10B590F82020012A07D0022A71
:1026E00005D0416A41F480214162012010BD3B4880
:1026F000D0F8002242F00102C0F80022D0F80022F7
:1027000022F47C52C0F80022D0F800224B6A42EA40
:102710000322C0F800220A7D02F01F0301229A4022
:10272000D0F81C329343C0F81C32CB69B3B9D0F84F
:102730000C329343C0F80C328C894B6864F31F430E
:102740004C6900EBC404C4F840320C890B6864F394
:102750001F434C6900EBC404C4F84432CB69012B1D
:1027600016D1D0F80C321343C0F80C320C884B68E9
:1027700064F31F434C6900EBC404C4F840320C8975
:10278000CB6864F31F434C6900EBC404C4F84432C3
:102790008B69002BD0F804320ED01343C0F80432FA
:1027A0000B69002BD0F8143208D01343C0F8143250
:1027B000096A012904D008E09343EFE79343F5E762
:1027C000D0F81C121143C0F81C12D0F8001221F0EE
:1027D0000101C0F80012002010BD0000006400409C
:1027E000704730B590F82040012C05D0022C03D062
:1027F000416A41F480215DE00468002955D02469D4
:10280000A40754D04FF4D874056804EB01142D5973
:1028100015F00405956005682D594ED0ED085560FA
:1028200005682C5904F00204D4604FF4DA7405688A
:1028300004EB01142D5905F00F05156105682D599C
:10284000C5F30725956105682C59240C54614FF494
:10285000DC72046802EB0112A4581C700468A458CE
:10286000240A5C700468A458240C9C700468A25864
:10287000120EDA704FF4DE72046802EB0112A458F3
:102880001C710468A458240A5C710468A458240CC0
:102890009C710468A258120EDA71006881B1016956
:1028A00041F020010161002030BDE468A8E7416AE1
:1028B00041F400114162012030BD6D0D1560AFE79C
:1028C000C16841F02001C160EDE72DE9F05F0546E8
:1028D000006800244669D0F804908768D0F80CB0EE
:1028E000D0F810A0D0F81880F10748D0F90714D01C
:1028F00001218160B80703D5284600F030FA0CE0CA
:10290000780702D54FF4006407E0380702D54FF48A
:10291000805402E0284600F021FAF80516D529680F
:102920004FF480708860B80503D5284600F019FA86
:102930000CE0780502D544F4005407E0380502D5D0
:1029400044F4804402E0284600F00AFAF80316D561
:1029500029684FF480308860B80303D5284600F01A
:1029600002FA0CE0780302D544F4004407E038038F
:1029700002D544F4803402E0284600F0F3F9300731
:1029800007D55FEACB6004D52968102044F40074B1
:10299000C86070074FF0080707D55FEA0B7004D5D1
:1029A0002868C760284600F099F9B00706D528685E
:1029B000C068800702D0284600F092F9700607D55B
:1029C0005FEACA6004D52968102044F48064086175
:1029D000B00607D55FEA0A7004D528680761284663
:1029E00000F08CF9F00606D528680069800702D04F
:1029F000284600F084F9B00308D55FEAC96005D520
:102A0000296810204860284600F07AF9F00307D5BD
:102A10005FEA097004D528684760284600F0A4F9E9
:102A2000300446D55FEA497040D5F00504D55FEA29
:102A3000C87001D044F00104B00504D55FEA887085
:102A400001D544F00204700504D55FEA487001D551
:102A500044F00404300529D518F0700F26D008F092
:102A60007000402815D006DC102809D020280AD094
:102A7000302816D10AE050280ED0602811D10EE07F
:102A800044F008040DE044F010040AE044F020048F
:102A900007E044F0400404E044F0800401E044F422
:102AA00080742868816921F070018161296804209F
:102AB0004860002C05D0686A204368622846FFF70A
:102AC0008FFEBDE8F09F70B5040003D094F820009D
:102AD00010B104E0012070BD204600F081F82068AC
:102AE000016821F00201016000F076FC0546052630
:102AF00004E000F071FC401B0A2811D820684068EF
:102B00008007F6D42068016841F00101016000F0FF
:102B100063FC05460BE000F05FFC401B0A2806D969
:102B2000606A40F40030606284F82060D2E7206878
:102B30004068C007EFD0207E0128206801683DD0A2
:102B400021F080010160607E01282068016838D092
:102B500021F040010160A07E01282068016833D087
:102B600021F020010160E07E0128206801682ED05C
:102B700041F010010160207F01282068016829D000
:102B800021F008010160607F01282068016824D0DD
:102B900021F004010160D4E902010843D4E90412E0
:102BA000114308436168491E08432168C861002039
:102BB0006062012084F82000002070BD41F0800197
:102BC000C0E741F04001C5E741F02001CAE721F02C
:102BD0001001CFE741F00801D4E741F00401D9E743
:102BE000F0B587B0044614216846FDF78BFC364BE0
:102BF0003648DFF8D0E01968D4F800C0334A03251E
:102C00000226092710300024491CF44522D11960FE
:102C1000012907D1016841F000710160006800F0EE
:102C200000700590106840F0080010601068CDE951
:102C3000005600F00800CDE9047069462448CDE94B
:102C4000024500F0C5FA00220521142000F084FCA2
:102C5000142032E0DFF87CE0F44530D1D0F800C039
:102C60004CF0806CC0F800C0D0F800C001290CF016
:102C7000806CCDF814C0196007D1016841F0007173
:102C80000160006800F000700590106840F00200DC
:102C90001060106802AB00F0020005906020CDE9E2
:102CA000000683E8B00069460B4800F091FA002264
:102CB0000521402000F050FC402000F03FFC07B010
:102CC000F0BD000000640040A82100203038024020
:102CD000000C024000680040000402407047000001
:102CE000044A0168914202D0034A914201D1FEF7A1
:102CF00059BB70470064004000680040704770474F
:102D00007047000070B5044690F82000012804D0F8
:102D1000606A40F40020606218E0022084F820001D
:102D20002068016821F00101016000F055FB0546B3
:102D30000EE000BF00F050FB401B0A2808D9606A73
:102D400040F400306062052084F82000012070BD4E
:102D500020684068C007EDD1606270BD7047704761
:102D60007047704770477047704770B54379012BC3
:102D70001CD0012646710223037105682B6802F0FE
:102D8000100440F6FE72A2409343D1E900210A43A9
:102D9000A2401A432A6001680A68C023A3409A43EC
:102DA0000A60067100214171084670BD022070BDA5
:102DB00070B5040003D02079002510B105E0012092
:102DC00070BD6571204600F007F802202071256172
:102DD00001202071002070BD10B586B0044614217A
:102DE0006846FDF78FFB1149206888421CD11048C6
:102DF0000021026842F000520260006800F00050BA
:102E000005900B481038026842F001020260006829
:102E100000F001000590102000900320CDE9010191
:102E20006946044800F0D4F906B010BD00740040B3
:102E300040380240000002402DE9F0410446876D11
:102E400000F0CAFA064694F835000025022806D09C
:102E50008020606584F834500120BDE8F08120684E
:102E6000016821F0160101602068416921F08001AC
:102E70004161206C08B9A06C20B12068016821F084
:102E8000080101602068016821F0010101600BE088
:102E900000F0A2FA801B052806D92020606504F8FE
:102EA000345F03206070D8E720680068C007EFD166
:102EB00094F85C103F208840B86004F8345F01202B
:102EC00060700020C9E790F83510022903D08021F6
:102ED000416501207047052180F8351000680168C0
:102EE00021F0010101600020704700002DE9F84346
:102EF00004464FF00009CDF8009063484FF4165196
:102F0000A56D0068B0FBF1F72E6894F85C100820FE
:102F100000FA01F131420FD021680A6852070BD53F
:102F20000A6822F004020A6094F85C108840A860E5
:102F3000606D40F00100606594F85C104FF001088E
:102F400008FA01F0304208D021684969090604D521
:102F5000A860606D40F00200606594F85C10042089
:102F60008840304208D021680968890704D5A860E4
:102F7000606D40F00400606594F85C10102088409B
:102F8000304218D021680968090714D5A860206864
:102F90000168490304D50068000308D5A16C07E067
:102FA0000168C90503D4016821F008010160216CA2
:102FB00009B12046884794F85C10202088403042B0
:102FC00031D021680968C9062DD5A86094F835006C
:102FD00005282068016806D0490347D5006800032A
:102FE0001DD4616C1CE021F016010160206841696C
:102FF00021F080014161206C08B9A06C20B12068EB
:10300000016821F00801016094F85C103F208840BD
:10301000A86084F8349084F83580216D1FE0E16B5E
:1030200009B120468847606D00282BD0606DC0072D
:1030300014D0052084F835002068016821F00101D2
:1030400001600098401C0090B84203D820680068D6
:10305000C007F6D184F8349084F83580E16C0029FB
:1030600010D001B02046BDE8F04308470168C9050B
:10307000D5D4016821F01001016084F8349084F8FF
:103080003580CCE7BDE8F883AC2100202DE9F04184
:10309000044600F0A1F906465CB1002584F83450DE
:1030A000022084F835002068016821F001010160E8
:1030B0000DE00120BDE8F08100F08EF9801B0528AD
:1030C00005D920206065032084F83500F2E72068E8
:1030D0000068C007F0D12268116820480140D4E997
:1030E00001031843D4E90336334318436369184393
:1030F000A3691843E3691843236A18430843616AC4
:10310000042903D1D4E90B13194308431060206844
:103110004069666A20F0070130460E430127042803
:103120000CD1A06A0643E06A40B12046FEF7F0FDEC
:1031300020B14020606584F83570BAE720684661A8
:103140002046FEF7D1FD94F85C203F21914081603C
:10315000656584F835700020ACE700003F8010F012
:103160002DE9F0410446866D90F8340000250128D1
:103170000DD0012084F8340094F835700020012F20
:1031800007D084F8340002252846BDE8F0810220EB
:10319000FBE7022784F8357060652046FEF7E2FD04
:1031A00094F85C103F208840B0602068016841F0CE
:1031B00016010160206C20B12068016841F008010F
:1031C00001602068016841F001010160DCE7000056
:1031D0002DE9F84FDFF8B8A1002201250AF1040B10
:1031E00003264FF00F090BF1040E00BF0B6805FA20
:1031F00002F42340A3426FD10F7907F00307012F98
:1032000001D0022F16D187684FEA420806FA08FC5F
:1032100027EA0C07D1F80CC00CFA08FC4CEA070CA2
:10322000C0F808C04768A7430C79C4F30014944061
:103230003C4344600C79E443A4070AD0C4684FEAD5
:10324000420C06FA0CF7BC438F6807FA0CF72743C9
:10325000C7600C7904F00304022C12D1D40800EBEF
:10326000840CDCF820405707FF0E09FA07F824EA1F
:103270000804D1F8108008FA07F848EA0408CCF8E6
:10328000208004684FEA420C06FA0CF7BC430F7921
:1032900007F0030707FA0CF7274307604C68E400C0
:1032A00070D53C4C276847F480472760246822F09B
:1032B000030704F480440094374C07EB040CDCF85B
:1032C000084897074FEA177809FA08F7BC43334FC5
:1032D000B84202D1002724E054E0314FB84201D176
:1032E00001271EE02F4FB84201D1022719E02E4FCF
:1032F000B84201D1032714E02C4FB84201D1042772
:103300000FE02B4FB84201D105270AE0294FB84200
:1033100001D1062705E0284FB84201D1072700E078
:10332000082707FA08F72743CCF80878DAF80040AE
:103330005746D1F804C09C435FEACC3C00D51C43FF
:103340003C60DBF800405F46D1F804C09C435FEA74
:103350008C3C00D51C433C60DEF800407746D1F839
:1033600004C09C435FEACC2C00D51C433C60084F52
:103370000C373C68D1F804C09C435FEA8C2C00D524
:103380001C433C60521C102AFFF430AFBDE8F88F9C
:10339000003C01404438024000300140000002403F
:1033A0000004024000080240000C024000100240ED
:1033B0000014024000180240001C0240426921EA49
:1033C00002030A4043EA0241816170470AB1816108
:1033D00070470904FBE7000001488068704700005F
:1033E0001822002070B5040011D021684CF6CC40A2
:1033F0000860216845F255500860D4E90001416039
:103400002168A0688860FFF7E7FF05460DE001200E
:1034100070BD00BFFFF7E0FF401B302805D92068D2
:10342000C068800701D0032070BD2068C068800795
:10343000F0D121684AF6AA200860002070BD00681B
:103440004AF6AA2101600020704700000248816806
:103450000278114481607047182200200B4810B593
:10346000016841F400710160016841F4806101600C
:10347000016841F480710160032000F08DF80020A4
:1034800000F006F800F03EF8002010BD003C0240BD
:1034900010B5014688B000221C2000F05DF81C2009
:1034A00000F04CF814480024016841F0010101606B
:1034B000006805A900F001000690684600F018F9C0
:1034C00000F036F90D494000B0FBF1F10C484FF027
:1034D0008042491E026040F2E732C0E90324C0E99D
:1034E000011400F0A1FB10B1012008B010BD044888
:1034F00000F0F4FBF9E700004038024040420F00C2
:10350000903600200C4882B0016841F4804101608F
:10351000006800F4804000900748001F016841F0F7
:10352000805101600068002200F0805000900F215F
:10353000901E02B000F010B844380240002809DBA9
:1035400000F01F02012191404009800000F1E020BD
:10355000C0F8001170470000F0B40E4B1B680C4619
:10356000C3F30223C3F10705042D00D90425191D57
:10357000072901D2002300E0DB1E012606FA05F12F
:10358000491E214099409E40761E16403143F0BCB2
:1035900003F05CBA0CED00E0064900F00702086891
:1035A0004FF6FF03184040EA0220034A1043086028
:1035B000704700000CED00E00000FA052DE9F0472F
:1035C0000E46050065D0DFF81481D8F80000F7B288
:1035D00000F00700B04207D288F80070D8F8000069
:1035E00000F00700B04254D128683D4C810712D545
:1035F000400703D5206840F4E05020602878000799
:1036000003D5206840F4604020602068A96820F05D
:10361000F000084320602878C0072DD03049686842
:103620000839012812D0022813D0032811D00968C4
:10363000890700292DDA216821F003010143216067
:10364000FFF7CAFE814641F2883A0EE00968890315
:10365000EFE709688901ECE7FFF7BEFEA0EB09017F
:10366000514502D90320BDE8F0872068696800F061
:103670000C00B0EB810FEFD1D8F80010404601F0FC
:103680000701B14207D90770006800F00700B04297
:1036900001D00120E7E72878400705D52068E968D0
:1036A00020F4E050084320602878000706D5206801
:1036B000296920F4604040EAC100206000F058F819
:1036C0002168084AC1F30311515CC84006490860EB
:1036D00006480068FFF7DCFE0020C4E7003C02401B
:1036E0000838024004040108AC2100201C220020FC
:1036F0000F2202600C4A136803F00303436013684F
:1037000003F0F0038360136803F4E053C3601268AE
:103710004FF4E05303EAD20202610448006800F06B
:10372000070008607047000008380240003C024073
:103730000448054900680968044AC1F38221515CC4
:10374000C8407047AC21002008380240140401082A
:103750000448054900680968044AC1F34231515CD4
:10376000C8407047AC21002008380240140401080A
:10377000154810B5006810F00C02144813D0144915
:10378000042A0FD0082A0ED10F4C241F2268236868
:1037900002F03F025B0207D52068C0F38810A0FB4F
:1037A000010106E0084610BD2168C1F38811A1FBA4
:1037B00000010023FCF75CFE2168C1F30141491CB4
:1037C0004900B0FBF1F010BD083802400024F400BD
:1037D00040787D012DE9F84F04006ED02078DFF8A5
:1037E0004C93C007A9F104054AD009F1040001680F
:1037F000C1F38101012908D00068C0F381000228CB
:103800000AD1D9F80000400206D52868800337D5D0
:1038100060680028E1D033E06068B0F5803F10D0E8
:10382000B0F5A02F286810D020F4803028602868D8
:1038300020F4802028606068A8B1FFF7CDFD06461F
:103840000DE0286840F48030F4E740F480202860E0
:10385000F7E700BFFFF7C0FD801B642873D8286816
:103860008003F7D50CE0FFF7B7FD064605E000BF83
:10387000FFF7B2FD801B6428F0D828688003F7D4D6
:103880002078DFF8AC8280074FF0000A3ED5A748C9
:10389000001D016811F00C0F08D00068C0F3810012
:1038A00002280BD1D9F80000400207D4286880070D
:1038B00016D5E068012800D112E033E1E068B8B124
:1038C0000120C8F80000FFF787FD064605E000BFAD
:1038D000FFF782FD801B0228C0D828688007F7D533
:1038E0002868216920F0F80040EAC10028600DE056
:1038F000C8F800A0FFF770FD064604E0FFF76CFD76
:10390000801B02281FD828688007F7D4207800077A
:1039100022D5864F87486169703771B101210160F6
:10392000FFF75AFD064604E0FFF756FD801B02280C
:1039300009D838688007F7D50EE0C0F800A0FFF777
:103940004BFD064605E082E0FFF746FD801B02289E
:103950007DD838688007F7D42078400768D5DFF82D
:10396000CCB100270BF13C0BDBF80000C0000BD4FE
:10397000DBF8001041F08051CBF80010DBF80000BC
:10398000012700F0805000906B4E3068C00510D4C5
:10399000306840F480703060FFF71EFD009005E055
:1039A000FFF71AFD0099401A022850D83068C00568
:1039B000F6D55E4EA0686C3601280FD00528306819
:1039C00010D020F001003060306820F0040030603A
:1039D000A068B8B1FFF700FD00900FE0306840F03C
:1039E0000100F4E740F004003060F7E7FFF7F4FC73
:1039F0000099411A41F28830814266D830688007C8
:103A0000F4D50EE0FFF7E8FC009007E0FFF7E4FCD8
:103A10000099411A41F28830814256D830688007B7
:103A2000F4D42FB1DBF8001021F08051CBF8001056
:103A3000A069C8B33D49091D0968C1F38101022984
:103A40004AD00228504607D0C8F8600000E03CE0A9
:103A5000FFF7C2FC04463BE04746C8F86000FFF7AA
:103A6000BBFC064605E000BFFFF7B6FC801B022842
:103A70002BD828688001F7D4D4E907010843A16A4C
:103A80002E4A490802EB0141626A41EA8211084369
:103A900094F82C1040EA0161C9F800100120386642
:103AA000FFF79AFC044606E03EE000BFFFF794FCF7
:103AB000001B022809D828688001F7D534E000BF30
:103AC000FFF78AFC001B022802D90320BDE8F88F0B
:103AD00028688001F4D427E00128F7D0D9F8000045
:103AE000E26900F4800191421CD1226A00F03F019A
:103AF000914217D147F6C071626A0140B1EB821F53
:103B000010D1A26A4FF0FF3300F4403103EB5202B0
:103B1000B1EB024F06D194F82C1000F07060B0EBBE
:103B2000016F01D00120D1E70020CFE70438024027
:103B300000004742800E4742007000400000FFFF37
:103B40007047704710B590F83C20012A22D001221E
:103B500080F83C20CA688C6822F4407222434C688A
:103B600022F4806222430C6822F4006222430C6932
:103B700022F4805222434C6922F400522243C96944
:103B8000002322F480420A4301684A6480F83C30F2
:103B9000002010BD022010BD70B590F83C20012A15
:103BA00032D0012480F83C40022280F83D20036896
:103BB0005A689D6822F070060A6832435A60134BB7
:103BC00002689A4214D0B2F1804F11D0104B9A4241
:103BD0000ED0104B9A420BD00F4B9A4208D00F4B8D
:103BE0009A4205D00E4B9A4202D00E4B9A4204D113
:103BF000496825F080031943916080F83D40002119
:103C000080F83C10084670BD022070BD00000140E5
:103C10000004004000080040000C00400004014087
:103C2000004001400018004010B5040003D094F893
:103C30003D0010B107E0012010BD002084F83C00D9
:103C4000204600F01FF8022084F83D00211D206866
:103C500002F026FA012084F8460084F83E0084F839
:103C60003F0084F8400084F8410084F8420084F862
:103C7000430084F8440084F8450084F83D000020A7
:103C800010BD000008B500681149884209D11148EB
:103C9000016841F001010160006800F0010000903E
:103CA00008BD0D498842FBD10A48001F016841F058
:103CB000040101600068002200F00400009005216A
:103CC0001E20FFF749FCBDE808401E20FFF736BC68
:103CD00000000140443802400008004090F83D10C8
:103CE000012901D001207047022180F83D100168B0
:103CF000CA6842F00102CA6000681149884214D0C3
:103D0000B0F1804F11D00F4988420ED00E49884241
:103D10000BD00E49884208D00D49884205D00D4984
:103D2000884202D00C49884204D1816801F0070121
:103D3000062903D0016841F00101016000207047AD
:103D4000000001400004004000080040000C00405A
:103D500000040140004001400018004070B50446D6
:103D600090F83C00012817D0012584F83C5002202F
:103D700084F83D002068826822F0770222F47F42B6
:103D800082600868502830D00DDC20284DD005DC3A
:103D900098B310283BD148E0022070BD302844D0B1
:103DA000402834D139E0602828D0702806D0B0F5FA
:103DB000805F2CD0B0F5005F29D10AE0CB68D1E953
:103DC0000121206802F0DDF92068816841F0770167
:103DD00009E0CB68D1E90121206802F0D2F920681E
:103DE000816841F48041816011E0CA6849682068B7
:103DF00002F09CFA5021206807E016E0CA68496882
:103E0000206802F0A4FA6021206802F0C4F984F866
:103E10003D50002084F83C0070BDCA6849682068A5
:103E200002F084FA40212068EFE72268014610463C
:103E3000EBE7704770B50446006801694FF0000574
:103E4000C943890715D4C168C943890711D4E91E3C
:103E5000016101202077206880698007204602D018
:103E6000FFF7E7FF04E000F0C3F8204600F052F946
:103E7000257720680169C943490717D4C168C94338
:103E8000490713D46FF004010161022020772068F4
:103E9000806910F4407F204602D0FFF7CAFF04E09B
:103EA00000F0A6F8204600F035F925772068016972
:103EB000C943090716D4C168C943090712D46FF072
:103EC00008010161042020772068C069800720462E
:103ED00002D0FFF7AEFF04E000F08AF8204600F0C1
:103EE00019F9257720680169C943C90617D4C16843
:103EF000C943C90613D46FF010010161082020776F
:103F00002068C06910F4407F204602D0FFF791FF7F
:103F100004E000F06DF8204600F0FCF825772068FA
:103F20000169C943C90708D1C168C943C90704D198
:103F3000891E0161204600F053F920680169C943D8
:103F4000090609D4C168C943090605D46FF0800188
:103F500001612046FFF7F4FD20680169C943490665
:103F600009D4C168C943490605D46FF04001016115
:103F7000204600F03CF920680169C94389060BD44A
:103F8000C168C943890607D46FF02001016120464A
:103F9000BDE87040FFF7D5BD70BD000010B586B01C
:103FA000044614216846FCF7ADFA0E4920688842A1
:103FB00016D10D480021026842F01002026000682C
:103FC00000F0100005904FF4206000900220CDE931
:103FD00001010120CDE9031069460448FFF7F8F814
:103FE00006B010BD00000140303802400010024011
:103FF000704770B5044690F83C000D4601280AD081
:10400000012084F83C0042B1042A18D0082A2AD0A2
:104010000C2A4DD139E0022070BD206802F0C4F8AE
:104020002068816941F0080181612068816921F07F
:1040300004018161206881692A69114311E02068C7
:1040400002F0E2F82068816941F400618161206832
:10405000816921F480618161206881692A6941EA6E
:104060000221816124E0206802F004F92068C1691E
:1040700041F00801C1612068C16921F00401C161FA
:104080002068C1692A69114311E0206802F026F90D
:104090002068C16941F40061C1612068C16921F4EF
:1040A0008061C1612068C1692A6941EA0221C16158
:1040B000002084F83C0070BD10B5040003D094F8D3
:1040C0003D0010B107E0012010BD002084F83C0045
:1040D000204600F01EF8022084F83D00211D2068D3
:1040E00001F0DEFF012084F8460084F83E0084F8E9
:1040F0003F0084F8400084F8410084F8420084F8CE
:10410000430084F8440084F8450084F83D00002012
:1041100010BD70477047000010B50446022249B137
:1041200004290ED0082913D094F84100012816D094
:10413000012010BD94F83E000128F9D184F83E20FA
:104140000FE094F83F000128F2D184F83F2008E006
:1041500094F840000128EBD184F8402001E084F875
:1041600041200122206801F0FFFF16492068164A0D
:10417000884201D0904203D1436C43F4004343642E
:104180002068884213D0B0F1804F10D00F49884288
:104190000DD00F4988420AD00E49884207D090427C
:1041A00005D00D49884202D00C49884204D181686B
:1041B00001F00701062903D0016841F00101016007
:1041C000002010BD00000140000401400004004038
:1041D00000080040000C0040004001400018004072
:1041E0000068B0F1804F01D1FFF730B970477047D8
:1041F00070477047F8B5026804461068D168536983
:1042000010F00F0F4FF0000553D003F0010601F43A
:10421000907737435FD0C20705D0CA0503D5226C1B
:1042200042F001022264420705D5DA0703D0226C6E
:1042300042F002022264820705D5DA0703D0226C1D
:1042400042F004022264020707D501F02002324343
:1042500003D0226C42F008022264226C002A34D07F
:10426000800604D5880602D5204602F01FF9206892
:104270004069216CC0F38010090700D430B3204698
:1042800002F0F3F82068416949061BD5416921F025
:1042900040014161A06BA8B159490165A06BFEF7CF
:1042A00012FE002811D0A06B016D01B0BDE8F040F6
:1042B000084783060FD58B060DD52046BDE8F8408C
:1042C00002F0F4B82046FFF794FFF8BD2046FFF750
:1042D00090FF2564F8BD266B2023012E53D1C6061E
:1042E00051D5CE064FD510685068009050694006F1
:1042F0002BD5A16B086840680004000CEAD0A68D9D
:104300008642E7D9E085C869B0F5807F18D0D068CB
:1043100020F48070D0602068416921F00101416182
:104320002068416921F04001416184F83E302563F5
:104330002068C16821F01001C160A06BFEF77CFD10
:10434000A08DE18D401A81B219E0A08DE18D401A57
:1043500081B2E08D0028BDD00029BBD0D06820F408
:104360009070D0602068426922F00102426184F8B6
:104370003E3025632068C26822F01002C2602046E9
:10438000FFF736FFF8BD05062BD50D0629D594F8A5
:104390003D002128F6D1A068B0F5805F01D12069E9
:1043A000B0B1206A411C2162216800784860E08C2D
:1043B000401E0004000CE084E4D12068C16821F0B4
:1043C0008001C1602068C16841F04001C160F8BD52
:1043D000206A0088C0F308005060206A801C2062B8
:1043E000E5E74006F3D54806F1D5D168204621F02F
:1043F0004001D16084F83D3000F07EFAF8BD000045
:10440000D963000870B5040004D094F83D0000257D
:1044100010B106E0012070BD84F83C50204600F049
:1044200023F8242084F83D002068C16821F400515D
:10443000C160204602F092F82068016921F49041A1
:1044400001612068416921F02A0141612068C16849
:1044500041F40051C1602564202084F83D0084F8B7
:104460003E00002070BD00002DE9F04F87B00446EB
:1044700014216846FCF746F8F048DFF8BC83103892
:104480000222D4F800C0ED4B0321DFF8B4E300258D
:1044900097060615C44540D1D3F800C04CF4002C53
:1044A000C3F800C01B6803F400230593036843F0BE
:1044B00001030360006800F0010005900120CDE9D0
:1044C0000201CDE900120820049069467046FEF70B
:1044D0007FFEDFF87483DB494046C8F80010C0E96E
:1044E0000175C0E90356C8F81450C8F81850C8F848
:1044F0001C50C8F82050C8F82450FEF7C7FD08B17A
:10450000FDF78AFDC4F83880002205213420C8F860
:104510003840FFF721F834207AE0DFF830834FF499
:1045200080794FF0400BC44578D1D3F800C0002506
:104530004CF4801CC3F800C01B6803F4801305937F
:10454000036843F004030360036803F00403059366
:10455000036843F0080303600068884600F0080021
:1045600005904FF48050CDE900020120CDE9020111
:104570000820049092466946B548FEF729FE0420BB
:10458000CDE9000A0120CDE902080820049069461F
:10459000B048FEF71DFEDFF8B082AA4908F16008B6
:1045A00030394046C8F80010C0E90175C0E903562B
:1045B000BA464FF44037C8F82070C8F81450C8E91C
:1045C0000659C8F82450FEF761FD08B1FDF724FD37
:1045D0009D4D9C48C4F83880C0357830C8F83840C4
:1045E00085E8010C0020C5E903066861A861C5E9FA
:1045F000070768622846FEF749FD08B1FDF70CFD84
:104600006563002205213520AC63FEF7A5FF352048
:10461000FEF794FF07B0BDE8F08FFFE7DFF83882C0
:104620004FF0070AC4455AD1844BA8461B1DD3F846
:1046300000C04CF0100CC3F800C01B6803F010035E
:104640000593036843F0010303600068CDE902515C
:1046500000F0010005904FF4C060CDE90002CDF8F4
:1046600010A069467046FEF7B3FDDFF8F4A17B4960
:104670005046CAF80010C0E90175C0E90356CAF8EF
:104680001450C0E906594FF40039CAE90895FEF7FD
:10469000FDFC08B1FDF7C0FC714D7048C4F838A0AE
:1046A00060357830CAF8384085E88108C5E9038666
:1046B000C5F81480C5F81880C5E907892846C5F8EB
:1046C0002480FEF7E3FC08B1FDF7A6FC6563002239
:1046D00005212520AC63FEF73FFF252098E7DFF892
:1046E0008481C44543D1D3F800C04CF4003CC3F8E6
:1046F00000C01B6803F400330593036843F0010313
:1047000003600068CDE9025100F0010005900C2023
:10471000CDE90002CDF810A069467046FEF758FDBD
:10472000DFF83C81474908F1C00848314046C8F8E5
:104730000010C0E90175C0E90356C8F814504FF4E1
:104740004031C8F81850C8E90791C8F82450FEF75E
:104750009DFC08B1FDF760FCC4F8388000220521FB
:104760002620C8F83840FEF7F7FE262050E7DFF88D
:10477000F880C4457FF44EAFD3F800C04CF4802CD1
:10478000C3F800C01B6803F480230593036843F05B
:10479000020303600068CDE9025100F002000590B9
:1047A0004FF44060CDE90002CDF810A069462F48D3
:1047B000FEF70EFDDFF8B88022494046BA46C0E950
:1047C0000356C8F814501831C8F8185088E8020C7D
:1047D0004FF40037C8E90757C8F82450FEF756FCD5
:1047E00008B1FDF719FCC4F83480C8F83840DFF888
:1047F0008080144908F1600818394046C8F8001054
:10480000C0E901A5C0E90356C8F82070C8F81450E3
:10481000C8E90659C8F82450FEF738FC08B1FDF77E
:10482000FBFBC4F83880002205212720C8F8384057
:10483000FEF792FE2720EBE6004C00404038024095
:1048400000000240406002409033002000500040D1
:1048500000080240000C0240001001404064024089
:10486000B0340020004400400048004000040240F2
:10487000D03500207047000070B5044690F83D0028
:10488000202830D169B362B394F83C0001282AD0C3
:10489000012084F83C002162A284E2840025256482
:1048A000212084F83D00636B1048D863636B104887
:1048B0001864636B0F48D864606B134605652668FF
:1048C000606B321DFEF74CFC21686FF04000086001
:1048D00084F83C502068416941F08001416100202A
:1048E00070BD012070BD022070BD0000336400085F
:1048F00061640008E963000870477047B5EEC00ABC
:10490000F1EE10FA02DDB0EE401A01E0B1EE401A0D
:10491000F6EE001A60EEA11AB4EEE11AF1EE10FA0A
:1049200006DDB5EEC00AF1EE10FA02DB30EE600AE9
:10493000704730EE200A704702F098F870B50D4CC1
:104940000025C4F8B4520C48016821F040410160D0
:10495000016841F080410160C4F8BC52022004F5B6
:104960002D7404F07BF801202060022004F076F81A
:10497000256070BD008040420004024070B50D4CBF
:104980000025C4F8B4520C48016821F04041016090
:10499000016841F0804101600126C4F8BC62022038
:1049A00004F52D7404F05AF82660022004F056F83D
:1049B000256070BD00804042000402402DE9F047B0
:1049C000814616480024016821F0404101600168D9
:1049D0000160134E254627464FF00108C6F8B47211
:1049E000022004F03BF8C6F8B4826006040ED6F844
:1049F0003C0208B1641CE4B2012004F02FF86D1CE5
:104A0000EDB2082DEAD3B9F1000F04D0FFF796FFFD
:104A10002046BDE8F087FFF7B1FFF9E70004024048
:104A2000008040422DE9F04106461448016821F01B
:104A300040410160016841F080410160104C002755
:104A4000C4F8B4723D464FF00108F009C4F8BC0246
:104A50007006060E022004F001F8C4F8B4820220A9
:104A600003F0FCFFC4F8B472022003F0F7FF6D1CE2
:104A7000EDB2082DE9D3BDE8F0810000000402404A
:104A80000080404270B50D48016821F0404101604E
:104A9000016841F080410160094C0120C4F8BC026A
:104AA000C4F8B402042004F52D7403F0D7FF0025E8
:104AB000A560042003F0D2FF256070BD0004024011
:104AC000008040420E4810B5016821F0404101606D
:104AD000016841F0804101600A4C0020C4F8B40232
:104AE000C4F8BC02042004F52D7403F0B7FF0120C4
:104AF0002060A060BDE81040042003F0AFBF0000BC
:104B0000000402400080404270B512480024016851
:104B100021F040410160016801600F4D0126C5F898
:104B2000BC62304603F09AFFC5F8B462012003F07E
:104B300095FF07E0641CE4B2FA2C03D9FFF7C2FF2B
:104B4000012070BDD5F83C020028F3D1C5F8B402AD
:104B500070BD0000000402400080404210B5044CCB
:104B60002046E168884720462169BDE81040084793
:104B7000D8020020B5EEC00AF1EE10FA06D0F5EE2C
:104B8000C00AF1EE10FA01D1F0EE400AB0EE600A70
:104B90007047000010B50246006841F67D2100888C
:104BA000884202D200F2825002E0A0F5D0507D3857
:104BB00003B240F6FC741449A3F601039068A342C3
:104BC00008D89FED120A80ED500A906880ED200A07
:104BD000022007E09FED0E0A80ED500A906880EDFC
:104BE000200A0120C871487F00280BD09068DFEDB3
:104BF000090A90ED200A30EE200A00F0DBF89068F8
:104C000080ED200A10BD00003000002000E02745A4
:104C100000E8D34500C07F4410B5FCF7D3FE00F098
:104C200005F800F0BBFF012010BD00000F4910B5D2
:104C30000A680020D0810A6810820A6850820A68D7
:104C400010750A6850750A68D0820A6850810A682F
:104C50009081002202F12C030C68521CD2B2E05465
:104C6000122AF7D3024981F82A0010BD5002002011
:104C7000300000202DE9F05F474E4849484B7068EE
:104C8000484A401C706091F8207001241B7E92F805
:104C90004820DFF81491454DA1024FF4804A4FF4AB
:104CA000005B17B9424F3F7E1FB1012B66D0EAB3BC
:104CB00002E0012B62D0AAB1C5F8A842C5F8AC4207
:104CC000FA21B0FBF1F201FB1200002861D1594634
:104CD0004C464846FEF772FB51462046BDE8F05F61
:104CE000FEF76CBBB0466426B0FBF6F00527B0FBC0
:104CF000F7F207FB1200012808D14846FEF75EFBD9
:104D0000C5F8AC42C5F8B442C5F8B842D8F80400BA
:104D10004446B0FBF6F0B0FBF7F107FB11000228A8
:104D200003D181024846FEF749FB00E018E06068C5
:104D3000B0FBF6F0B0FBF7F107FB1100032803D13D
:104D400051464846FEF73AFB6068B0FBF6F0B0FB10
:104D5000F7F107FB110004281BD159464846BDE76F
:104D60004FF4FA72B0FBF2F302FB1300002810D1EB
:104D70004846FEF723FBC5F8AC4206E00021C5F823
:104D8000A812C5F8AC12002A9AD1C5F8B442C5F8E9
:104D9000B842BDE8F09F000000000020E0040020C1
:104DA000500200204C030020000802400000414255
:104DB00004040020DFED080AB5EEC00AF1EE10FA97
:104DC00002D230EE200A704710EE100A03498842E2
:104DD000F9DB30EE600A704700F8FF4500F8FF4548
:104DE00010B5FDF71DFAFDF731FA012010BD03469D
:104DF00000B5501A8A4202DA41F6FF71084400B247
:104E000042F2FE71081A01B2B1F5005F03DBA1F5B1
:104E1000F851FF3909B2A1F2FF7100EE101AB8EE95
:104E2000C00AFFF7C7FFBDEEC00A186810EE101ADF
:104E3000018000BD70B5134CA0F201200628E26B82
:104E40001FD2DFE800F003080A11141B0E48904738
:104E50000D48216C0FE00C4811E00B48203005464E
:104E600090472846216C06E007483030F7E70748AE
:104E700090470648216CBDE8704008470348103051
:104E8000EDE770BD4C030020F414002054190020FD
:104E900070B5164CA0F201200828E26B24D2DFE89E
:104EA00000F01A131D2004060D10114801E01048EF
:104EB0001030054690472846216C09E00C48203008
:104EC000F7E70B483030F4E70A4890470948216C6F
:104ED000BDE87040084707481030EAE70548203031
:104EE000E7E704483030E4E770BD00004C030020E1
:104EF000341500203421002070B50546FFF7C2FDAF
:104F00000F4C20784006000EFFF78CFDFFF7FCFDEC
:104F10002846FFF787FDFFF7F7FDFFF7B3FD207881
:104F2000012101EB4000C0B2FFF77CFDFFF7ECFD73
:104F30000020FFF743FD0446FFF7C4FD204670BD87
:104F4000700500202DE9F04116460D460746FFF793
:104F500099FD134C20784006000EFFF763FDFFF724
:104F6000D3FD3846FFF75EFDFFF7CEFDFFF78AFD64
:104F70002078012101EB4000C0B2FFF753FDFFF79D
:104F8000C3FD002406E00120FFF718FD641C05F8AE
:104F9000010BE4B2B442F6D3BDE8F041FFF792BD95
:104FA000700500207FB500241548009401940294F8
:104FB0001249039401604FF48031C0E90114046187
:104FC000047680F820400F49C0E90A140125C56124
:104FD000C46080F830404561FDF7ACFA08B1FDF7D8
:104FE0001BF80A20CDE90005694602940448FDF744
:104FF000FBF9002801D0FDF70FF87FBD002001402C
:10500000F43000200100000F104810B50E49016077
:105010000321416000214FF400228160C0E90312A6
:105020004FF4401242610176012242768176C176C8
:1050300001774277FDF747FD002803D0BDE8104017
:10504000FCF7EABF10BD0000006400403C310020C6
:10505000104810B50E4901600321416000214FF452
:1050600000228160C0E903124FF4401242610176D0
:10507000012242768176C17601774277FDF723FDE2
:10508000002803D0BDE81040FCF7C6BF10BD0000EB
:1050900000680040643100201CB500240C490094D5
:1050A0000A48019408600846FDF782FE08B1FCF743
:1050B000B3FF0220CDE90040002269460448FDF715
:1050C00054FE002801D0FCF7A7FF1CBD007400406F
:1050D0008C310020294808B5016841F400110160B5
:1050E000016801F400110091016841F48001016040
:1050F0000068002200F48000009005210B20FEF7DC
:105100002BFA0B20FEF71AFA002205210C20FEF7DD
:1051100023FA0C20FEF712FA002205210D20FEF7DB
:105120001BFA0D20FEF70AFA002205210E20FEF7D9
:1051300013FA0E20FEF702FA002205211020FEF7D6
:105140000BFA1020FEF7FAF9002205212F20FEF7B6
:1051500003FA2F20FEF7F2F9002205213A20FEF78C
:10516000FBF93A20FEF7EAF9002205214620FEF776
:10517000F3F9BDE808404620FEF7E0B930380240B8
:1051800010B5CEB01C223C496846FBF7A2F90021BD
:10519000684605F0A1FA394C37491C2220601C31C1
:1051A00007A8FBF796F9002107A805F095FA324900
:1051B00060601C2238310EA8FBF78BF900210EA885
:1051C00005F08AFA2C49A0601C22543115A8FBF77F
:1051D00080F9002115A805F07FFA2749E0601C221C
:1051E00070311CA8FBF775F900211CA805F074FAB2
:1051F000214920611C228C3123A8FBF76AF9002188
:1052000023A805F069FA1C4960611C22A8312AA86C
:10521000FBF75FF900212AA805F05EFA1649A061A4
:105220001C22C43131A8FBF754F9002131A805F044
:1052300053FA1149E0611C22E03138A8FBF749F923
:10524000002138A805F048FA0B4920621C22FC31E5
:105250003FA8FBF73EF900213FA805F03DFA606248
:105260001C22074946A8FBF734F9002146A805F09F
:1052700033FAA0624EB010BDD00201087C2100209C
:10528000E80301082DE9F04387B014216846FBF7D5
:1052900039F93A480024016841F0040101600168CD
:1052A00001F004010591016841F08001016001688D
:1052B00001F080010591016841F001010160016880
:1052C00001F001010591016841F0100101600168E0
:1052D00001F010010591016841F0020101600168CF
:1052E00001F002010591016841F0080101600068C8
:1052F000234F00F008004FF4D845059001222946BD
:105300003846FEF763F8DFF87C804FF42046002231
:1053100031464046FEF75AF8DFF86C9000224FF411
:1053200072414846FEF752F800950125CDE9015437
:10533000694638460394FDF74BFF0320CDE9024050
:10534000CDE9006569464046FDF742FF68020090DE
:10535000CDE90154694648460394FDF739FF4FF4FF
:105360007040CDE900050220CDE90240694648467B
:10537000FDF72EFF07B0BDE8F08300003038024093
:105380000008024000040240000C0240094810B529
:10539000074901600121416040F6FF718160FEF71D
:1053A00021F8002803D0BDE81040FCF735BE10BD41
:1053B00000300040A031002010B596B000240F94BA
:1053C00010941194129413941C2168461494FBF7C2
:1053D00099F8202107A8FBF795F82D482B49016083
:1053E00040F28F61C0E9011440F2E731C0E90314D3
:1053F00044618461FEF718FC08B1FCF70DFE4FF420
:1054000080500F900FA92248FEF7A8FC08B1FCF7C6
:1054100003FE1F48FEF750FE08B1FCF7FDFD139494
:1054200013A91B481494FEF7B7FB08B1FCF7F4FD71
:105430006020CDE9000402940394049405940022B2
:10544000694613480694FEF7D4FD08B1FCF7E4FD65
:10545000042269460E48FEF7CCFD08B1FCF7DCFDDE
:105460000794089409944FF400500A94CDE90B4036
:1054700007A907480E94FEF765FB08B1FCF7CCFDC1
:105480000348FEF78BFD16B010BD00000000014080
:10549000AC31002010B586B0002418480094019467
:1054A00002940394049414490594016042F2CF01DC
:1054B000C0E9011441F26F71C0E9031480218161D8
:1054C000FEF7B2FB08B1FCF7A7FD4FF48050009047
:1054D00069460A48FEF742FC08B1FCF79DFD0494BA
:1054E00004A906480594FEF757FB002801D0FCF7F5
:1054F00093FD06B010BD000000080040F43100200C
:105500000C4810B50A4901604FF4E13141600021B7
:1055100081600C22C160C0E904128161C161FEF7A3
:1055200071FF002803D0BDE81040FCF775BD10BD29
:1055300000500040803200200C4810B50A4901603C
:105540004FF4E1314160002181600C22C160C0E96B
:1055500004128161C161FEF755FF002803D0BDE848
:105560001040FCF759BD10BD00100140C4320020AE
:105570000D4810B50B4901600C49416000214FF402
:1055800080628160C0E903120422C0E90521C16183
:10559000FEF738FF002803D0BDE81040FCF73CBD03
:1055A00010BD00000044004008330020A086010028
:1055B0000C4810B50A4901604FF4E1314160002107
:1055C00081600C22C160C0E904128161C161FEF7F3
:1055D00019FF002803D0BDE81040FCF71DBD10BD29
:1055E000004800404C330020FEE7000010B500F0FA
:1055F0000FF8064C84ED030A00F056F884ED040A17
:1056000000F0B4F884ED050A10BD0000D8010020B8
:1056100070B51D4CDFED1D0AA4F17805206890EDF2
:10562000060A85ED060AB0F90E00B0F5967F02DD98
:10563000B0EE600A06E000EE100A1548B8EEC00AA7
:1056400000F06AFAF2EE050A95ED061A60EE200AFD
:10565000DFED101A2068104A41EE210AC0ED060A5B
:1056600010EE900A2168904203DDDFED0C0AC1EDD7
:10567000060A20680A4A8169914203D9DFED090AC6
:10568000C0ED060A70BD00005002002000000000BE
:10569000082700209A99993E0000254400002544DF
:1056A000000025C4000025C470B5284C2DED028BE8
:1056B000A4F1780520689FED268A90ED070A85ED14
:1056C000070AB0F91000B0F5967F02DDB0EE480A87
:1056D0000AE000EE100AF0EE480A1E48B8EEC00AD2
:1056E00000F01AFAB1EE400AF1EE0C0A95ED071A35
:1056F00060EE200ADFED181A2068184A41EE210AF0
:1057000010EE901AC0ED070A914203DDDFED140A96
:10571000C0ED070A10EE901A124A914203D9DFED4C
:10572000120AC0ED070AB0EE601AB5EEC01AF1EE2B
:1057300010FA01DCB1EE601A11EE101AB1F17E5FC1
:1057400001DA80ED078ABDEC028B70BD50020020AB
:1057500000000000442700209A99993E000025444B
:1057600000002544000025C4000025C470B5104C7D
:10577000DFED100A04F1780594ED050A84ED080ABE
:105780002868B0F9120000EE100A0B48B8EEC00A03
:1057900000F0C2F9DFED090A9FED091A286820EE32
:1057A000200AD4ED080A00EE810A80ED0A0A70BDD5
:1057B000D80100200000000080270020CDCC4C3F05
:1057C000CDCC4C3E10B5044601704078884203D0E1
:1057D00061700020A07102E0A079012805D0204668
:1057E00000F01CF8A071012804D12046BDE810404B
:1057F00000F002B810BD000000780121064A01281F
:1058000005D0022805D0032802D100F0B3BD1172E3
:1058100070475172704700003000002010B50446F8
:105820000078012807D0022808D0032809D00120D9
:10583000A071C0B210BDFCF7CFFDF9E7FBF7B4FED5
:10584000F6E700F0AFFDF3E70648002101224172C0
:105850000172817280F82720C17680F829100248F1
:1058600081817047300000200C020020FEE700001C
:1058700010B505F085F904F025FA04F057FE064846
:10588000406980470548416988470548416988471C
:10589000BDE8104007F07ABD30030020E00400208E
:1058A0000404002070B516462DED048BB0EE609A0E
:1058B0000D00DFED2B8A9FED2B8A044607D003F005
:1058C000F1F8D6B3012E25D0022E36D127E003F011
:1058D000E9F8BEB1012E02D0022E13D104E094EDFE
:1058E000020AF0EE680A09E094ED020AF0EE680A96
:1058F000FFF704F884ED020AF0EE480AFEF7FEFF17
:1059000084ED020A204607F0DFFC94ED0A0ABDECA4
:10591000048B70BD94ED020AF0EE680A09E094ED84
:10592000020AF0EE680AFEF7E9FF84ED020AF0EEE3
:10593000480AFEF7E3FF84ED020A204607F0C4FCA4
:1059400094ED0A0A284685ED000AB0EE490A03F0F4
:10595000A9F8284607F0B8FC95ED0A0AD7E7000039
:1059600000F8FF4500F07F4510B50548FEF7B6F991
:1059700004210448FEF7D0FB03490020886310BDD2
:10598000F4310020AC3100200000014010B5274C5C
:10599000B7EE001A2DED028BB4F900009FED248ABA
:1059A00000EE100AF0EE480AB8EEC00AFCF73AFA28
:1059B000B5EEC00AF1EE10FA36D1B4F90200B7EE36
:1059C000001A00EE100AF0EE480AB8EEC00AFCF722
:1059D00029FAB5EEC00AF1EE10FA25D1B4F90400A7
:1059E000B7EE001A00EE100AF0EE480AB8EEC00A50
:1059F000FCF718FAB5EEC00AF1EE10FA14D1B4F9BA
:105A00000600B7EE001A00EE100AF0EE480AB8EEF3
:105A1000C00AFCF707FAB5EEC00AF1EE10FA03D19E
:105A20000120BDEC028B10BD0020FAE70C02002023
:105A30000000000010B5026800211180026851804A
:105A4000026891800268D180036804221A72036898
:105A50005A720268D181026811820268518202681A
:105A60001175026851750268D1820268518102681D
:105A70009181002202F12C030468521CD2B2E1543D
:105A8000122AF7D310BD10B5FBF79CFF00F012F8F7
:105A900000F084F8012010BD10B5054C01462046E9
:105AA000E268904720462169BDE8104008470000A1
:105AB0005002002030B516490020164B0A681080AD
:105AC0000A6850800A6890800A68D0800A6850810D
:105AD0000A68908183F829000A68D0810A681082D8
